{
  "contractName": "FoundersNftPawthSwap",
  "abi": [
    {
      "inputs": [
        {
          "internalType": "contract NFT",
          "name": "_founders",
          "type": "address"
        },
        {
          "internalType": "contract ERC",
          "name": "_pawth",
          "type": "address"
        }
      ],
      "stateMutability": "nonpayable",
      "type": "constructor"
    },
    {
      "inputs": [],
      "name": "founders",
      "outputs": [
        {
          "internalType": "contract NFT",
          "name": "",
          "type": "address"
        }
      ],
      "stateMutability": "view",
      "type": "function"
    },
    {
      "inputs": [],
      "name": "pawth",
      "outputs": [
        {
          "internalType": "contract ERC",
          "name": "",
          "type": "address"
        }
      ],
      "stateMutability": "view",
      "type": "function"
    }
  ],
  "bytecode": "0x608060405234801561001057600080fd5b506040516103893803806103898339818101604052810190610032919061016d565b816000806101000a81548173ffffffffffffffffffffffffffffffffffffffff021916908373ffffffffffffffffffffffffffffffffffffffff16021790555080600160006101000a81548173ffffffffffffffffffffffffffffffffffffffff021916908373ffffffffffffffffffffffffffffffffffffffff16021790555050506101ad565b600080fd5b600073ffffffffffffffffffffffffffffffffffffffff82169050919050565b60006100ea826100bf565b9050919050565b60006100fc826100df565b9050919050565b61010c816100f1565b811461011757600080fd5b50565b60008151905061012981610103565b92915050565b600061013a826100df565b9050919050565b61014a8161012f565b811461015557600080fd5b50565b60008151905061016781610141565b92915050565b60008060408385031215610184576101836100ba565b5b60006101928582860161011a565b92505060206101a385828601610158565b9150509250929050565b6101cd806101bc6000396000f3fe608060405234801561001057600080fd5b50600436106100365760003560e01c8063411b007e1461003b578063ba13787f14610059575b600080fd5b610043610077565b6040516100509190610140565b60405180910390f35b61006161009b565b60405161006e919061017c565b60405180910390f35b60008054906101000a900473ffffffffffffffffffffffffffffffffffffffff1681565b600160009054906101000a900473ffffffffffffffffffffffffffffffffffffffff1681565b600073ffffffffffffffffffffffffffffffffffffffff82169050919050565b6000819050919050565b60006101066101016100fc846100c1565b6100e1565b6100c1565b9050919050565b6000610118826100eb565b9050919050565b600061012a8261010d565b9050919050565b61013a8161011f565b82525050565b60006020820190506101556000830184610131565b92915050565b60006101668261010d565b9050919050565b6101768161015b565b82525050565b6000602082019050610191600083018461016d565b9291505056fea2646970667358221220534b680bc744f2cdbf70d82d1ac67f06cc6fec1ae01ea79c6347b7aa9921fa9d64736f6c634300080e0033",
  "immutableReferences": {},
  "source": "pragma solidity ^0.8.0;\r\n\r\n\r\n\r\nimport '@openzeppelin/contracts/utils/math/SafeMath.sol';\r\nimport './NFT.sol';\r\nimport './ERC.sol';\r\n\r\ncontract FoundersNftPawthSwap  {\r\n    using SafeMath for uint256;\r\n    NFT public founders;\r\n    ERC public pawth;\r\n\r\n\r\n    constructor(NFT _founders, ERC _pawth) public {\r\n        founders = _founders;\r\n        pawth = _pawth;\r\n    }\r\n}",
  "sourcePath": "C:\\Users\\kdmcg\\Documents\\practice_solidity\\defi_tutorial\\src\\contracts\\Swap.sol",
  "compiler": {
    "name": "solc",
    "version": "0.8.14+commit.80d49f37.Emscripten.clang"
  },
  "schemaVersion": "3.4.7",
  "updatedAt": "2022-06-08T21:55:38.071Z",
  "devdoc": {
    "kind": "dev",
    "methods": {},
    "version": 1
  },
  "userdoc": {
    "kind": "user",
    "methods": {},
    "version": 1
  }
}