{
  "contractName": "NFT",
  "abi": [
    {
      "inputs": [],
      "stateMutability": "nonpayable",
      "type": "constructor"
    },
    {
      "anonymous": false,
      "inputs": [
        {
          "indexed": true,
          "internalType": "address",
          "name": "account",
          "type": "address"
        },
        {
          "indexed": true,
          "internalType": "address",
          "name": "operator",
          "type": "address"
        },
        {
          "indexed": false,
          "internalType": "bool",
          "name": "approved",
          "type": "bool"
        }
      ],
      "name": "ApprovalForAll",
      "type": "event"
    },
    {
      "anonymous": false,
      "inputs": [
        {
          "indexed": true,
          "internalType": "address",
          "name": "operator",
          "type": "address"
        },
        {
          "indexed": true,
          "internalType": "address",
          "name": "from",
          "type": "address"
        },
        {
          "indexed": true,
          "internalType": "address",
          "name": "to",
          "type": "address"
        },
        {
          "indexed": false,
          "internalType": "uint256[]",
          "name": "ids",
          "type": "uint256[]"
        },
        {
          "indexed": false,
          "internalType": "uint256[]",
          "name": "values",
          "type": "uint256[]"
        }
      ],
      "name": "TransferBatch",
      "type": "event"
    },
    {
      "anonymous": false,
      "inputs": [
        {
          "indexed": true,
          "internalType": "address",
          "name": "operator",
          "type": "address"
        },
        {
          "indexed": true,
          "internalType": "address",
          "name": "from",
          "type": "address"
        },
        {
          "indexed": true,
          "internalType": "address",
          "name": "to",
          "type": "address"
        },
        {
          "indexed": false,
          "internalType": "uint256",
          "name": "id",
          "type": "uint256"
        },
        {
          "indexed": false,
          "internalType": "uint256",
          "name": "value",
          "type": "uint256"
        }
      ],
      "name": "TransferSingle",
      "type": "event"
    },
    {
      "anonymous": false,
      "inputs": [
        {
          "indexed": false,
          "internalType": "string",
          "name": "value",
          "type": "string"
        },
        {
          "indexed": true,
          "internalType": "uint256",
          "name": "id",
          "type": "uint256"
        }
      ],
      "name": "URI",
      "type": "event"
    },
    {
      "inputs": [],
      "name": "account2",
      "outputs": [
        {
          "internalType": "address",
          "name": "",
          "type": "address"
        }
      ],
      "stateMutability": "view",
      "type": "function",
      "constant": true
    },
    {
      "inputs": [
        {
          "internalType": "address",
          "name": "account",
          "type": "address"
        },
        {
          "internalType": "uint256",
          "name": "id",
          "type": "uint256"
        }
      ],
      "name": "balanceOf",
      "outputs": [
        {
          "internalType": "uint256",
          "name": "",
          "type": "uint256"
        }
      ],
      "stateMutability": "view",
      "type": "function",
      "constant": true
    },
    {
      "inputs": [
        {
          "internalType": "address[]",
          "name": "accounts",
          "type": "address[]"
        },
        {
          "internalType": "uint256[]",
          "name": "ids",
          "type": "uint256[]"
        }
      ],
      "name": "balanceOfBatch",
      "outputs": [
        {
          "internalType": "uint256[]",
          "name": "",
          "type": "uint256[]"
        }
      ],
      "stateMutability": "view",
      "type": "function",
      "constant": true
    },
    {
      "inputs": [
        {
          "internalType": "address",
          "name": "account",
          "type": "address"
        },
        {
          "internalType": "address",
          "name": "operator",
          "type": "address"
        }
      ],
      "name": "isApprovedForAll",
      "outputs": [
        {
          "internalType": "bool",
          "name": "",
          "type": "bool"
        }
      ],
      "stateMutability": "view",
      "type": "function",
      "constant": true
    },
    {
      "inputs": [],
      "name": "name",
      "outputs": [
        {
          "internalType": "string",
          "name": "",
          "type": "string"
        }
      ],
      "stateMutability": "view",
      "type": "function",
      "constant": true
    },
    {
      "inputs": [
        {
          "internalType": "address",
          "name": "from",
          "type": "address"
        },
        {
          "internalType": "address",
          "name": "to",
          "type": "address"
        },
        {
          "internalType": "uint256[]",
          "name": "ids",
          "type": "uint256[]"
        },
        {
          "internalType": "uint256[]",
          "name": "amounts",
          "type": "uint256[]"
        },
        {
          "internalType": "bytes",
          "name": "data",
          "type": "bytes"
        }
      ],
      "name": "safeBatchTransferFrom",
      "outputs": [],
      "stateMutability": "nonpayable",
      "type": "function"
    },
    {
      "inputs": [
        {
          "internalType": "address",
          "name": "from",
          "type": "address"
        },
        {
          "internalType": "address",
          "name": "to",
          "type": "address"
        },
        {
          "internalType": "uint256",
          "name": "id",
          "type": "uint256"
        },
        {
          "internalType": "uint256",
          "name": "amount",
          "type": "uint256"
        },
        {
          "internalType": "bytes",
          "name": "data",
          "type": "bytes"
        }
      ],
      "name": "safeTransferFrom",
      "outputs": [],
      "stateMutability": "nonpayable",
      "type": "function"
    },
    {
      "inputs": [
        {
          "internalType": "address",
          "name": "operator",
          "type": "address"
        },
        {
          "internalType": "bool",
          "name": "approved",
          "type": "bool"
        }
      ],
      "name": "setApprovalForAll",
      "outputs": [],
      "stateMutability": "nonpayable",
      "type": "function"
    },
    {
      "inputs": [
        {
          "internalType": "bytes4",
          "name": "interfaceId",
          "type": "bytes4"
        }
      ],
      "name": "supportsInterface",
      "outputs": [
        {
          "internalType": "bool",
          "name": "",
          "type": "bool"
        }
      ],
      "stateMutability": "view",
      "type": "function",
      "constant": true
    },
    {
      "inputs": [],
      "name": "symbol",
      "outputs": [
        {
          "internalType": "string",
          "name": "",
          "type": "string"
        }
      ],
      "stateMutability": "view",
      "type": "function",
      "constant": true
    },
    {
      "inputs": [],
      "name": "tokenURI",
      "outputs": [
        {
          "internalType": "string",
          "name": "",
          "type": "string"
        }
      ],
      "stateMutability": "view",
      "type": "function",
      "constant": true
    },
    {
      "inputs": [],
      "name": "tokenURIBytes",
      "outputs": [
        {
          "internalType": "bytes",
          "name": "",
          "type": "bytes"
        }
      ],
      "stateMutability": "view",
      "type": "function",
      "constant": true
    },
    {
      "inputs": [
        {
          "internalType": "uint256",
          "name": "",
          "type": "uint256"
        }
      ],
      "name": "uri",
      "outputs": [
        {
          "internalType": "string",
          "name": "",
          "type": "string"
        }
      ],
      "stateMutability": "view",
      "type": "function",
      "constant": true
    }
  ],
  "bytecode": "0x6080604052738e6a9e6f141bf9bd5a9a4318ad5458d1ad312939600560006101000a81548173ffffffffffffffffffffffffffffffffffffffff021916908373ffffffffffffffffffffffffffffffffffffffff160217905550604051806060016040528060378152602001620037fd60379139600690805190602001906200008a929190620006b3565b50604051806060016040528060378152602001620037fd6037913960079080519060200190620000bc92919062000744565b50348015620000ca57600080fd5b5060405180602001604052806000815250620000ec81620001fb60201b60201c565b50620001123360006003604051806020016040528060008152506200021760201b60201c565b62000159600560009054906101000a900473ffffffffffffffffffffffffffffffffffffffff1660006005604051806020016040528060008152506200021760201b60201c565b6040518060400160405280600581526020017f4b6576696e00000000000000000000000000000000000000000000000000000081525060039080519060200190620001a6929190620006b3565b506040518060400160405280600381526020017f4b4556000000000000000000000000000000000000000000000000000000000081525060049080519060200190620001f4929190620006b3565b5062000ec1565b806002908051906020019062000213929190620006b3565b5050565b600073ffffffffffffffffffffffffffffffffffffffff168473ffffffffffffffffffffffffffffffffffffffff160362000289576040517f08c379a000000000000000000000000000000000000000000000000000000000815260040162000280906200087b565b60405180910390fd5b60006200029b620003fe60201b60201c565b90506000620002b0856200040660201b60201c565b90506000620002c5856200040660201b60201c565b9050620002de836000898585896200048760201b60201c565b8460008088815260200190815260200160002060008973ffffffffffffffffffffffffffffffffffffffff1673ffffffffffffffffffffffffffffffffffffffff16815260200190815260200160002060008282546200033f9190620008d6565b925050819055508673ffffffffffffffffffffffffffffffffffffffff16600073ffffffffffffffffffffffffffffffffffffffff168473ffffffffffffffffffffffffffffffffffffffff167fc3d58168c5ae7397731d063d5bbf3d657854427343f4c083240f7aacaa2d0f628989604051620003bf92919062000944565b60405180910390a4620003de836000898585896200048f60201b60201c565b620003f5836000898989896200049760201b60201c565b50505050505050565b600033905090565b60606000600167ffffffffffffffff81111562000428576200042762000971565b5b604051908082528060200260200182016040528015620004575781602001602082028036833780820191505090505b5090508281600081518110620004725762000471620009a0565b5b60200260200101818152505080915050919050565b505050505050565b505050505050565b620004c38473ffffffffffffffffffffffffffffffffffffffff166200069060201b62000a4e1760201c565b1562000688578373ffffffffffffffffffffffffffffffffffffffff1663f23a6e6187878686866040518663ffffffff1660e01b81526004016200050c95949392919062000ab8565b6020604051808303816000875af19250505080156200054b57506040513d601f19601f8201168201806040525081019062000548919062000b88565b60015b620005fc576200055a62000bc7565b806308c379a003620005bd57506200057162000c22565b806200057e5750620005bf565b806040517f08c379a0000000000000000000000000000000000000000000000000000000008152600401620005b4919062000d09565b60405180910390fd5b505b6040517f08c379a0000000000000000000000000000000000000000000000000000000008152600401620005f39062000da3565b60405180910390fd5b63f23a6e6160e01b7bffffffffffffffffffffffffffffffffffffffffffffffffffffffff1916817bffffffffffffffffffffffffffffffffffffffffffffffffffffffff19161462000686576040517f08c379a00000000000000000000000000000000000000000000000000000000081526004016200067d9062000e3b565b60405180910390fd5b505b505050505050565b6000808273ffffffffffffffffffffffffffffffffffffffff163b119050919050565b828054620006c19062000e8c565b90600052602060002090601f016020900481019282620006e5576000855562000731565b82601f106200070057805160ff191683800117855562000731565b8280016001018555821562000731579182015b828111156200073057825182559160200191906001019062000713565b5b509050620007409190620007d5565b5090565b828054620007529062000e8c565b90600052602060002090601f016020900481019282620007765760008555620007c2565b82601f106200079157805160ff1916838001178555620007c2565b82800160010185558215620007c2579182015b82811115620007c1578251825591602001919060010190620007a4565b5b509050620007d19190620007d5565b5090565b5b80821115620007f0576000816000905550600101620007d6565b5090565b600082825260208201905092915050565b7f455243313135353a206d696e7420746f20746865207a65726f2061646472657360008201527f7300000000000000000000000000000000000000000000000000000000000000602082015250565b600062000863602183620007f4565b9150620008708262000805565b604082019050919050565b60006020820190508181036000830152620008968162000854565b9050919050565b6000819050919050565b7f4e487b7100000000000000000000000000000000000000000000000000000000600052601160045260246000fd5b6000620008e3826200089d565b9150620008f0836200089d565b9250827fffffffffffffffffffffffffffffffffffffffffffffffffffffffffffffffff03821115620009285762000927620008a7565b5b828201905092915050565b6200093e816200089d565b82525050565b60006040820190506200095b600083018562000933565b6200096a602083018462000933565b9392505050565b7f4e487b7100000000000000000000000000000000000000000000000000000000600052604160045260246000fd5b7f4e487b7100000000000000000000000000000000000000000000000000000000600052603260045260246000fd5b600073ffffffffffffffffffffffffffffffffffffffff82169050919050565b6000620009fc82620009cf565b9050919050565b62000a0e81620009ef565b82525050565b600081519050919050565b600082825260208201905092915050565b60005b8381101562000a5057808201518184015260208101905062000a33565b8381111562000a60576000848401525b50505050565b6000601f19601f8301169050919050565b600062000a848262000a14565b62000a90818562000a1f565b935062000aa281856020860162000a30565b62000aad8162000a66565b840191505092915050565b600060a08201905062000acf600083018862000a03565b62000ade602083018762000a03565b62000aed604083018662000933565b62000afc606083018562000933565b818103608083015262000b10818462000a77565b90509695505050505050565b6000604051905090565b600080fd5b60007fffffffff0000000000000000000000000000000000000000000000000000000082169050919050565b62000b628162000b2b565b811462000b6e57600080fd5b50565b60008151905062000b828162000b57565b92915050565b60006020828403121562000ba15762000ba062000b26565b5b600062000bb18482850162000b71565b91505092915050565b60008160e01c9050919050565b600060033d111562000be95760046000803e62000be660005162000bba565b90505b90565b62000bf78262000a66565b810181811067ffffffffffffffff8211171562000c195762000c1862000971565b5b80604052505050565b600060443d1062000cba5762000c3762000b1c565b60043d036004823e80513d602482011167ffffffffffffffff8211171562000c6157505062000cba565b808201805167ffffffffffffffff81111562000c81575050505062000cba565b80602083010160043d03850181111562000ca057505050505062000cba565b62000cb18260200185018662000bec565b82955050505050505b90565b600081519050919050565b600062000cd58262000cbd565b62000ce18185620007f4565b935062000cf381856020860162000a30565b62000cfe8162000a66565b840191505092915050565b6000602082019050818103600083015262000d25818462000cc8565b905092915050565b7f455243313135353a207472616e7366657220746f206e6f6e204552433131353560008201527f526563656976657220696d706c656d656e746572000000000000000000000000602082015250565b600062000d8b603483620007f4565b915062000d988262000d2d565b604082019050919050565b6000602082019050818103600083015262000dbe8162000d7c565b9050919050565b7f455243313135353a204552433131353552656365697665722072656a6563746560008201527f6420746f6b656e73000000000000000000000000000000000000000000000000602082015250565b600062000e23602883620007f4565b915062000e308262000dc5565b604082019050919050565b6000602082019050818103600083015262000e568162000e14565b9050919050565b7f4e487b7100000000000000000000000000000000000000000000000000000000600052602260045260246000fd5b6000600282049050600182168062000ea557607f821691505b60208210810362000ebb5762000eba62000e5d565b5b50919050565b61292c8062000ed16000396000f3fe608060405234801561001057600080fd5b50600436106100ce5760003560e01c80634e1273f41161008c57806395d89b411161006657806395d89b4114610227578063a22cb46514610245578063e985e9c514610261578063f242432a14610291576100ce565b80634e1273f4146101bb5780634e76b028146101eb57806382f8152c14610209576100ce565b8062fdd58e146100d357806301ffc9a71461010357806306fdde03146101335780630e89341c146101515780632eb2c2d6146101815780633c130d901461019d575b600080fd5b6100ed60048036038101906100e891906116eb565b6102ad565b6040516100fa919061173a565b60405180910390f35b61011d600480360381019061011891906117ad565b610375565b60405161012a91906117f5565b60405180910390f35b61013b610457565b60405161014891906118a9565b60405180910390f35b61016b600480360381019061016691906118cb565b6104e5565b60405161017891906118a9565b60405180910390f35b61019b60048036038101906101969190611af5565b610579565b005b6101a561061a565b6040516101b291906118a9565b60405180910390f35b6101d560048036038101906101d09190611c87565b6106a8565b6040516101e29190611dbd565b60405180910390f35b6101f36107c1565b6040516102009190611e34565b60405180910390f35b61021161084f565b60405161021e9190611e65565b60405180910390f35b61022f610875565b60405161023c91906118a9565b60405180910390f35b61025f600480360381019061025a9190611eac565b610903565b005b61027b60048036038101906102769190611eec565b610919565b60405161028891906117f5565b60405180910390f35b6102ab60048036038101906102a69190611f2c565b6109ad565b005b60008073ffffffffffffffffffffffffffffffffffffffff168373ffffffffffffffffffffffffffffffffffffffff160361031d576040517f08c379a000000000000000000000000000000000000000000000000000000000815260040161031490612035565b60405180910390fd5b60008083815260200190815260200160002060008473ffffffffffffffffffffffffffffffffffffffff1673ffffffffffffffffffffffffffffffffffffffff16815260200190815260200160002054905092915050565b60007fd9b67a26000000000000000000000000000000000000000000000000000000007bffffffffffffffffffffffffffffffffffffffffffffffffffffffff1916827bffffffffffffffffffffffffffffffffffffffffffffffffffffffff1916148061044057507f0e89341c000000000000000000000000000000000000000000000000000000007bffffffffffffffffffffffffffffffffffffffffffffffffffffffff1916827bffffffffffffffffffffffffffffffffffffffffffffffffffffffff1916145b80610450575061044f82610a71565b5b9050919050565b6003805461046490612084565b80601f016020809104026020016040519081016040528092919081815260200182805461049090612084565b80156104dd5780601f106104b2576101008083540402835291602001916104dd565b820191906000526020600020905b8154815290600101906020018083116104c057829003601f168201915b505050505081565b6060600280546104f490612084565b80601f016020809104026020016040519081016040528092919081815260200182805461052090612084565b801561056d5780601f106105425761010080835404028352916020019161056d565b820191906000526020600020905b81548152906001019060200180831161055057829003601f168201915b50505050509050919050565b610581610adb565b73ffffffffffffffffffffffffffffffffffffffff168573ffffffffffffffffffffffffffffffffffffffff1614806105c757506105c6856105c1610adb565b610919565b5b610606576040517f08c379a00000000000000000000000000000000000000000000000000000000081526004016105fd90612127565b60405180910390fd5b6106138585858585610ae3565b5050505050565b6006805461062790612084565b80601f016020809104026020016040519081016040528092919081815260200182805461065390612084565b80156106a05780601f10610675576101008083540402835291602001916106a0565b820191906000526020600020905b81548152906001019060200180831161068357829003601f168201915b505050505081565b606081518351146106ee576040517f08c379a00000000000000000000000000000000000000000000000000000000081526004016106e5906121b9565b60405180910390fd5b6000835167ffffffffffffffff81111561070b5761070a6118fd565b5b6040519080825280602002602001820160405280156107395781602001602082028036833780820191505090505b50905060005b84518110156107b65761078685828151811061075e5761075d6121d9565b5b6020026020010151858381518110610779576107786121d9565b5b60200260200101516102ad565b828281518110610799576107986121d9565b5b602002602001018181525050806107af90612237565b905061073f565b508091505092915050565b600780546107ce90612084565b80601f01602080910402602001604051908101604052809291908181526020018280546107fa90612084565b80156108475780601f1061081c57610100808354040283529160200191610847565b820191906000526020600020905b81548152906001019060200180831161082a57829003601f168201915b505050505081565b600560009054906101000a900473ffffffffffffffffffffffffffffffffffffffff1681565b6004805461088290612084565b80601f01602080910402602001604051908101604052809291908181526020018280546108ae90612084565b80156108fb5780601f106108d0576101008083540402835291602001916108fb565b820191906000526020600020905b8154815290600101906020018083116108de57829003601f168201915b505050505081565b61091561090e610adb565b8383610e04565b5050565b6000600160008473ffffffffffffffffffffffffffffffffffffffff1673ffffffffffffffffffffffffffffffffffffffff16815260200190815260200160002060008373ffffffffffffffffffffffffffffffffffffffff1673ffffffffffffffffffffffffffffffffffffffff16815260200190815260200160002060009054906101000a900460ff16905092915050565b6109b5610adb565b73ffffffffffffffffffffffffffffffffffffffff168573ffffffffffffffffffffffffffffffffffffffff1614806109fb57506109fa856109f5610adb565b610919565b5b610a3a576040517f08c379a0000000000000000000000000000000000000000000000000000000008152600401610a31906122f1565b60405180910390fd5b610a478585858585610f70565b5050505050565b6000808273ffffffffffffffffffffffffffffffffffffffff163b119050919050565b60007f01ffc9a7000000000000000000000000000000000000000000000000000000007bffffffffffffffffffffffffffffffffffffffffffffffffffffffff1916827bffffffffffffffffffffffffffffffffffffffffffffffffffffffff1916149050919050565b600033905090565b8151835114610b27576040517f08c379a0000000000000000000000000000000000000000000000000000000008152600401610b1e90612383565b60405180910390fd5b600073ffffffffffffffffffffffffffffffffffffffff168473ffffffffffffffffffffffffffffffffffffffff1603610b96576040517f08c379a0000000000000000000000000000000000000000000000000000000008152600401610b8d90612415565b60405180910390fd5b6000610ba0610adb565b9050610bb081878787878761120b565b60005b8451811015610d61576000858281518110610bd157610bd06121d9565b5b602002602001015190506000858381518110610bf057610bef6121d9565b5b60200260200101519050600080600084815260200190815260200160002060008b73ffffffffffffffffffffffffffffffffffffffff1673ffffffffffffffffffffffffffffffffffffffff16815260200190815260200160002054905081811015610c91576040517f08c379a0000000000000000000000000000000000000000000000000000000008152600401610c88906124a7565b60405180910390fd5b81810360008085815260200190815260200160002060008c73ffffffffffffffffffffffffffffffffffffffff1673ffffffffffffffffffffffffffffffffffffffff168152602001908152602001600020819055508160008085815260200190815260200160002060008b73ffffffffffffffffffffffffffffffffffffffff1673ffffffffffffffffffffffffffffffffffffffff1681526020019081526020016000206000828254610d4691906124c7565b9250508190555050505080610d5a90612237565b9050610bb3565b508473ffffffffffffffffffffffffffffffffffffffff168673ffffffffffffffffffffffffffffffffffffffff168273ffffffffffffffffffffffffffffffffffffffff167f4a39dc06d4c0dbc64b70af90fd698a233a518aa5d07e595d983b8c0526c8f7fb8787604051610dd892919061251d565b60405180910390a4610dee818787878787611213565b610dfc81878787878761121b565b505050505050565b8173ffffffffffffffffffffffffffffffffffffffff168373ffffffffffffffffffffffffffffffffffffffff1603610e72576040517f08c379a0000000000000000000000000000000000000000000000000000000008152600401610e69906125c6565b60405180910390fd5b80600160008573ffffffffffffffffffffffffffffffffffffffff1673ffffffffffffffffffffffffffffffffffffffff16815260200190815260200160002060008473ffffffffffffffffffffffffffffffffffffffff1673ffffffffffffffffffffffffffffffffffffffff16815260200190815260200160002060006101000a81548160ff0219169083151502179055508173ffffffffffffffffffffffffffffffffffffffff168373ffffffffffffffffffffffffffffffffffffffff167f17307eab39ab6107e8899845ad3d59bd9653f200f220920489ca2b5937696c3183604051610f6391906117f5565b60405180910390a3505050565b600073ffffffffffffffffffffffffffffffffffffffff168473ffffffffffffffffffffffffffffffffffffffff1603610fdf576040517f08c379a0000000000000000000000000000000000000000000000000000000008152600401610fd690612415565b60405180910390fd5b6000610fe9610adb565b90506000610ff6856113f2565b90506000611003856113f2565b905061101383898985858961120b565b600080600088815260200190815260200160002060008a73ffffffffffffffffffffffffffffffffffffffff1673ffffffffffffffffffffffffffffffffffffffff168152602001908152602001600020549050858110156110aa576040517f08c379a00000000000000000000000000000000000000000000000000000000081526004016110a1906124a7565b60405180910390fd5b85810360008089815260200190815260200160002060008b73ffffffffffffffffffffffffffffffffffffffff1673ffffffffffffffffffffffffffffffffffffffff168152602001908152602001600020819055508560008089815260200190815260200160002060008a73ffffffffffffffffffffffffffffffffffffffff1673ffffffffffffffffffffffffffffffffffffffff168152602001908152602001600020600082825461115f91906124c7565b925050819055508773ffffffffffffffffffffffffffffffffffffffff168973ffffffffffffffffffffffffffffffffffffffff168573ffffffffffffffffffffffffffffffffffffffff167fc3d58168c5ae7397731d063d5bbf3d657854427343f4c083240f7aacaa2d0f628a8a6040516111dc9291906125e6565b60405180910390a46111f2848a8a86868a611213565b611200848a8a8a8a8a61146c565b505050505050505050565b505050505050565b505050505050565b61123a8473ffffffffffffffffffffffffffffffffffffffff16610a4e565b156113ea578373ffffffffffffffffffffffffffffffffffffffff1663bc197c8187878686866040518663ffffffff1660e01b815260040161128095949392919061260f565b6020604051808303816000875af19250505080156112bc57506040513d601f19601f820116820180604052508101906112b9919061268c565b60015b611361576112c86126c6565b806308c379a00361132457506112dc6126e8565b806112e75750611326565b806040517f08c379a000000000000000000000000000000000000000000000000000000000815260040161131b91906118a9565b60405180910390fd5b505b6040517f08c379a0000000000000000000000000000000000000000000000000000000008152600401611358906127ea565b60405180910390fd5b63bc197c8160e01b7bffffffffffffffffffffffffffffffffffffffffffffffffffffffff1916817bffffffffffffffffffffffffffffffffffffffffffffffffffffffff1916146113e8576040517f08c379a00000000000000000000000000000000000000000000000000000000081526004016113df9061287c565b60405180910390fd5b505b505050505050565b60606000600167ffffffffffffffff811115611411576114106118fd565b5b60405190808252806020026020018201604052801561143f5781602001602082028036833780820191505090505b5090508281600081518110611457576114566121d9565b5b60200260200101818152505080915050919050565b61148b8473ffffffffffffffffffffffffffffffffffffffff16610a4e565b1561163b578373ffffffffffffffffffffffffffffffffffffffff1663f23a6e6187878686866040518663ffffffff1660e01b81526004016114d195949392919061289c565b6020604051808303816000875af192505050801561150d57506040513d601f19601f8201168201806040525081019061150a919061268c565b60015b6115b2576115196126c6565b806308c379a003611575575061152d6126e8565b806115385750611577565b806040517f08c379a000000000000000000000000000000000000000000000000000000000815260040161156c91906118a9565b60405180910390fd5b505b6040517f08c379a00000000000000000000000000000000000000000000000000000000081526004016115a9906127ea565b60405180910390fd5b63f23a6e6160e01b7bffffffffffffffffffffffffffffffffffffffffffffffffffffffff1916817bffffffffffffffffffffffffffffffffffffffffffffffffffffffff191614611639576040517f08c379a00000000000000000000000000000000000000000000000000000000081526004016116309061287c565b60405180910390fd5b505b505050505050565b6000604051905090565b600080fd5b600080fd5b600073ffffffffffffffffffffffffffffffffffffffff82169050919050565b600061168282611657565b9050919050565b61169281611677565b811461169d57600080fd5b50565b6000813590506116af81611689565b92915050565b6000819050919050565b6116c8816116b5565b81146116d357600080fd5b50565b6000813590506116e5816116bf565b92915050565b600080604083850312156117025761170161164d565b5b6000611710858286016116a0565b9250506020611721858286016116d6565b9150509250929050565b611734816116b5565b82525050565b600060208201905061174f600083018461172b565b92915050565b60007fffffffff0000000000000000000000000000000000000000000000000000000082169050919050565b61178a81611755565b811461179557600080fd5b50565b6000813590506117a781611781565b92915050565b6000602082840312156117c3576117c261164d565b5b60006117d184828501611798565b91505092915050565b60008115159050919050565b6117ef816117da565b82525050565b600060208201905061180a60008301846117e6565b92915050565b600081519050919050565b600082825260208201905092915050565b60005b8381101561184a57808201518184015260208101905061182f565b83811115611859576000848401525b50505050565b6000601f19601f8301169050919050565b600061187b82611810565b611885818561181b565b935061189581856020860161182c565b61189e8161185f565b840191505092915050565b600060208201905081810360008301526118c38184611870565b905092915050565b6000602082840312156118e1576118e061164d565b5b60006118ef848285016116d6565b91505092915050565b600080fd5b7f4e487b7100000000000000000000000000000000000000000000000000000000600052604160045260246000fd5b6119358261185f565b810181811067ffffffffffffffff82111715611954576119536118fd565b5b80604052505050565b6000611967611643565b9050611973828261192c565b919050565b600067ffffffffffffffff821115611993576119926118fd565b5b602082029050602081019050919050565b600080fd5b60006119bc6119b784611978565b61195d565b905080838252602082019050602084028301858111156119df576119de6119a4565b5b835b81811015611a0857806119f488826116d6565b8452602084019350506020810190506119e1565b5050509392505050565b600082601f830112611a2757611a266118f8565b5b8135611a378482602086016119a9565b91505092915050565b600080fd5b600067ffffffffffffffff821115611a6057611a5f6118fd565b5b611a698261185f565b9050602081019050919050565b82818337600083830152505050565b6000611a98611a9384611a45565b61195d565b905082815260208101848484011115611ab457611ab3611a40565b5b611abf848285611a76565b509392505050565b600082601f830112611adc57611adb6118f8565b5b8135611aec848260208601611a85565b91505092915050565b600080600080600060a08688031215611b1157611b1061164d565b5b6000611b1f888289016116a0565b9550506020611b30888289016116a0565b945050604086013567ffffffffffffffff811115611b5157611b50611652565b5b611b5d88828901611a12565b935050606086013567ffffffffffffffff811115611b7e57611b7d611652565b5b611b8a88828901611a12565b925050608086013567ffffffffffffffff811115611bab57611baa611652565b5b611bb788828901611ac7565b9150509295509295909350565b600067ffffffffffffffff821115611bdf57611bde6118fd565b5b602082029050602081019050919050565b6000611c03611bfe84611bc4565b61195d565b90508083825260208201905060208402830185811115611c2657611c256119a4565b5b835b81811015611c4f5780611c3b88826116a0565b845260208401935050602081019050611c28565b5050509392505050565b600082601f830112611c6e57611c6d6118f8565b5b8135611c7e848260208601611bf0565b91505092915050565b60008060408385031215611c9e57611c9d61164d565b5b600083013567ffffffffffffffff811115611cbc57611cbb611652565b5b611cc885828601611c59565b925050602083013567ffffffffffffffff811115611ce957611ce8611652565b5b611cf585828601611a12565b9150509250929050565b600081519050919050565b600082825260208201905092915050565b6000819050602082019050919050565b611d34816116b5565b82525050565b6000611d468383611d2b565b60208301905092915050565b6000602082019050919050565b6000611d6a82611cff565b611d748185611d0a565b9350611d7f83611d1b565b8060005b83811015611db0578151611d978882611d3a565b9750611da283611d52565b925050600181019050611d83565b5085935050505092915050565b60006020820190508181036000830152611dd78184611d5f565b905092915050565b600081519050919050565b600082825260208201905092915050565b6000611e0682611ddf565b611e108185611dea565b9350611e2081856020860161182c565b611e298161185f565b840191505092915050565b60006020820190508181036000830152611e4e8184611dfb565b905092915050565b611e5f81611677565b82525050565b6000602082019050611e7a6000830184611e56565b92915050565b611e89816117da565b8114611e9457600080fd5b50565b600081359050611ea681611e80565b92915050565b60008060408385031215611ec357611ec261164d565b5b6000611ed1858286016116a0565b9250506020611ee285828601611e97565b9150509250929050565b60008060408385031215611f0357611f0261164d565b5b6000611f11858286016116a0565b9250506020611f22858286016116a0565b9150509250929050565b600080600080600060a08688031215611f4857611f4761164d565b5b6000611f56888289016116a0565b9550506020611f67888289016116a0565b9450506040611f78888289016116d6565b9350506060611f89888289016116d6565b925050608086013567ffffffffffffffff811115611faa57611fa9611652565b5b611fb688828901611ac7565b9150509295509295909350565b7f455243313135353a2062616c616e636520717565727920666f7220746865207a60008201527f65726f2061646472657373000000000000000000000000000000000000000000602082015250565b600061201f602b8361181b565b915061202a82611fc3565b604082019050919050565b6000602082019050818103600083015261204e81612012565b9050919050565b7f4e487b7100000000000000000000000000000000000000000000000000000000600052602260045260246000fd5b6000600282049050600182168061209c57607f821691505b6020821081036120af576120ae612055565b5b50919050565b7f455243313135353a207472616e736665722063616c6c6572206973206e6f742060008201527f6f776e6572206e6f7220617070726f7665640000000000000000000000000000602082015250565b600061211160328361181b565b915061211c826120b5565b604082019050919050565b6000602082019050818103600083015261214081612104565b9050919050565b7f455243313135353a206163636f756e747320616e6420696473206c656e67746860008201527f206d69736d617463680000000000000000000000000000000000000000000000602082015250565b60006121a360298361181b565b91506121ae82612147565b604082019050919050565b600060208201905081810360008301526121d281612196565b9050919050565b7f4e487b7100000000000000000000000000000000000000000000000000000000600052603260045260246000fd5b7f4e487b7100000000000000000000000000000000000000000000000000000000600052601160045260246000fd5b6000612242826116b5565b91507fffffffffffffffffffffffffffffffffffffffffffffffffffffffffffffffff820361227457612273612208565b5b600182019050919050565b7f455243313135353a2063616c6c6572206973206e6f74206f776e6572206e6f7260008201527f20617070726f7665640000000000000000000000000000000000000000000000602082015250565b60006122db60298361181b565b91506122e68261227f565b604082019050919050565b6000602082019050818103600083015261230a816122ce565b9050919050565b7f455243313135353a2069647320616e6420616d6f756e7473206c656e6774682060008201527f6d69736d61746368000000000000000000000000000000000000000000000000602082015250565b600061236d60288361181b565b915061237882612311565b604082019050919050565b6000602082019050818103600083015261239c81612360565b9050919050565b7f455243313135353a207472616e7366657220746f20746865207a65726f20616460008201527f6472657373000000000000000000000000000000000000000000000000000000602082015250565b60006123ff60258361181b565b915061240a826123a3565b604082019050919050565b6000602082019050818103600083015261242e816123f2565b9050919050565b7f455243313135353a20696e73756666696369656e742062616c616e636520666f60008201527f72207472616e7366657200000000000000000000000000000000000000000000602082015250565b6000612491602a8361181b565b915061249c82612435565b604082019050919050565b600060208201905081810360008301526124c081612484565b9050919050565b60006124d2826116b5565b91506124dd836116b5565b9250827fffffffffffffffffffffffffffffffffffffffffffffffffffffffffffffffff0382111561251257612511612208565b5b828201905092915050565b600060408201905081810360008301526125378185611d5f565b9050818103602083015261254b8184611d5f565b90509392505050565b7f455243313135353a2073657474696e6720617070726f76616c2073746174757360008201527f20666f722073656c660000000000000000000000000000000000000000000000602082015250565b60006125b060298361181b565b91506125bb82612554565b604082019050919050565b600060208201905081810360008301526125df816125a3565b9050919050565b60006040820190506125fb600083018561172b565b612608602083018461172b565b9392505050565b600060a0820190506126246000830188611e56565b6126316020830187611e56565b81810360408301526126438186611d5f565b905081810360608301526126578185611d5f565b9050818103608083015261266b8184611dfb565b90509695505050505050565b60008151905061268681611781565b92915050565b6000602082840312156126a2576126a161164d565b5b60006126b084828501612677565b91505092915050565b60008160e01c9050919050565b600060033d11156126e55760046000803e6126e26000516126b9565b90505b90565b600060443d10612775576126fa611643565b60043d036004823e80513d602482011167ffffffffffffffff82111715612722575050612775565b808201805167ffffffffffffffff8111156127405750505050612775565b80602083010160043d03850181111561275d575050505050612775565b61276c8260200185018661192c565b82955050505050505b90565b7f455243313135353a207472616e7366657220746f206e6f6e204552433131353560008201527f526563656976657220696d706c656d656e746572000000000000000000000000602082015250565b60006127d460348361181b565b91506127df82612778565b604082019050919050565b60006020820190508181036000830152612803816127c7565b9050919050565b7f455243313135353a204552433131353552656365697665722072656a6563746560008201527f6420746f6b656e73000000000000000000000000000000000000000000000000602082015250565b600061286660288361181b565b91506128718261280a565b604082019050919050565b6000602082019050818103600083015261289581612859565b9050919050565b600060a0820190506128b16000830188611e56565b6128be6020830187611e56565b6128cb604083018661172b565b6128d8606083018561172b565b81810360808301526128ea8184611dfb565b9050969550505050505056fea2646970667358221220b8e2fb68b21e3c08ff00dfb8d449e16acdd7e6a06ed42c2cfd0e3f9a4cb405b364736f6c634300080e0033697066733a2f2f516d66463159777753765635766544314d797347424161446473366e426754557173337236684355736234586d522f30",
  "immutableReferences": {},
  "source": "pragma solidity ^0.8.0;\r\n\r\nimport '@openzeppelin/contracts/token/ERC1155/ERC1155.sol';\r\n\r\ncontract NFT is ERC1155 {\r\n\r\n    string public name;\r\n    string public symbol;\r\n    address public account2 = 0x8E6a9e6F141BF9bd5A9a4318aD5458D1ad312939;\r\n    string public tokenURI = \"ipfs://QmfF1YwwSvV5veD1MysGBAaDds6nBgTUqs3r6hCUsb4XmR/0\";\r\n    bytes public tokenURIBytes = bytes(\"ipfs://QmfF1YwwSvV5veD1MysGBAaDds6nBgTUqs3r6hCUsb4XmR/0\");\r\n\r\n    constructor() ERC1155(\"\") {\r\n        // mint 3 tokens to the deployer of id 0\r\n        _mint(msg.sender, 0, 3, \"\");\r\n        // mint 5 tokens to account 2 on ganache of id 1\r\n        _mint(account2, 0,5,\"\");        \r\n        name = \"Kevin\";\r\n        symbol = \"KEV\";\r\n    }\r\n}",
  "sourcePath": "C:\\Users\\kdmcg\\Documents\\practice_solidity\\defi_tutorial\\src\\contracts\\NFT.sol",
  "compiler": {
    "name": "solc",
    "version": "0.8.14+commit.80d49f37.Emscripten.clang"
  },
  "schemaVersion": "3.4.7",
  "updatedAt": "2022-06-11T19:55:53.966Z",
  "networkType": "ethereum",
  "devdoc": {
    "kind": "dev",
    "methods": {
      "balanceOf(address,uint256)": {
        "details": "See {IERC1155-balanceOf}. Requirements: - `account` cannot be the zero address."
      },
      "balanceOfBatch(address[],uint256[])": {
        "details": "See {IERC1155-balanceOfBatch}. Requirements: - `accounts` and `ids` must have the same length."
      },
      "isApprovedForAll(address,address)": {
        "details": "See {IERC1155-isApprovedForAll}."
      },
      "safeBatchTransferFrom(address,address,uint256[],uint256[],bytes)": {
        "details": "See {IERC1155-safeBatchTransferFrom}."
      },
      "safeTransferFrom(address,address,uint256,uint256,bytes)": {
        "details": "See {IERC1155-safeTransferFrom}."
      },
      "setApprovalForAll(address,bool)": {
        "details": "See {IERC1155-setApprovalForAll}."
      },
      "supportsInterface(bytes4)": {
        "details": "See {IERC165-supportsInterface}."
      },
      "uri(uint256)": {
        "details": "See {IERC1155MetadataURI-uri}. This implementation returns the same URI for *all* token types. It relies on the token type ID substitution mechanism https://eips.ethereum.org/EIPS/eip-1155#metadata[defined in the EIP]. Clients calling this function must replace the `\\{id\\}` substring with the actual token type ID."
      }
    },
    "version": 1
  },
  "userdoc": {
    "kind": "user",
    "methods": {},
    "version": 1
  }
}