{
  "contractName": "NFT",
  "abi": [
    {
      "inputs": [],
      "stateMutability": "nonpayable",
      "type": "constructor"
    },
    {
      "anonymous": false,
      "inputs": [
        {
          "indexed": true,
          "internalType": "address",
          "name": "account",
          "type": "address"
        },
        {
          "indexed": true,
          "internalType": "address",
          "name": "operator",
          "type": "address"
        },
        {
          "indexed": false,
          "internalType": "bool",
          "name": "approved",
          "type": "bool"
        }
      ],
      "name": "ApprovalForAll",
      "type": "event"
    },
    {
      "anonymous": false,
      "inputs": [
        {
          "indexed": true,
          "internalType": "address",
          "name": "operator",
          "type": "address"
        },
        {
          "indexed": true,
          "internalType": "address",
          "name": "from",
          "type": "address"
        },
        {
          "indexed": true,
          "internalType": "address",
          "name": "to",
          "type": "address"
        },
        {
          "indexed": false,
          "internalType": "uint256[]",
          "name": "ids",
          "type": "uint256[]"
        },
        {
          "indexed": false,
          "internalType": "uint256[]",
          "name": "values",
          "type": "uint256[]"
        }
      ],
      "name": "TransferBatch",
      "type": "event"
    },
    {
      "anonymous": false,
      "inputs": [
        {
          "indexed": true,
          "internalType": "address",
          "name": "operator",
          "type": "address"
        },
        {
          "indexed": true,
          "internalType": "address",
          "name": "from",
          "type": "address"
        },
        {
          "indexed": true,
          "internalType": "address",
          "name": "to",
          "type": "address"
        },
        {
          "indexed": false,
          "internalType": "uint256",
          "name": "id",
          "type": "uint256"
        },
        {
          "indexed": false,
          "internalType": "uint256",
          "name": "value",
          "type": "uint256"
        }
      ],
      "name": "TransferSingle",
      "type": "event"
    },
    {
      "anonymous": false,
      "inputs": [
        {
          "indexed": false,
          "internalType": "string",
          "name": "value",
          "type": "string"
        },
        {
          "indexed": true,
          "internalType": "uint256",
          "name": "id",
          "type": "uint256"
        }
      ],
      "name": "URI",
      "type": "event"
    },
    {
      "inputs": [],
      "name": "account2",
      "outputs": [
        {
          "internalType": "address",
          "name": "",
          "type": "address"
        }
      ],
      "stateMutability": "view",
      "type": "function",
      "constant": true
    },
    {
      "inputs": [
        {
          "internalType": "address",
          "name": "account",
          "type": "address"
        },
        {
          "internalType": "uint256",
          "name": "id",
          "type": "uint256"
        }
      ],
      "name": "balanceOf",
      "outputs": [
        {
          "internalType": "uint256",
          "name": "",
          "type": "uint256"
        }
      ],
      "stateMutability": "view",
      "type": "function",
      "constant": true
    },
    {
      "inputs": [
        {
          "internalType": "address[]",
          "name": "accounts",
          "type": "address[]"
        },
        {
          "internalType": "uint256[]",
          "name": "ids",
          "type": "uint256[]"
        }
      ],
      "name": "balanceOfBatch",
      "outputs": [
        {
          "internalType": "uint256[]",
          "name": "",
          "type": "uint256[]"
        }
      ],
      "stateMutability": "view",
      "type": "function",
      "constant": true
    },
    {
      "inputs": [
        {
          "internalType": "uint256",
          "name": "id",
          "type": "uint256"
        }
      ],
      "name": "exists",
      "outputs": [
        {
          "internalType": "bool",
          "name": "",
          "type": "bool"
        }
      ],
      "stateMutability": "view",
      "type": "function",
      "constant": true
    },
    {
      "inputs": [
        {
          "internalType": "address",
          "name": "account",
          "type": "address"
        },
        {
          "internalType": "address",
          "name": "operator",
          "type": "address"
        }
      ],
      "name": "isApprovedForAll",
      "outputs": [
        {
          "internalType": "bool",
          "name": "",
          "type": "bool"
        }
      ],
      "stateMutability": "view",
      "type": "function",
      "constant": true
    },
    {
      "inputs": [],
      "name": "name",
      "outputs": [
        {
          "internalType": "string",
          "name": "",
          "type": "string"
        }
      ],
      "stateMutability": "view",
      "type": "function",
      "constant": true
    },
    {
      "inputs": [
        {
          "internalType": "address",
          "name": "from",
          "type": "address"
        },
        {
          "internalType": "address",
          "name": "to",
          "type": "address"
        },
        {
          "internalType": "uint256[]",
          "name": "ids",
          "type": "uint256[]"
        },
        {
          "internalType": "uint256[]",
          "name": "amounts",
          "type": "uint256[]"
        },
        {
          "internalType": "bytes",
          "name": "data",
          "type": "bytes"
        }
      ],
      "name": "safeBatchTransferFrom",
      "outputs": [],
      "stateMutability": "nonpayable",
      "type": "function"
    },
    {
      "inputs": [
        {
          "internalType": "address",
          "name": "from",
          "type": "address"
        },
        {
          "internalType": "address",
          "name": "to",
          "type": "address"
        },
        {
          "internalType": "uint256",
          "name": "id",
          "type": "uint256"
        },
        {
          "internalType": "uint256",
          "name": "amount",
          "type": "uint256"
        },
        {
          "internalType": "bytes",
          "name": "data",
          "type": "bytes"
        }
      ],
      "name": "safeTransferFrom",
      "outputs": [],
      "stateMutability": "nonpayable",
      "type": "function"
    },
    {
      "inputs": [
        {
          "internalType": "address",
          "name": "operator",
          "type": "address"
        },
        {
          "internalType": "bool",
          "name": "approved",
          "type": "bool"
        }
      ],
      "name": "setApprovalForAll",
      "outputs": [],
      "stateMutability": "nonpayable",
      "type": "function"
    },
    {
      "inputs": [
        {
          "internalType": "bytes4",
          "name": "interfaceId",
          "type": "bytes4"
        }
      ],
      "name": "supportsInterface",
      "outputs": [
        {
          "internalType": "bool",
          "name": "",
          "type": "bool"
        }
      ],
      "stateMutability": "view",
      "type": "function",
      "constant": true
    },
    {
      "inputs": [],
      "name": "symbol",
      "outputs": [
        {
          "internalType": "string",
          "name": "",
          "type": "string"
        }
      ],
      "stateMutability": "view",
      "type": "function",
      "constant": true
    },
    {
      "inputs": [],
      "name": "tokenURI",
      "outputs": [
        {
          "internalType": "string",
          "name": "",
          "type": "string"
        }
      ],
      "stateMutability": "view",
      "type": "function",
      "constant": true
    },
    {
      "inputs": [],
      "name": "tokenURIBytes",
      "outputs": [
        {
          "internalType": "bytes",
          "name": "",
          "type": "bytes"
        }
      ],
      "stateMutability": "view",
      "type": "function",
      "constant": true
    },
    {
      "inputs": [
        {
          "internalType": "uint256",
          "name": "id",
          "type": "uint256"
        }
      ],
      "name": "totalSupply",
      "outputs": [
        {
          "internalType": "uint256",
          "name": "",
          "type": "uint256"
        }
      ],
      "stateMutability": "view",
      "type": "function",
      "constant": true
    },
    {
      "inputs": [
        {
          "internalType": "uint256",
          "name": "",
          "type": "uint256"
        }
      ],
      "name": "uri",
      "outputs": [
        {
          "internalType": "string",
          "name": "",
          "type": "string"
        }
      ],
      "stateMutability": "view",
      "type": "function",
      "constant": true
    }
  ],
  "bytecode": "0x6080604052738e6a9e6f141bf9bd5a9a4318ad5458d1ad312939600660006101000a81548173ffffffffffffffffffffffffffffffffffffffff021916908373ffffffffffffffffffffffffffffffffffffffff16021790555060405180606001604052806037815260200162003df360379139600790805190602001906200008a929190620008ab565b5060405180606001604052806037815260200162003df36037913960089080519060200190620000bc9291906200093c565b50348015620000ca57600080fd5b5060405180602001604052806000815250620000ec81620001fb60201b60201c565b50620001123360006003604051806020016040528060008152506200021760201b60201c565b62000159600660009054906101000a900473ffffffffffffffffffffffffffffffffffffffff166000600e604051806020016040528060008152506200021760201b60201c565b6040518060400160405280600581526020017f4b6576696e00000000000000000000000000000000000000000000000000000081525060049080519060200190620001a6929190620008ab565b506040518060400160405280600381526020017f4b4556000000000000000000000000000000000000000000000000000000000081525060059080519060200190620001f4929190620008ab565b506200119e565b806002908051906020019062000213929190620008ab565b5050565b600073ffffffffffffffffffffffffffffffffffffffff168473ffffffffffffffffffffffffffffffffffffffff160362000289576040517f08c379a0000000000000000000000000000000000000000000000000000000008152600401620002809062000a73565b60405180910390fd5b60006200029b620003fe60201b60201c565b90506000620002b0856200040660201b60201c565b90506000620002c5856200040660201b60201c565b9050620002de836000898585896200048760201b60201c565b8460008088815260200190815260200160002060008973ffffffffffffffffffffffffffffffffffffffff1673ffffffffffffffffffffffffffffffffffffffff16815260200190815260200160002060008282546200033f919062000ace565b925050819055508673ffffffffffffffffffffffffffffffffffffffff16600073ffffffffffffffffffffffffffffffffffffffff168473ffffffffffffffffffffffffffffffffffffffff167fc3d58168c5ae7397731d063d5bbf3d657854427343f4c083240f7aacaa2d0f628989604051620003bf92919062000b3c565b60405180910390a4620003de836000898585896200067f60201b60201c565b620003f5836000898989896200068760201b60201c565b50505050505050565b600033905090565b60606000600167ffffffffffffffff81111562000428576200042762000b69565b5b604051908082528060200260200182016040528015620004575781602001602082028036833780820191505090505b509050828160008151811062000472576200047162000b98565b5b60200260200101818152505080915050919050565b620004a28686868686866200088060201b62000b051760201c565b600073ffffffffffffffffffffffffffffffffffffffff168573ffffffffffffffffffffffffffffffffffffffff1603620005605760005b83518110156200055e57828181518110620004fa57620004f962000b98565b5b6020026020010151600360008684815181106200051c576200051b62000b98565b5b60200260200101518152602001908152602001600020600082825462000543919062000ace565b9250508190555080620005569062000bc7565b9050620004da565b505b600073ffffffffffffffffffffffffffffffffffffffff168473ffffffffffffffffffffffffffffffffffffffff1603620006775760005b835181101562000675576000848281518110620005ba57620005b962000b98565b5b602002602001015190506000848381518110620005dc57620005db62000b98565b5b602002602001015190506000600360008481526020019081526020016000205490508181101562000644576040517f08c379a00000000000000000000000000000000000000000000000000000000081526004016200063b9062000c8a565b60405180910390fd5b8181036003600085815260200190815260200160002081905550505050806200066d9062000bc7565b905062000598565b505b505050505050565b505050505050565b620006b38473ffffffffffffffffffffffffffffffffffffffff166200088860201b62000b0d1760201c565b1562000878578373ffffffffffffffffffffffffffffffffffffffff1663f23a6e6187878686866040518663ffffffff1660e01b8152600401620006fc95949392919062000d95565b6020604051808303816000875af19250505080156200073b57506040513d601f19601f8201168201806040525081019062000738919062000e65565b60015b620007ec576200074a62000ea4565b806308c379a003620007ad57506200076162000eff565b806200076e5750620007af565b806040517f08c379a0000000000000000000000000000000000000000000000000000000008152600401620007a4919062000fe6565b60405180910390fd5b505b6040517f08c379a0000000000000000000000000000000000000000000000000000000008152600401620007e39062001080565b60405180910390fd5b63f23a6e6160e01b7bffffffffffffffffffffffffffffffffffffffffffffffffffffffff1916817bffffffffffffffffffffffffffffffffffffffffffffffffffffffff19161462000876576040517f08c379a00000000000000000000000000000000000000000000000000000000081526004016200086d9062001118565b60405180910390fd5b505b505050505050565b505050505050565b6000808273ffffffffffffffffffffffffffffffffffffffff163b119050919050565b828054620008b99062001169565b90600052602060002090601f016020900481019282620008dd576000855562000929565b82601f10620008f857805160ff191683800117855562000929565b8280016001018555821562000929579182015b82811115620009285782518255916020019190600101906200090b565b5b509050620009389190620009cd565b5090565b8280546200094a9062001169565b90600052602060002090601f0160209004810192826200096e5760008555620009ba565b82601f106200098957805160ff1916838001178555620009ba565b82800160010185558215620009ba579182015b82811115620009b95782518255916020019190600101906200099c565b5b509050620009c99190620009cd565b5090565b5b80821115620009e8576000816000905550600101620009ce565b5090565b600082825260208201905092915050565b7f455243313135353a206d696e7420746f20746865207a65726f2061646472657360008201527f7300000000000000000000000000000000000000000000000000000000000000602082015250565b600062000a5b602183620009ec565b915062000a6882620009fd565b604082019050919050565b6000602082019050818103600083015262000a8e8162000a4c565b9050919050565b6000819050919050565b7f4e487b7100000000000000000000000000000000000000000000000000000000600052601160045260246000fd5b600062000adb8262000a95565b915062000ae88362000a95565b9250827fffffffffffffffffffffffffffffffffffffffffffffffffffffffffffffffff0382111562000b205762000b1f62000a9f565b5b828201905092915050565b62000b368162000a95565b82525050565b600060408201905062000b53600083018562000b2b565b62000b62602083018462000b2b565b9392505050565b7f4e487b7100000000000000000000000000000000000000000000000000000000600052604160045260246000fd5b7f4e487b7100000000000000000000000000000000000000000000000000000000600052603260045260246000fd5b600062000bd48262000a95565b91507fffffffffffffffffffffffffffffffffffffffffffffffffffffffffffffffff820362000c095762000c0862000a9f565b5b600182019050919050565b7f455243313135353a206275726e20616d6f756e74206578636565647320746f7460008201527f616c537570706c79000000000000000000000000000000000000000000000000602082015250565b600062000c72602883620009ec565b915062000c7f8262000c14565b604082019050919050565b6000602082019050818103600083015262000ca58162000c63565b9050919050565b600073ffffffffffffffffffffffffffffffffffffffff82169050919050565b600062000cd98262000cac565b9050919050565b62000ceb8162000ccc565b82525050565b600081519050919050565b600082825260208201905092915050565b60005b8381101562000d2d57808201518184015260208101905062000d10565b8381111562000d3d576000848401525b50505050565b6000601f19601f8301169050919050565b600062000d618262000cf1565b62000d6d818562000cfc565b935062000d7f81856020860162000d0d565b62000d8a8162000d43565b840191505092915050565b600060a08201905062000dac600083018862000ce0565b62000dbb602083018762000ce0565b62000dca604083018662000b2b565b62000dd9606083018562000b2b565b818103608083015262000ded818462000d54565b90509695505050505050565b6000604051905090565b600080fd5b60007fffffffff0000000000000000000000000000000000000000000000000000000082169050919050565b62000e3f8162000e08565b811462000e4b57600080fd5b50565b60008151905062000e5f8162000e34565b92915050565b60006020828403121562000e7e5762000e7d62000e03565b5b600062000e8e8482850162000e4e565b91505092915050565b60008160e01c9050919050565b600060033d111562000ec65760046000803e62000ec360005162000e97565b90505b90565b62000ed48262000d43565b810181811067ffffffffffffffff8211171562000ef65762000ef562000b69565b5b80604052505050565b600060443d1062000f975762000f1462000df9565b60043d036004823e80513d602482011167ffffffffffffffff8211171562000f3e57505062000f97565b808201805167ffffffffffffffff81111562000f5e575050505062000f97565b80602083010160043d03850181111562000f7d57505050505062000f97565b62000f8e8260200185018662000ec9565b82955050505050505b90565b600081519050919050565b600062000fb28262000f9a565b62000fbe8185620009ec565b935062000fd081856020860162000d0d565b62000fdb8162000d43565b840191505092915050565b6000602082019050818103600083015262001002818462000fa5565b905092915050565b7f455243313135353a207472616e7366657220746f206e6f6e204552433131353560008201527f526563656976657220696d706c656d656e746572000000000000000000000000602082015250565b600062001068603483620009ec565b915062001075826200100a565b604082019050919050565b600060208201905081810360008301526200109b8162001059565b9050919050565b7f455243313135353a204552433131353552656365697665722072656a6563746560008201527f6420746f6b656e73000000000000000000000000000000000000000000000000602082015250565b600062001100602883620009ec565b91506200110d82620010a2565b604082019050919050565b600060208201905081810360008301526200113381620010f1565b9050919050565b7f4e487b7100000000000000000000000000000000000000000000000000000000600052602260045260246000fd5b600060028204905060018216806200118257607f821691505b6020821081036200119857620011976200113a565b5b50919050565b612c4580620011ae6000396000f3fe608060405234801561001057600080fd5b50600436106100f45760003560e01c80634e76b02811610097578063a22cb46511610066578063a22cb4651461029b578063bd85b039146102b7578063e985e9c5146102e7578063f242432a14610317576100f4565b80634e76b028146102115780634f558e791461022f57806382f8152c1461025f57806395d89b411461027d576100f4565b80630e89341c116100d35780630e89341c146101775780632eb2c2d6146101a75780633c130d90146101c35780634e1273f4146101e1576100f4565b8062fdd58e146100f957806301ffc9a71461012957806306fdde0314610159575b600080fd5b610113600480360381019061010e9190611972565b610333565b60405161012091906119c1565b60405180910390f35b610143600480360381019061013e9190611a34565b6103fb565b6040516101509190611a7c565b60405180910390f35b6101616104dd565b60405161016e9190611b30565b60405180910390f35b610191600480360381019061018c9190611b52565b61056b565b60405161019e9190611b30565b60405180910390f35b6101c160048036038101906101bc9190611d7c565b6105ff565b005b6101cb6106a0565b6040516101d89190611b30565b60405180910390f35b6101fb60048036038101906101f69190611f0e565b61072e565b6040516102089190612044565b60405180910390f35b610219610847565b60405161022691906120bb565b60405180910390f35b61024960048036038101906102449190611b52565b6108d5565b6040516102569190611a7c565b60405180910390f35b6102676108e9565b60405161027491906120ec565b60405180910390f35b61028561090f565b6040516102929190611b30565b60405180910390f35b6102b560048036038101906102b09190612133565b61099d565b005b6102d160048036038101906102cc9190611b52565b6109b3565b6040516102de91906119c1565b60405180910390f35b61030160048036038101906102fc9190612173565b6109d0565b60405161030e9190611a7c565b60405180910390f35b610331600480360381019061032c91906121b3565b610a64565b005b60008073ffffffffffffffffffffffffffffffffffffffff168373ffffffffffffffffffffffffffffffffffffffff16036103a3576040517f08c379a000000000000000000000000000000000000000000000000000000000815260040161039a906122bc565b60405180910390fd5b60008083815260200190815260200160002060008473ffffffffffffffffffffffffffffffffffffffff1673ffffffffffffffffffffffffffffffffffffffff16815260200190815260200160002054905092915050565b60007fd9b67a26000000000000000000000000000000000000000000000000000000007bffffffffffffffffffffffffffffffffffffffffffffffffffffffff1916827bffffffffffffffffffffffffffffffffffffffffffffffffffffffff191614806104c657507f0e89341c000000000000000000000000000000000000000000000000000000007bffffffffffffffffffffffffffffffffffffffffffffffffffffffff1916827bffffffffffffffffffffffffffffffffffffffffffffffffffffffff1916145b806104d657506104d582610b30565b5b9050919050565b600480546104ea9061230b565b80601f01602080910402602001604051908101604052809291908181526020018280546105169061230b565b80156105635780601f1061053857610100808354040283529160200191610563565b820191906000526020600020905b81548152906001019060200180831161054657829003601f168201915b505050505081565b60606002805461057a9061230b565b80601f01602080910402602001604051908101604052809291908181526020018280546105a69061230b565b80156105f35780601f106105c8576101008083540402835291602001916105f3565b820191906000526020600020905b8154815290600101906020018083116105d657829003601f168201915b50505050509050919050565b610607610b9a565b73ffffffffffffffffffffffffffffffffffffffff168573ffffffffffffffffffffffffffffffffffffffff16148061064d575061064c85610647610b9a565b6109d0565b5b61068c576040517f08c379a0000000000000000000000000000000000000000000000000000000008152600401610683906123ae565b60405180910390fd5b6106998585858585610ba2565b5050505050565b600780546106ad9061230b565b80601f01602080910402602001604051908101604052809291908181526020018280546106d99061230b565b80156107265780601f106106fb57610100808354040283529160200191610726565b820191906000526020600020905b81548152906001019060200180831161070957829003601f168201915b505050505081565b60608151835114610774576040517f08c379a000000000000000000000000000000000000000000000000000000000815260040161076b90612440565b60405180910390fd5b6000835167ffffffffffffffff81111561079157610790611b84565b5b6040519080825280602002602001820160405280156107bf5781602001602082028036833780820191505090505b50905060005b845181101561083c5761080c8582815181106107e4576107e3612460565b5b60200260200101518583815181106107ff576107fe612460565b5b6020026020010151610333565b82828151811061081f5761081e612460565b5b60200260200101818152505080610835906124be565b90506107c5565b508091505092915050565b600880546108549061230b565b80601f01602080910402602001604051908101604052809291908181526020018280546108809061230b565b80156108cd5780601f106108a2576101008083540402835291602001916108cd565b820191906000526020600020905b8154815290600101906020018083116108b057829003601f168201915b505050505081565b6000806108e1836109b3565b119050919050565b600660009054906101000a900473ffffffffffffffffffffffffffffffffffffffff1681565b6005805461091c9061230b565b80601f01602080910402602001604051908101604052809291908181526020018280546109489061230b565b80156109955780601f1061096a57610100808354040283529160200191610995565b820191906000526020600020905b81548152906001019060200180831161097857829003601f168201915b505050505081565b6109af6109a8610b9a565b8383610ec3565b5050565b600060036000838152602001908152602001600020549050919050565b6000600160008473ffffffffffffffffffffffffffffffffffffffff1673ffffffffffffffffffffffffffffffffffffffff16815260200190815260200160002060008373ffffffffffffffffffffffffffffffffffffffff1673ffffffffffffffffffffffffffffffffffffffff16815260200190815260200160002060009054906101000a900460ff16905092915050565b610a6c610b9a565b73ffffffffffffffffffffffffffffffffffffffff168573ffffffffffffffffffffffffffffffffffffffff161480610ab25750610ab185610aac610b9a565b6109d0565b5b610af1576040517f08c379a0000000000000000000000000000000000000000000000000000000008152600401610ae890612578565b60405180910390fd5b610afe858585858561102f565b5050505050565b505050505050565b6000808273ffffffffffffffffffffffffffffffffffffffff163b119050919050565b60007f01ffc9a7000000000000000000000000000000000000000000000000000000007bffffffffffffffffffffffffffffffffffffffffffffffffffffffff1916827bffffffffffffffffffffffffffffffffffffffffffffffffffffffff1916149050919050565b600033905090565b8151835114610be6576040517f08c379a0000000000000000000000000000000000000000000000000000000008152600401610bdd9061260a565b60405180910390fd5b600073ffffffffffffffffffffffffffffffffffffffff168473ffffffffffffffffffffffffffffffffffffffff1603610c55576040517f08c379a0000000000000000000000000000000000000000000000000000000008152600401610c4c9061269c565b60405180910390fd5b6000610c5f610b9a565b9050610c6f8187878787876112ca565b60005b8451811015610e20576000858281518110610c9057610c8f612460565b5b602002602001015190506000858381518110610caf57610cae612460565b5b60200260200101519050600080600084815260200190815260200160002060008b73ffffffffffffffffffffffffffffffffffffffff1673ffffffffffffffffffffffffffffffffffffffff16815260200190815260200160002054905081811015610d50576040517f08c379a0000000000000000000000000000000000000000000000000000000008152600401610d479061272e565b60405180910390fd5b81810360008085815260200190815260200160002060008c73ffffffffffffffffffffffffffffffffffffffff1673ffffffffffffffffffffffffffffffffffffffff168152602001908152602001600020819055508160008085815260200190815260200160002060008b73ffffffffffffffffffffffffffffffffffffffff1673ffffffffffffffffffffffffffffffffffffffff1681526020019081526020016000206000828254610e05919061274e565b9250508190555050505080610e19906124be565b9050610c72565b508473ffffffffffffffffffffffffffffffffffffffff168673ffffffffffffffffffffffffffffffffffffffff168273ffffffffffffffffffffffffffffffffffffffff167f4a39dc06d4c0dbc64b70af90fd698a233a518aa5d07e595d983b8c0526c8f7fb8787604051610e979291906127a4565b60405180910390a4610ead81878787878761149a565b610ebb8187878787876114a2565b505050505050565b8173ffffffffffffffffffffffffffffffffffffffff168373ffffffffffffffffffffffffffffffffffffffff1603610f31576040517f08c379a0000000000000000000000000000000000000000000000000000000008152600401610f289061284d565b60405180910390fd5b80600160008573ffffffffffffffffffffffffffffffffffffffff1673ffffffffffffffffffffffffffffffffffffffff16815260200190815260200160002060008473ffffffffffffffffffffffffffffffffffffffff1673ffffffffffffffffffffffffffffffffffffffff16815260200190815260200160002060006101000a81548160ff0219169083151502179055508173ffffffffffffffffffffffffffffffffffffffff168373ffffffffffffffffffffffffffffffffffffffff167f17307eab39ab6107e8899845ad3d59bd9653f200f220920489ca2b5937696c31836040516110229190611a7c565b60405180910390a3505050565b600073ffffffffffffffffffffffffffffffffffffffff168473ffffffffffffffffffffffffffffffffffffffff160361109e576040517f08c379a00000000000000000000000000000000000000000000000000000000081526004016110959061269c565b60405180910390fd5b60006110a8610b9a565b905060006110b585611679565b905060006110c285611679565b90506110d28389898585896112ca565b600080600088815260200190815260200160002060008a73ffffffffffffffffffffffffffffffffffffffff1673ffffffffffffffffffffffffffffffffffffffff16815260200190815260200160002054905085811015611169576040517f08c379a00000000000000000000000000000000000000000000000000000000081526004016111609061272e565b60405180910390fd5b85810360008089815260200190815260200160002060008b73ffffffffffffffffffffffffffffffffffffffff1673ffffffffffffffffffffffffffffffffffffffff168152602001908152602001600020819055508560008089815260200190815260200160002060008a73ffffffffffffffffffffffffffffffffffffffff1673ffffffffffffffffffffffffffffffffffffffff168152602001908152602001600020600082825461121e919061274e565b925050819055508773ffffffffffffffffffffffffffffffffffffffff168973ffffffffffffffffffffffffffffffffffffffff168573ffffffffffffffffffffffffffffffffffffffff167fc3d58168c5ae7397731d063d5bbf3d657854427343f4c083240f7aacaa2d0f628a8a60405161129b92919061286d565b60405180910390a46112b1848a8a86868a61149a565b6112bf848a8a8a8a8a6116f3565b505050505050505050565b6112d8868686868686610b05565b600073ffffffffffffffffffffffffffffffffffffffff168573ffffffffffffffffffffffffffffffffffffffff16036113895760005b83518110156113875782818151811061132b5761132a612460565b5b60200260200101516003600086848151811061134a57611349612460565b5b60200260200101518152602001908152602001600020600082825461136f919061274e565b9250508190555080611380906124be565b905061130f565b505b600073ffffffffffffffffffffffffffffffffffffffff168473ffffffffffffffffffffffffffffffffffffffff16036114925760005b83518110156114905760008482815181106113de576113dd612460565b5b6020026020010151905060008483815181106113fd576113fc612460565b5b6020026020010151905060006003600084815260200190815260200160002054905081811015611462576040517f08c379a000000000000000000000000000000000000000000000000000000000815260040161145990612908565b60405180910390fd5b818103600360008581526020019081526020016000208190555050505080611489906124be565b90506113c0565b505b505050505050565b505050505050565b6114c18473ffffffffffffffffffffffffffffffffffffffff16610b0d565b15611671578373ffffffffffffffffffffffffffffffffffffffff1663bc197c8187878686866040518663ffffffff1660e01b8152600401611507959493929190612928565b6020604051808303816000875af192505050801561154357506040513d601f19601f8201168201806040525081019061154091906129a5565b60015b6115e85761154f6129df565b806308c379a0036115ab5750611563612a01565b8061156e57506115ad565b806040517f08c379a00000000000000000000000000000000000000000000000000000000081526004016115a29190611b30565b60405180910390fd5b505b6040517f08c379a00000000000000000000000000000000000000000000000000000000081526004016115df90612b03565b60405180910390fd5b63bc197c8160e01b7bffffffffffffffffffffffffffffffffffffffffffffffffffffffff1916817bffffffffffffffffffffffffffffffffffffffffffffffffffffffff19161461166f576040517f08c379a000000000000000000000000000000000000000000000000000000000815260040161166690612b95565b60405180910390fd5b505b505050505050565b60606000600167ffffffffffffffff81111561169857611697611b84565b5b6040519080825280602002602001820160405280156116c65781602001602082028036833780820191505090505b50905082816000815181106116de576116dd612460565b5b60200260200101818152505080915050919050565b6117128473ffffffffffffffffffffffffffffffffffffffff16610b0d565b156118c2578373ffffffffffffffffffffffffffffffffffffffff1663f23a6e6187878686866040518663ffffffff1660e01b8152600401611758959493929190612bb5565b6020604051808303816000875af192505050801561179457506040513d601f19601f8201168201806040525081019061179191906129a5565b60015b611839576117a06129df565b806308c379a0036117fc57506117b4612a01565b806117bf57506117fe565b806040517f08c379a00000000000000000000000000000000000000000000000000000000081526004016117f39190611b30565b60405180910390fd5b505b6040517f08c379a000000000000000000000000000000000000000000000000000000000815260040161183090612b03565b60405180910390fd5b63f23a6e6160e01b7bffffffffffffffffffffffffffffffffffffffffffffffffffffffff1916817bffffffffffffffffffffffffffffffffffffffffffffffffffffffff1916146118c0576040517f08c379a00000000000000000000000000000000000000000000000000000000081526004016118b790612b95565b60405180910390fd5b505b505050505050565b6000604051905090565b600080fd5b600080fd5b600073ffffffffffffffffffffffffffffffffffffffff82169050919050565b6000611909826118de565b9050919050565b611919816118fe565b811461192457600080fd5b50565b60008135905061193681611910565b92915050565b6000819050919050565b61194f8161193c565b811461195a57600080fd5b50565b60008135905061196c81611946565b92915050565b60008060408385031215611989576119886118d4565b5b600061199785828601611927565b92505060206119a88582860161195d565b9150509250929050565b6119bb8161193c565b82525050565b60006020820190506119d660008301846119b2565b92915050565b60007fffffffff0000000000000000000000000000000000000000000000000000000082169050919050565b611a11816119dc565b8114611a1c57600080fd5b50565b600081359050611a2e81611a08565b92915050565b600060208284031215611a4a57611a496118d4565b5b6000611a5884828501611a1f565b91505092915050565b60008115159050919050565b611a7681611a61565b82525050565b6000602082019050611a916000830184611a6d565b92915050565b600081519050919050565b600082825260208201905092915050565b60005b83811015611ad1578082015181840152602081019050611ab6565b83811115611ae0576000848401525b50505050565b6000601f19601f8301169050919050565b6000611b0282611a97565b611b0c8185611aa2565b9350611b1c818560208601611ab3565b611b2581611ae6565b840191505092915050565b60006020820190508181036000830152611b4a8184611af7565b905092915050565b600060208284031215611b6857611b676118d4565b5b6000611b768482850161195d565b91505092915050565b600080fd5b7f4e487b7100000000000000000000000000000000000000000000000000000000600052604160045260246000fd5b611bbc82611ae6565b810181811067ffffffffffffffff82111715611bdb57611bda611b84565b5b80604052505050565b6000611bee6118ca565b9050611bfa8282611bb3565b919050565b600067ffffffffffffffff821115611c1a57611c19611b84565b5b602082029050602081019050919050565b600080fd5b6000611c43611c3e84611bff565b611be4565b90508083825260208201905060208402830185811115611c6657611c65611c2b565b5b835b81811015611c8f5780611c7b888261195d565b845260208401935050602081019050611c68565b5050509392505050565b600082601f830112611cae57611cad611b7f565b5b8135611cbe848260208601611c30565b91505092915050565b600080fd5b600067ffffffffffffffff821115611ce757611ce6611b84565b5b611cf082611ae6565b9050602081019050919050565b82818337600083830152505050565b6000611d1f611d1a84611ccc565b611be4565b905082815260208101848484011115611d3b57611d3a611cc7565b5b611d46848285611cfd565b509392505050565b600082601f830112611d6357611d62611b7f565b5b8135611d73848260208601611d0c565b91505092915050565b600080600080600060a08688031215611d9857611d976118d4565b5b6000611da688828901611927565b9550506020611db788828901611927565b945050604086013567ffffffffffffffff811115611dd857611dd76118d9565b5b611de488828901611c99565b935050606086013567ffffffffffffffff811115611e0557611e046118d9565b5b611e1188828901611c99565b925050608086013567ffffffffffffffff811115611e3257611e316118d9565b5b611e3e88828901611d4e565b9150509295509295909350565b600067ffffffffffffffff821115611e6657611e65611b84565b5b602082029050602081019050919050565b6000611e8a611e8584611e4b565b611be4565b90508083825260208201905060208402830185811115611ead57611eac611c2b565b5b835b81811015611ed65780611ec28882611927565b845260208401935050602081019050611eaf565b5050509392505050565b600082601f830112611ef557611ef4611b7f565b5b8135611f05848260208601611e77565b91505092915050565b60008060408385031215611f2557611f246118d4565b5b600083013567ffffffffffffffff811115611f4357611f426118d9565b5b611f4f85828601611ee0565b925050602083013567ffffffffffffffff811115611f7057611f6f6118d9565b5b611f7c85828601611c99565b9150509250929050565b600081519050919050565b600082825260208201905092915050565b6000819050602082019050919050565b611fbb8161193c565b82525050565b6000611fcd8383611fb2565b60208301905092915050565b6000602082019050919050565b6000611ff182611f86565b611ffb8185611f91565b935061200683611fa2565b8060005b8381101561203757815161201e8882611fc1565b975061202983611fd9565b92505060018101905061200a565b5085935050505092915050565b6000602082019050818103600083015261205e8184611fe6565b905092915050565b600081519050919050565b600082825260208201905092915050565b600061208d82612066565b6120978185612071565b93506120a7818560208601611ab3565b6120b081611ae6565b840191505092915050565b600060208201905081810360008301526120d58184612082565b905092915050565b6120e6816118fe565b82525050565b600060208201905061210160008301846120dd565b92915050565b61211081611a61565b811461211b57600080fd5b50565b60008135905061212d81612107565b92915050565b6000806040838503121561214a576121496118d4565b5b600061215885828601611927565b92505060206121698582860161211e565b9150509250929050565b6000806040838503121561218a576121896118d4565b5b600061219885828601611927565b92505060206121a985828601611927565b9150509250929050565b600080600080600060a086880312156121cf576121ce6118d4565b5b60006121dd88828901611927565b95505060206121ee88828901611927565b94505060406121ff8882890161195d565b93505060606122108882890161195d565b925050608086013567ffffffffffffffff811115612231576122306118d9565b5b61223d88828901611d4e565b9150509295509295909350565b7f455243313135353a2062616c616e636520717565727920666f7220746865207a60008201527f65726f2061646472657373000000000000000000000000000000000000000000602082015250565b60006122a6602b83611aa2565b91506122b18261224a565b604082019050919050565b600060208201905081810360008301526122d581612299565b9050919050565b7f4e487b7100000000000000000000000000000000000000000000000000000000600052602260045260246000fd5b6000600282049050600182168061232357607f821691505b602082108103612336576123356122dc565b5b50919050565b7f455243313135353a207472616e736665722063616c6c6572206973206e6f742060008201527f6f776e6572206e6f7220617070726f7665640000000000000000000000000000602082015250565b6000612398603283611aa2565b91506123a38261233c565b604082019050919050565b600060208201905081810360008301526123c78161238b565b9050919050565b7f455243313135353a206163636f756e747320616e6420696473206c656e67746860008201527f206d69736d617463680000000000000000000000000000000000000000000000602082015250565b600061242a602983611aa2565b9150612435826123ce565b604082019050919050565b600060208201905081810360008301526124598161241d565b9050919050565b7f4e487b7100000000000000000000000000000000000000000000000000000000600052603260045260246000fd5b7f4e487b7100000000000000000000000000000000000000000000000000000000600052601160045260246000fd5b60006124c98261193c565b91507fffffffffffffffffffffffffffffffffffffffffffffffffffffffffffffffff82036124fb576124fa61248f565b5b600182019050919050565b7f455243313135353a2063616c6c6572206973206e6f74206f776e6572206e6f7260008201527f20617070726f7665640000000000000000000000000000000000000000000000602082015250565b6000612562602983611aa2565b915061256d82612506565b604082019050919050565b6000602082019050818103600083015261259181612555565b9050919050565b7f455243313135353a2069647320616e6420616d6f756e7473206c656e6774682060008201527f6d69736d61746368000000000000000000000000000000000000000000000000602082015250565b60006125f4602883611aa2565b91506125ff82612598565b604082019050919050565b60006020820190508181036000830152612623816125e7565b9050919050565b7f455243313135353a207472616e7366657220746f20746865207a65726f20616460008201527f6472657373000000000000000000000000000000000000000000000000000000602082015250565b6000612686602583611aa2565b91506126918261262a565b604082019050919050565b600060208201905081810360008301526126b581612679565b9050919050565b7f455243313135353a20696e73756666696369656e742062616c616e636520666f60008201527f72207472616e7366657200000000000000000000000000000000000000000000602082015250565b6000612718602a83611aa2565b9150612723826126bc565b604082019050919050565b600060208201905081810360008301526127478161270b565b9050919050565b60006127598261193c565b91506127648361193c565b9250827fffffffffffffffffffffffffffffffffffffffffffffffffffffffffffffffff038211156127995761279861248f565b5b828201905092915050565b600060408201905081810360008301526127be8185611fe6565b905081810360208301526127d28184611fe6565b90509392505050565b7f455243313135353a2073657474696e6720617070726f76616c2073746174757360008201527f20666f722073656c660000000000000000000000000000000000000000000000602082015250565b6000612837602983611aa2565b9150612842826127db565b604082019050919050565b600060208201905081810360008301526128668161282a565b9050919050565b600060408201905061288260008301856119b2565b61288f60208301846119b2565b9392505050565b7f455243313135353a206275726e20616d6f756e74206578636565647320746f7460008201527f616c537570706c79000000000000000000000000000000000000000000000000602082015250565b60006128f2602883611aa2565b91506128fd82612896565b604082019050919050565b60006020820190508181036000830152612921816128e5565b9050919050565b600060a08201905061293d60008301886120dd565b61294a60208301876120dd565b818103604083015261295c8186611fe6565b905081810360608301526129708185611fe6565b905081810360808301526129848184612082565b90509695505050505050565b60008151905061299f81611a08565b92915050565b6000602082840312156129bb576129ba6118d4565b5b60006129c984828501612990565b91505092915050565b60008160e01c9050919050565b600060033d11156129fe5760046000803e6129fb6000516129d2565b90505b90565b600060443d10612a8e57612a136118ca565b60043d036004823e80513d602482011167ffffffffffffffff82111715612a3b575050612a8e565b808201805167ffffffffffffffff811115612a595750505050612a8e565b80602083010160043d038501811115612a76575050505050612a8e565b612a8582602001850186611bb3565b82955050505050505b90565b7f455243313135353a207472616e7366657220746f206e6f6e204552433131353560008201527f526563656976657220696d706c656d656e746572000000000000000000000000602082015250565b6000612aed603483611aa2565b9150612af882612a91565b604082019050919050565b60006020820190508181036000830152612b1c81612ae0565b9050919050565b7f455243313135353a204552433131353552656365697665722072656a6563746560008201527f6420746f6b656e73000000000000000000000000000000000000000000000000602082015250565b6000612b7f602883611aa2565b9150612b8a82612b23565b604082019050919050565b60006020820190508181036000830152612bae81612b72565b9050919050565b600060a082019050612bca60008301886120dd565b612bd760208301876120dd565b612be460408301866119b2565b612bf160608301856119b2565b8181036080830152612c038184612082565b9050969550505050505056fea2646970667358221220eea63379216dc54ed1ce1adb6b1b32680caf0324a583d11a28ae50711007fbcc64736f6c634300080e0033697066733a2f2f516d66463159777753765635766544314d797347424161446473366e426754557173337236684355736234586d522f30",
  "immutableReferences": {},
  "source": "pragma solidity ^0.8.0;\r\n\r\nimport '@openzeppelin/contracts/token/ERC1155/extensions/ERC1155Supply.sol';\r\n\r\n\r\ncontract NFT is ERC1155Supply {\r\n\r\n    string public name;\r\n    string public symbol;\r\n    address public account2 = 0x8E6a9e6F141BF9bd5A9a4318aD5458D1ad312939;\r\n    string public tokenURI = \"ipfs://QmfF1YwwSvV5veD1MysGBAaDds6nBgTUqs3r6hCUsb4XmR/0\";\r\n    bytes public tokenURIBytes = bytes(\"ipfs://QmfF1YwwSvV5veD1MysGBAaDds6nBgTUqs3r6hCUsb4XmR/0\");\r\n\r\n    constructor() ERC1155(\"\") {\r\n        // mint 3 tokens to the deployer of id 0\r\n        _mint(msg.sender, 0, 3, \"\");\r\n        // mint 5 tokens to account 2 on ganache of id 1\r\n        _mint(account2, 0,14,\"\");        \r\n        name = \"Kevin\";\r\n        symbol = \"KEV\";\r\n    }\r\n}",
  "sourcePath": "C:\\Users\\kdmcg\\Documents\\practice_solidity\\defi_tutorial\\src\\contracts\\NFT.sol",
  "compiler": {
    "name": "solc",
    "version": "0.8.14+commit.80d49f37.Emscripten.clang"
  },
  "schemaVersion": "3.4.7",
  "updatedAt": "2022-06-11T23:46:27.259Z",
  "networkType": "ethereum",
  "devdoc": {
    "kind": "dev",
    "methods": {
      "balanceOf(address,uint256)": {
        "details": "See {IERC1155-balanceOf}. Requirements: - `account` cannot be the zero address."
      },
      "balanceOfBatch(address[],uint256[])": {
        "details": "See {IERC1155-balanceOfBatch}. Requirements: - `accounts` and `ids` must have the same length."
      },
      "exists(uint256)": {
        "details": "Indicates whether any token exist with a given id, or not."
      },
      "isApprovedForAll(address,address)": {
        "details": "See {IERC1155-isApprovedForAll}."
      },
      "safeBatchTransferFrom(address,address,uint256[],uint256[],bytes)": {
        "details": "See {IERC1155-safeBatchTransferFrom}."
      },
      "safeTransferFrom(address,address,uint256,uint256,bytes)": {
        "details": "See {IERC1155-safeTransferFrom}."
      },
      "setApprovalForAll(address,bool)": {
        "details": "See {IERC1155-setApprovalForAll}."
      },
      "supportsInterface(bytes4)": {
        "details": "See {IERC165-supportsInterface}."
      },
      "totalSupply(uint256)": {
        "details": "Total amount of tokens in with a given id."
      },
      "uri(uint256)": {
        "details": "See {IERC1155MetadataURI-uri}. This implementation returns the same URI for *all* token types. It relies on the token type ID substitution mechanism https://eips.ethereum.org/EIPS/eip-1155#metadata[defined in the EIP]. Clients calling this function must replace the `\\{id\\}` substring with the actual token type ID."
      }
    },
    "version": 1
  },
  "userdoc": {
    "kind": "user",
    "methods": {},
    "version": 1
  }
}