{
  "contractName": "Swap",
  "abi": [
    {
      "inputs": [
        {
          "internalType": "contract ERC1155Supply",
          "name": "_founders",
          "type": "address"
        },
        {
          "internalType": "contract IERC20",
          "name": "_pawth",
          "type": "address"
        }
      ],
      "stateMutability": "nonpayable",
      "type": "constructor"
    },
    {
      "inputs": [],
      "name": "fixedClaimTax",
      "outputs": [
        {
          "internalType": "bool",
          "name": "",
          "type": "bool"
        }
      ],
      "stateMutability": "view",
      "type": "function",
      "constant": true
    },
    {
      "inputs": [],
      "name": "fixedPawthSwapRate",
      "outputs": [
        {
          "internalType": "uint256",
          "name": "",
          "type": "uint256"
        }
      ],
      "stateMutability": "view",
      "type": "function",
      "constant": true
    },
    {
      "inputs": [],
      "name": "founders",
      "outputs": [
        {
          "internalType": "contract ERC1155Supply",
          "name": "",
          "type": "address"
        }
      ],
      "stateMutability": "view",
      "type": "function",
      "constant": true
    },
    {
      "inputs": [],
      "name": "foundersId",
      "outputs": [
        {
          "internalType": "uint256",
          "name": "",
          "type": "uint256"
        }
      ],
      "stateMutability": "view",
      "type": "function",
      "constant": true
    },
    {
      "inputs": [],
      "name": "multiSigWallet",
      "outputs": [
        {
          "internalType": "address",
          "name": "",
          "type": "address"
        }
      ],
      "stateMutability": "view",
      "type": "function",
      "constant": true
    },
    {
      "inputs": [
        {
          "internalType": "address",
          "name": "",
          "type": "address"
        },
        {
          "internalType": "address",
          "name": "",
          "type": "address"
        },
        {
          "internalType": "uint256[]",
          "name": "",
          "type": "uint256[]"
        },
        {
          "internalType": "uint256[]",
          "name": "",
          "type": "uint256[]"
        },
        {
          "internalType": "bytes",
          "name": "",
          "type": "bytes"
        }
      ],
      "name": "onERC1155BatchReceived",
      "outputs": [
        {
          "internalType": "bytes4",
          "name": "",
          "type": "bytes4"
        }
      ],
      "stateMutability": "nonpayable",
      "type": "function"
    },
    {
      "inputs": [
        {
          "internalType": "address",
          "name": "",
          "type": "address"
        },
        {
          "internalType": "address",
          "name": "",
          "type": "address"
        },
        {
          "internalType": "uint256",
          "name": "",
          "type": "uint256"
        },
        {
          "internalType": "uint256",
          "name": "",
          "type": "uint256"
        },
        {
          "internalType": "bytes",
          "name": "",
          "type": "bytes"
        }
      ],
      "name": "onERC1155Received",
      "outputs": [
        {
          "internalType": "bytes4",
          "name": "",
          "type": "bytes4"
        }
      ],
      "stateMutability": "nonpayable",
      "type": "function"
    },
    {
      "inputs": [],
      "name": "ownerWallet",
      "outputs": [
        {
          "internalType": "address",
          "name": "",
          "type": "address"
        }
      ],
      "stateMutability": "view",
      "type": "function",
      "constant": true
    },
    {
      "inputs": [],
      "name": "pawth",
      "outputs": [
        {
          "internalType": "contract IERC20",
          "name": "",
          "type": "address"
        }
      ],
      "stateMutability": "view",
      "type": "function",
      "constant": true
    },
    {
      "inputs": [],
      "name": "pawthClaimTax",
      "outputs": [
        {
          "internalType": "uint256",
          "name": "",
          "type": "uint256"
        }
      ],
      "stateMutability": "view",
      "type": "function",
      "constant": true
    },
    {
      "inputs": [
        {
          "internalType": "bytes4",
          "name": "interfaceId",
          "type": "bytes4"
        }
      ],
      "name": "supportsInterface",
      "outputs": [
        {
          "internalType": "bool",
          "name": "",
          "type": "bool"
        }
      ],
      "stateMutability": "view",
      "type": "function",
      "constant": true
    },
    {
      "inputs": [],
      "name": "tokenURI",
      "outputs": [
        {
          "internalType": "string",
          "name": "",
          "type": "string"
        }
      ],
      "stateMutability": "view",
      "type": "function",
      "constant": true
    },
    {
      "inputs": [],
      "name": "tokenURIBytes",
      "outputs": [
        {
          "internalType": "bytes",
          "name": "",
          "type": "bytes"
        }
      ],
      "stateMutability": "view",
      "type": "function",
      "constant": true
    },
    {
      "inputs": [],
      "name": "variableSwapRateOn",
      "outputs": [
        {
          "internalType": "bool",
          "name": "",
          "type": "bool"
        }
      ],
      "stateMutability": "view",
      "type": "function",
      "constant": true
    },
    {
      "inputs": [
        {
          "internalType": "uint256",
          "name": "tax",
          "type": "uint256"
        }
      ],
      "name": "setVariableClaimTax",
      "outputs": [],
      "stateMutability": "nonpayable",
      "type": "function"
    },
    {
      "inputs": [
        {
          "internalType": "bool",
          "name": "variableSwapIsOn",
          "type": "bool"
        }
      ],
      "name": "toggleSwapType",
      "outputs": [],
      "stateMutability": "nonpayable",
      "type": "function"
    },
    {
      "inputs": [
        {
          "internalType": "address",
          "name": "newOwnerWallet",
          "type": "address"
        },
        {
          "internalType": "address",
          "name": "newMultiSigWallet",
          "type": "address"
        }
      ],
      "name": "changeWalletAddresses",
      "outputs": [],
      "stateMutability": "nonpayable",
      "type": "function"
    },
    {
      "inputs": [
        {
          "internalType": "uint256",
          "name": "pawthAmount",
          "type": "uint256"
        }
      ],
      "name": "transferPawthOut",
      "outputs": [],
      "stateMutability": "nonpayable",
      "type": "function"
    },
    {
      "inputs": [
        {
          "internalType": "bool",
          "name": "sent",
          "type": "bool"
        },
        {
          "internalType": "uint256",
          "name": "ethAmount",
          "type": "uint256"
        }
      ],
      "name": "transferEthOut",
      "outputs": [],
      "stateMutability": "payable",
      "type": "function",
      "payable": true
    },
    {
      "inputs": [
        {
          "internalType": "bool",
          "name": "fixedSwapTaxOn",
          "type": "bool"
        }
      ],
      "name": "toggleFixedSwapTax",
      "outputs": [],
      "stateMutability": "nonpayable",
      "type": "function"
    },
    {
      "inputs": [
        {
          "internalType": "uint256",
          "name": "numberOfFoundersToSwap",
          "type": "uint256"
        }
      ],
      "name": "getCurrentFoundersForPawthRate",
      "outputs": [
        {
          "internalType": "uint256",
          "name": "",
          "type": "uint256"
        }
      ],
      "stateMutability": "view",
      "type": "function",
      "constant": true
    },
    {
      "inputs": [
        {
          "internalType": "uint256",
          "name": "numberOfFoundersToSwap",
          "type": "uint256"
        }
      ],
      "name": "getCurrentPawthForFoundersRate",
      "outputs": [
        {
          "internalType": "uint256",
          "name": "",
          "type": "uint256"
        }
      ],
      "stateMutability": "view",
      "type": "function",
      "constant": true
    },
    {
      "inputs": [
        {
          "internalType": "uint256",
          "name": "numberOfFoundersToSwap",
          "type": "uint256"
        }
      ],
      "name": "swapFoundersForPawthVariable",
      "outputs": [],
      "stateMutability": "nonpayable",
      "type": "function"
    },
    {
      "inputs": [
        {
          "internalType": "uint256",
          "name": "numberOfFoundersToClaim",
          "type": "uint256"
        }
      ],
      "name": "swapPawthForFoundersVariable",
      "outputs": [],
      "stateMutability": "nonpayable",
      "type": "function"
    },
    {
      "inputs": [
        {
          "internalType": "uint256",
          "name": "numberOfFoundersToSwap",
          "type": "uint256"
        }
      ],
      "name": "swapFoundersForPawthFixed",
      "outputs": [],
      "stateMutability": "nonpayable",
      "type": "function"
    },
    {
      "inputs": [
        {
          "internalType": "uint256",
          "name": "numberOfFoundersToClaim",
          "type": "uint256"
        }
      ],
      "name": "swapPawthForFoundersFixed",
      "outputs": [],
      "stateMutability": "nonpayable",
      "type": "function"
    }
  ],
  "bytecode": "0x608060405260006002556040518060600160405280603781526020016200496360379139600390805190602001906200003a92919062000219565b506040518060600160405280603781526020016200496360379139600490805190602001906200006c929190620002aa565b50606e600555738e6a9e6f141bf9bd5a9a4318ad5458d1ad312939600660006101000a81548173ffffffffffffffffffffffffffffffffffffffff021916908373ffffffffffffffffffffffffffffffffffffffff16021790555073a1924006401cabecc4ef4ab7542eeaa357449ed6600760006101000a81548173ffffffffffffffffffffffffffffffffffffffff021916908373ffffffffffffffffffffffffffffffffffffffff1602179055506001600760146101000a81548160ff021916908315150217905550660110d9316ec0006008556001600960006101000a81548160ff0219169083151502179055503480156200016a57600080fd5b506040516200499a3803806200499a83398181016040528101906200019091906200041d565b816000806101000a81548173ffffffffffffffffffffffffffffffffffffffff021916908373ffffffffffffffffffffffffffffffffffffffff16021790555080600160006101000a81548173ffffffffffffffffffffffffffffffffffffffff021916908373ffffffffffffffffffffffffffffffffffffffff1602179055505050620004c8565b828054620002279062000493565b90600052602060002090601f0160209004810192826200024b576000855562000297565b82601f106200026657805160ff191683800117855562000297565b8280016001018555821562000297579182015b828111156200029657825182559160200191906001019062000279565b5b509050620002a691906200033b565b5090565b828054620002b89062000493565b90600052602060002090601f016020900481019282620002dc576000855562000328565b82601f10620002f757805160ff191683800117855562000328565b8280016001018555821562000328579182015b82811115620003275782518255916020019190600101906200030a565b5b5090506200033791906200033b565b5090565b5b80821115620003565760008160009055506001016200033c565b5090565b600080fd5b600073ffffffffffffffffffffffffffffffffffffffff82169050919050565b60006200038c826200035f565b9050919050565b6000620003a0826200037f565b9050919050565b620003b28162000393565b8114620003be57600080fd5b50565b600081519050620003d281620003a7565b92915050565b6000620003e5826200037f565b9050919050565b620003f781620003d8565b81146200040357600080fd5b50565b6000815190506200041781620003ec565b92915050565b600080604083850312156200043757620004366200035a565b5b60006200044785828601620003c1565b92505060206200045a8582860162000406565b9150509250929050565b7f4e487b7100000000000000000000000000000000000000000000000000000000600052602260045260246000fd5b60006002820490506001821680620004ac57607f821691505b602082108103620004c257620004c162000464565b5b50919050565b61448b80620004d86000396000f3fe6080604052600436106101815760003560e01c80639335dcb7116100d1578063ba13787f1161008a578063e3b905dc11610064578063e3b905dc14610563578063eb660caa1461058e578063f23a6e61146105b7578063f437779b146105f457610181565b8063ba13787f146104df578063bc197c811461050a578063c3d8e2571461054757610181565b80639335dcb7146103cd57806397f3dc6e146103f85780639e99f14014610423578063a498d99b1461044e578063aa6c26241461048b578063acc864b0146104b457610181565b8063411b007e1161013e57806353a8d6271161011857806353a8d627146103295780635c93e920146103525780635e9236e81461037b5780636fff10a6146103a457610181565b8063411b007e146102a85780634b8feb4f146102d35780634e76b028146102fe57610181565b806301ffc9a7146101865780630c943101146101c35780632d363f38146101ee57806339888d641461022b5780633a48fd7c146102545780633c130d901461027d575b600080fd5b34801561019257600080fd5b506101ad60048036038101906101a89190612ea7565b61061d565b6040516101ba9190612eef565b60405180910390f35b3480156101cf57600080fd5b506101d8610697565b6040516101e59190612f23565b60405180910390f35b3480156101fa57600080fd5b5061021560048036038101906102109190612f6a565b61069d565b6040516102229190612f23565b60405180910390f35b34801561023757600080fd5b50610252600480360381019061024d9190612f6a565b610a3e565b005b34801561026057600080fd5b5061027b60048036038101906102769190612f6a565b610f69565b005b34801561028957600080fd5b5061029261146c565b60405161029f9190613030565b60405180910390f35b3480156102b457600080fd5b506102bd6114fa565b6040516102ca91906130d1565b60405180910390f35b3480156102df57600080fd5b506102e861151e565b6040516102f5919061310d565b60405180910390f35b34801561030a57600080fd5b50610313611544565b604051610320919061317d565b60405180910390f35b34801561033557600080fd5b50610350600480360381019061034b91906131cb565b6115d2565b005b34801561035e57600080fd5b5061037960048036038101906103749190613224565b6116d7565b005b34801561038757600080fd5b506103a2600480360381019061039d9190612f6a565b6117ed565b005b3480156103b057600080fd5b506103cb60048036038101906103c69190612f6a565b611dab565b005b3480156103d957600080fd5b506103e2611f24565b6040516103ef919061310d565b60405180910390f35b34801561040457600080fd5b5061040d611f4a565b60405161041a9190612eef565b60405180910390f35b34801561042f57600080fd5b50610438611f5d565b6040516104459190612eef565b60405180910390f35b34801561045a57600080fd5b5061047560048036038101906104709190612f6a565b611f70565b6040516104829190612f23565b60405180910390f35b34801561049757600080fd5b506104b260048036038101906104ad9190612f6a565b61242f565b005b3480156104c057600080fd5b506104c9612585565b6040516104d69190612f23565b60405180910390f35b3480156104eb57600080fd5b506104f461258b565b6040516105019190613285565b60405180910390f35b34801561051657600080fd5b50610531600480360381019061052c919061349d565b6125b1565b60405161053e919061357b565b60405180910390f35b610561600480360381019061055c9190613596565b6125c6565b005b34801561056f57600080fd5b50610578612725565b6040516105859190612f23565b60405180910390f35b34801561059a57600080fd5b506105b560048036038101906105b09190612f6a565b61272b565b005b3480156105c357600080fd5b506105de60048036038101906105d991906135d6565b612c75565b6040516105eb919061357b565b60405180910390f35b34801561060057600080fd5b5061061b600480360381019061061691906131cb565b612c8a565b005b60007f4e2312e0000000000000000000000000000000000000000000000000000000007bffffffffffffffffffffffffffffffffffffffffffffffffffffffff1916827bffffffffffffffffffffffffffffffffffffffffffffffffffffffff19161480610690575061068f82612d8f565b5b9050919050565b60085481565b600060011515600760149054906101000a900460ff161515036108d557600061080560008054906101000a900473ffffffffffffffffffffffffffffffffffffffff1673ffffffffffffffffffffffffffffffffffffffff1662fdd58e3060006040518363ffffffff1660e01b815260040161071a9291906136a8565b602060405180830381865afa158015610737573d6000803e3d6000fd5b505050506040513d601f19601f8201168201806040525081019061075b91906136e6565b60008054906101000a900473ffffffffffffffffffffffffffffffffffffffff1673ffffffffffffffffffffffffffffffffffffffff1663bd85b0396002546040518263ffffffff1660e01b81526004016107b69190612f23565b602060405180830381865afa1580156107d3573d6000803e3d6000fd5b505050506040513d601f19601f820116820180604052508101906107f791906136e6565b612df990919063ffffffff16565b905060006108c9826108bb600160009054906101000a900473ffffffffffffffffffffffffffffffffffffffff1673ffffffffffffffffffffffffffffffffffffffff166370a08231306040518263ffffffff1660e01b815260040161086b919061310d565b602060405180830381865afa158015610888573d6000803e3d6000fd5b505050506040513d601f19601f820116820180604052508101906108ac91906136e6565b87612e0f90919063ffffffff16565b612e2590919063ffffffff16565b90508092505050610a39565b6000610a3260008054906101000a900473ffffffffffffffffffffffffffffffffffffffff1673ffffffffffffffffffffffffffffffffffffffff1663bd85b0396002546040518263ffffffff1660e01b81526004016109359190612f23565b602060405180830381865afa158015610952573d6000803e3d6000fd5b505050506040513d601f19601f8201168201806040525081019061097691906136e6565b610a24600160009054906101000a900473ffffffffffffffffffffffffffffffffffffffff1673ffffffffffffffffffffffffffffffffffffffff166370a08231306040518263ffffffff1660e01b81526004016109d4919061310d565b602060405180830381865afa1580156109f1573d6000803e3d6000fd5b505050506040513d601f19601f82011682018060405250810190610a1591906136e6565b86612e0f90919063ffffffff16565b612e2590919063ffffffff16565b9050809150505b919050565b60011515600760149054906101000a900460ff16151514610a94576040517f08c379a0000000000000000000000000000000000000000000000000000000008152600401610a8b9061375f565b60405180910390fd5b6000600160009054906101000a900473ffffffffffffffffffffffffffffffffffffffff1673ffffffffffffffffffffffffffffffffffffffff166370a08231336040518263ffffffff1660e01b8152600401610af1919061310d565b602060405180830381865afa158015610b0e573d6000803e3d6000fd5b505050506040513d601f19601f82011682018060405250810190610b3291906136e6565b90506000610cb860008054906101000a900473ffffffffffffffffffffffffffffffffffffffff1673ffffffffffffffffffffffffffffffffffffffff1663bd85b0396002546040518263ffffffff1660e01b8152600401610b949190612f23565b602060405180830381865afa158015610bb1573d6000803e3d6000fd5b505050506040513d601f19601f82011682018060405250810190610bd591906136e6565b610caa6064610c9c600554610c8e600160009054906101000a900473ffffffffffffffffffffffffffffffffffffffff1673ffffffffffffffffffffffffffffffffffffffff166370a08231306040518263ffffffff1660e01b8152600401610c3e919061310d565b602060405180830381865afa158015610c5b573d6000803e3d6000fd5b505050506040513d601f19601f82011682018060405250810190610c7f91906136e6565b8a612e0f90919063ffffffff16565b612e0f90919063ffffffff16565b612e2590919063ffffffff16565b612e2590919063ffffffff16565b905080821015610cfd576040517f08c379a0000000000000000000000000000000000000000000000000000000008152600401610cf4906137cb565b60405180910390fd5b8260008054906101000a900473ffffffffffffffffffffffffffffffffffffffff1673ffffffffffffffffffffffffffffffffffffffff1662fdd58e306002546040518363ffffffff1660e01b8152600401610d5a9291906137eb565b602060405180830381865afa158015610d77573d6000803e3d6000fd5b505050506040513d601f19601f82011682018060405250810190610d9b91906136e6565b1015610ddc576040517f08c379a0000000000000000000000000000000000000000000000000000000008152600401610dd390613886565b60405180910390fd5b600083118015610dec5750600483105b610e2b576040517f08c379a0000000000000000000000000000000000000000000000000000000008152600401610e2290613918565b60405180910390fd5b600160009054906101000a900473ffffffffffffffffffffffffffffffffffffffff1673ffffffffffffffffffffffffffffffffffffffff166323b872dd3330846040518463ffffffff1660e01b8152600401610e8a93929190613938565b6020604051808303816000875af1158015610ea9573d6000803e3d6000fd5b505050506040513d601f19601f82011682018060405250810190610ecd9190613984565b5060008054906101000a900473ffffffffffffffffffffffffffffffffffffffff1673ffffffffffffffffffffffffffffffffffffffff1663f242432a30336002548760046040518663ffffffff1660e01b8152600401610f32959493929190613aa6565b600060405180830381600087803b158015610f4c57600080fd5b505af1158015610f60573d6000803e3d6000fd5b50505050505050565b60001515600760149054906101000a900460ff16151514610fbf576040517f08c379a0000000000000000000000000000000000000000000000000000000008152600401610fb690613b4c565b60405180910390fd5b60008060009054906101000a900473ffffffffffffffffffffffffffffffffffffffff1673ffffffffffffffffffffffffffffffffffffffff1662fdd58e336002546040518363ffffffff1660e01b815260040161101e9291906137eb565b602060405180830381865afa15801561103b573d6000803e3d6000fd5b505050506040513d601f19601f8201168201806040525081019061105f91906136e6565b9050818110156110a4576040517f08c379a000000000000000000000000000000000000000000000000000000000815260040161109b90613bde565b60405180910390fd5b6000821180156110b45750600482105b6110f3576040517f08c379a00000000000000000000000000000000000000000000000000000000081526004016110ea90613c70565b60405180910390fd5b600061125060008054906101000a900473ffffffffffffffffffffffffffffffffffffffff1673ffffffffffffffffffffffffffffffffffffffff1663bd85b0396002546040518263ffffffff1660e01b81526004016111539190612f23565b602060405180830381865afa158015611170573d6000803e3d6000fd5b505050506040513d601f19601f8201168201806040525081019061119491906136e6565b611242600160009054906101000a900473ffffffffffffffffffffffffffffffffffffffff1673ffffffffffffffffffffffffffffffffffffffff166370a08231306040518263ffffffff1660e01b81526004016111f2919061310d565b602060405180830381865afa15801561120f573d6000803e3d6000fd5b505050506040513d601f19601f8201168201806040525081019061123391906136e6565b86612e0f90919063ffffffff16565b612e2590919063ffffffff16565b905080600160009054906101000a900473ffffffffffffffffffffffffffffffffffffffff1673ffffffffffffffffffffffffffffffffffffffff166370a08231306040518263ffffffff1660e01b81526004016112ae919061310d565b602060405180830381865afa1580156112cb573d6000803e3d6000fd5b505050506040513d601f19601f820116820180604052508101906112ef91906136e6565b1015611330576040517f08c379a000000000000000000000000000000000000000000000000000000000815260040161132790613d02565b60405180910390fd5b60008054906101000a900473ffffffffffffffffffffffffffffffffffffffff1673ffffffffffffffffffffffffffffffffffffffff1663f242432a33306002548760046040518663ffffffff1660e01b8152600401611394959493929190613aa6565b600060405180830381600087803b1580156113ae57600080fd5b505af11580156113c2573d6000803e3d6000fd5b50505050600160009054906101000a900473ffffffffffffffffffffffffffffffffffffffff1673ffffffffffffffffffffffffffffffffffffffff1663a9059cbb33836040518363ffffffff1660e01b81526004016114239291906137eb565b6020604051808303816000875af1158015611442573d6000803e3d6000fd5b505050506040513d601f19601f820116820180604052508101906114669190613984565b50505050565b60038054611479906139e0565b80601f01602080910402602001604051908101604052809291908181526020018280546114a5906139e0565b80156114f25780601f106114c7576101008083540402835291602001916114f2565b820191906000526020600020905b8154815290600101906020018083116114d557829003601f168201915b505050505081565b60008054906101000a900473ffffffffffffffffffffffffffffffffffffffff1681565b600760009054906101000a900473ffffffffffffffffffffffffffffffffffffffff1681565b60048054611551906139e0565b80601f016020809104026020016040519081016040528092919081815260200182805461157d906139e0565b80156115ca5780601f1061159f576101008083540402835291602001916115ca565b820191906000526020600020905b8154815290600101906020018083116115ad57829003601f168201915b505050505081565b600660009054906101000a900473ffffffffffffffffffffffffffffffffffffffff1673ffffffffffffffffffffffffffffffffffffffff163373ffffffffffffffffffffffffffffffffffffffff16148061167b5750600760009054906101000a900473ffffffffffffffffffffffffffffffffffffffff1673ffffffffffffffffffffffffffffffffffffffff163373ffffffffffffffffffffffffffffffffffffffff16145b6116ba576040517f08c379a00000000000000000000000000000000000000000000000000000000081526004016116b190613d94565b60405180910390fd5b80600760146101000a81548160ff02191690831515021790555050565b600760009054906101000a900473ffffffffffffffffffffffffffffffffffffffff1673ffffffffffffffffffffffffffffffffffffffff163373ffffffffffffffffffffffffffffffffffffffff1614611767576040517f08c379a000000000000000000000000000000000000000000000000000000000815260040161175e90613e26565b60405180910390fd5b81600660006101000a81548173ffffffffffffffffffffffffffffffffffffffff021916908373ffffffffffffffffffffffffffffffffffffffff16021790555080600760006101000a81548173ffffffffffffffffffffffffffffffffffffffff021916908373ffffffffffffffffffffffffffffffffffffffff1602179055505050565b60011515600760149054906101000a900460ff16151514611843576040517f08c379a000000000000000000000000000000000000000000000000000000000815260040161183a9061375f565b60405180910390fd5b60008060009054906101000a900473ffffffffffffffffffffffffffffffffffffffff1673ffffffffffffffffffffffffffffffffffffffff1662fdd58e336002546040518363ffffffff1660e01b81526004016118a29291906137eb565b602060405180830381865afa1580156118bf573d6000803e3d6000fd5b505050506040513d601f19601f820116820180604052508101906118e391906136e6565b905081811015611928576040517f08c379a000000000000000000000000000000000000000000000000000000000815260040161191f90613bde565b60405180910390fd5b6000821180156119385750600482105b611977576040517f08c379a000000000000000000000000000000000000000000000000000000000815260040161196e90613eb8565b60405180910390fd5b60008060009054906101000a900473ffffffffffffffffffffffffffffffffffffffff1673ffffffffffffffffffffffffffffffffffffffff1663bd85b0396002546040518263ffffffff1660e01b81526004016119d59190612f23565b602060405180830381865afa1580156119f2573d6000803e3d6000fd5b505050506040513d601f19601f82011682018060405250810190611a1691906136e6565b90506000611ac960008054906101000a900473ffffffffffffffffffffffffffffffffffffffff1673ffffffffffffffffffffffffffffffffffffffff1662fdd58e306002546040518363ffffffff1660e01b8152600401611a799291906137eb565b602060405180830381865afa158015611a96573d6000803e3d6000fd5b505050506040513d601f19601f82011682018060405250810190611aba91906136e6565b83612df990919063ffffffff16565b90506000611b8d82611b7f600160009054906101000a900473ffffffffffffffffffffffffffffffffffffffff1673ffffffffffffffffffffffffffffffffffffffff166370a08231306040518263ffffffff1660e01b8152600401611b2f919061310d565b602060405180830381865afa158015611b4c573d6000803e3d6000fd5b505050506040513d601f19601f82011682018060405250810190611b7091906136e6565b88612e0f90919063ffffffff16565b612e2590919063ffffffff16565b905080600160009054906101000a900473ffffffffffffffffffffffffffffffffffffffff1673ffffffffffffffffffffffffffffffffffffffff166370a08231306040518263ffffffff1660e01b8152600401611beb919061310d565b602060405180830381865afa158015611c08573d6000803e3d6000fd5b505050506040513d601f19601f82011682018060405250810190611c2c91906136e6565b1015611c6d576040517f08c379a0000000000000000000000000000000000000000000000000000000008152600401611c6490613d02565b60405180910390fd5b60008054906101000a900473ffffffffffffffffffffffffffffffffffffffff1673ffffffffffffffffffffffffffffffffffffffff1663f242432a33306002548960046040518663ffffffff1660e01b8152600401611cd1959493929190613aa6565b600060405180830381600087803b158015611ceb57600080fd5b505af1158015611cff573d6000803e3d6000fd5b50505050600160009054906101000a900473ffffffffffffffffffffffffffffffffffffffff1673ffffffffffffffffffffffffffffffffffffffff1663a9059cbb33836040518363ffffffff1660e01b8152600401611d609291906137eb565b6020604051808303816000875af1158015611d7f573d6000803e3d6000fd5b505050506040513d601f19601f82011682018060405250810190611da39190613984565b505050505050565b600660009054906101000a900473ffffffffffffffffffffffffffffffffffffffff1673ffffffffffffffffffffffffffffffffffffffff163373ffffffffffffffffffffffffffffffffffffffff161480611e545750600760009054906101000a900473ffffffffffffffffffffffffffffffffffffffff1673ffffffffffffffffffffffffffffffffffffffff163373ffffffffffffffffffffffffffffffffffffffff16145b611e93576040517f08c379a0000000000000000000000000000000000000000000000000000000008152600401611e8a90613f4a565b60405180910390fd5b60828110611ed6576040517f08c379a0000000000000000000000000000000000000000000000000000000008152600401611ecd90613fb6565b60405180910390fd5b6064811015611f1a576040517f08c379a0000000000000000000000000000000000000000000000000000000008152600401611f1190614022565b60405180910390fd5b8060058190555050565b600660009054906101000a900473ffffffffffffffffffffffffffffffffffffffff1681565b600760149054906101000a900460ff1681565b600960009054906101000a900460ff1681565b600060011515600760149054906101000a900460ff1615150361211c57600061211160008054906101000a900473ffffffffffffffffffffffffffffffffffffffff1673ffffffffffffffffffffffffffffffffffffffff1663bd85b0396002546040518263ffffffff1660e01b8152600401611fed9190612f23565b602060405180830381865afa15801561200a573d6000803e3d6000fd5b505050506040513d601f19601f8201168201806040525081019061202e91906136e6565b61210360646120f56005546120e7600160009054906101000a900473ffffffffffffffffffffffffffffffffffffffff1673ffffffffffffffffffffffffffffffffffffffff166370a08231306040518263ffffffff1660e01b8152600401612097919061310d565b602060405180830381865afa1580156120b4573d6000803e3d6000fd5b505050506040513d601f19601f820116820180604052508101906120d891906136e6565b8a612e0f90919063ffffffff16565b612e0f90919063ffffffff16565b612e2590919063ffffffff16565b612e2590919063ffffffff16565b90508091505061242a565b60011515600960009054906101000a900460ff161515036122c65760006122bb60646122ad60055461229f60008054906101000a900473ffffffffffffffffffffffffffffffffffffffff1673ffffffffffffffffffffffffffffffffffffffff1663bd85b0396002546040518263ffffffff1660e01b81526004016121a29190612f23565b602060405180830381865afa1580156121bf573d6000803e3d6000fd5b505050506040513d601f19601f820116820180604052508101906121e391906136e6565b612291600160009054906101000a900473ffffffffffffffffffffffffffffffffffffffff1673ffffffffffffffffffffffffffffffffffffffff166370a08231306040518263ffffffff1660e01b8152600401612241919061310d565b602060405180830381865afa15801561225e573d6000803e3d6000fd5b505050506040513d601f19601f8201168201806040525081019061228291906136e6565b8a612e0f90919063ffffffff16565b612e2590919063ffffffff16565b612e0f90919063ffffffff16565b612e2590919063ffffffff16565b90508091505061242a565b600061242360008054906101000a900473ffffffffffffffffffffffffffffffffffffffff1673ffffffffffffffffffffffffffffffffffffffff1663bd85b0396002546040518263ffffffff1660e01b81526004016123269190612f23565b602060405180830381865afa158015612343573d6000803e3d6000fd5b505050506040513d601f19601f8201168201806040525081019061236791906136e6565b612415600160009054906101000a900473ffffffffffffffffffffffffffffffffffffffff1673ffffffffffffffffffffffffffffffffffffffff166370a08231306040518263ffffffff1660e01b81526004016123c5919061310d565b602060405180830381865afa1580156123e2573d6000803e3d6000fd5b505050506040513d601f19601f8201168201806040525081019061240691906136e6565b86612e0f90919063ffffffff16565b612e2590919063ffffffff16565b9050809150505b919050565b600760009054906101000a900473ffffffffffffffffffffffffffffffffffffffff1673ffffffffffffffffffffffffffffffffffffffff163373ffffffffffffffffffffffffffffffffffffffff16146124bf576040517f08c379a00000000000000000000000000000000000000000000000000000000081526004016124b6906140b4565b60405180910390fd5b600160009054906101000a900473ffffffffffffffffffffffffffffffffffffffff1673ffffffffffffffffffffffffffffffffffffffff1663a9059cbb600760009054906101000a900473ffffffffffffffffffffffffffffffffffffffff16836040518363ffffffff1660e01b815260040161253e9291906137eb565b6020604051808303816000875af115801561255d573d6000803e3d6000fd5b505050506040513d601f19601f820116820180604052508101906125819190613984565b5050565b60025481565b600160009054906101000a900473ffffffffffffffffffffffffffffffffffffffff1681565b600063bc197c8160e01b905095945050505050565b600760009054906101000a900473ffffffffffffffffffffffffffffffffffffffff1673ffffffffffffffffffffffffffffffffffffffff163373ffffffffffffffffffffffffffffffffffffffff1614612656576040517f08c379a000000000000000000000000000000000000000000000000000000000815260040161264d90614146565b60405180910390fd5b600760009054906101000a900473ffffffffffffffffffffffffffffffffffffffff1673ffffffffffffffffffffffffffffffffffffffff168160405161269c90614197565b60006040518083038185875af1925050503d80600081146126d9576040519150601f19603f3d011682016040523d82523d6000602084013e6126de565b606091505b50505081612721576040517f08c379a0000000000000000000000000000000000000000000000000000000008152600401612718906141f8565b60405180910390fd5b5050565b60055481565b60001515600760149054906101000a900460ff16151514612781576040517f08c379a000000000000000000000000000000000000000000000000000000000815260040161277890614264565b60405180910390fd5b6000600160009054906101000a900473ffffffffffffffffffffffffffffffffffffffff1673ffffffffffffffffffffffffffffffffffffffff166370a08231336040518263ffffffff1660e01b81526004016127de919061310d565b602060405180830381865afa1580156127fb573d6000803e3d6000fd5b505050506040513d601f19601f8201168201806040525081019061281f91906136e6565b9050600061297e60008054906101000a900473ffffffffffffffffffffffffffffffffffffffff1673ffffffffffffffffffffffffffffffffffffffff1663bd85b0396002546040518263ffffffff1660e01b81526004016128819190612f23565b602060405180830381865afa15801561289e573d6000803e3d6000fd5b505050506040513d601f19601f820116820180604052508101906128c291906136e6565b612970600160009054906101000a900473ffffffffffffffffffffffffffffffffffffffff1673ffffffffffffffffffffffffffffffffffffffff166370a08231306040518263ffffffff1660e01b8152600401612920919061310d565b602060405180830381865afa15801561293d573d6000803e3d6000fd5b505050506040513d601f19601f8201168201806040525081019061296191906136e6565b86612e0f90919063ffffffff16565b612e2590919063ffffffff16565b905060011515600960009054906101000a900460ff161515036129c6576129c360646129b560055484612e0f90919063ffffffff16565b612e2590919063ffffffff16565b90505b80821015612a09576040517f08c379a0000000000000000000000000000000000000000000000000000000008152600401612a00906137cb565b60405180910390fd5b8260008054906101000a900473ffffffffffffffffffffffffffffffffffffffff1673ffffffffffffffffffffffffffffffffffffffff1662fdd58e306002546040518363ffffffff1660e01b8152600401612a669291906137eb565b602060405180830381865afa158015612a83573d6000803e3d6000fd5b505050506040513d601f19601f82011682018060405250810190612aa791906136e6565b1015612ae8576040517f08c379a0000000000000000000000000000000000000000000000000000000008152600401612adf90613886565b60405180910390fd5b600083118015612af85750600483105b612b37576040517f08c379a0000000000000000000000000000000000000000000000000000000008152600401612b2e90613c70565b60405180910390fd5b600160009054906101000a900473ffffffffffffffffffffffffffffffffffffffff1673ffffffffffffffffffffffffffffffffffffffff166323b872dd3330846040518463ffffffff1660e01b8152600401612b9693929190613938565b6020604051808303816000875af1158015612bb5573d6000803e3d6000fd5b505050506040513d601f19601f82011682018060405250810190612bd99190613984565b5060008054906101000a900473ffffffffffffffffffffffffffffffffffffffff1673ffffffffffffffffffffffffffffffffffffffff1663f242432a30336002548760046040518663ffffffff1660e01b8152600401612c3e959493929190613aa6565b600060405180830381600087803b158015612c5857600080fd5b505af1158015612c6c573d6000803e3d6000fd5b50505050505050565b600063f23a6e6160e01b905095945050505050565b600660009054906101000a900473ffffffffffffffffffffffffffffffffffffffff1673ffffffffffffffffffffffffffffffffffffffff163373ffffffffffffffffffffffffffffffffffffffff161480612d335750600760009054906101000a900473ffffffffffffffffffffffffffffffffffffffff1673ffffffffffffffffffffffffffffffffffffffff163373ffffffffffffffffffffffffffffffffffffffff16145b612d72576040517f08c379a0000000000000000000000000000000000000000000000000000000008152600401612d69906142f6565b60405180910390fd5b80600960006101000a81548160ff02191690831515021790555050565b60007f01ffc9a7000000000000000000000000000000000000000000000000000000007bffffffffffffffffffffffffffffffffffffffffffffffffffffffff1916827bffffffffffffffffffffffffffffffffffffffffffffffffffffffff1916149050919050565b60008183612e079190614345565b905092915050565b60008183612e1d919061439b565b905092915050565b60008183612e339190614424565b905092915050565b6000604051905090565b600080fd5b600080fd5b60007fffffffff0000000000000000000000000000000000000000000000000000000082169050919050565b612e8481612e4f565b8114612e8f57600080fd5b50565b600081359050612ea181612e7b565b92915050565b600060208284031215612ebd57612ebc612e45565b5b6000612ecb84828501612e92565b91505092915050565b60008115159050919050565b612ee981612ed4565b82525050565b6000602082019050612f046000830184612ee0565b92915050565b6000819050919050565b612f1d81612f0a565b82525050565b6000602082019050612f386000830184612f14565b92915050565b612f4781612f0a565b8114612f5257600080fd5b50565b600081359050612f6481612f3e565b92915050565b600060208284031215612f8057612f7f612e45565b5b6000612f8e84828501612f55565b91505092915050565b600081519050919050565b600082825260208201905092915050565b60005b83811015612fd1578082015181840152602081019050612fb6565b83811115612fe0576000848401525b50505050565b6000601f19601f8301169050919050565b600061300282612f97565b61300c8185612fa2565b935061301c818560208601612fb3565b61302581612fe6565b840191505092915050565b6000602082019050818103600083015261304a8184612ff7565b905092915050565b600073ffffffffffffffffffffffffffffffffffffffff82169050919050565b6000819050919050565b600061309761309261308d84613052565b613072565b613052565b9050919050565b60006130a98261307c565b9050919050565b60006130bb8261309e565b9050919050565b6130cb816130b0565b82525050565b60006020820190506130e660008301846130c2565b92915050565b60006130f782613052565b9050919050565b613107816130ec565b82525050565b600060208201905061312260008301846130fe565b92915050565b600081519050919050565b600082825260208201905092915050565b600061314f82613128565b6131598185613133565b9350613169818560208601612fb3565b61317281612fe6565b840191505092915050565b600060208201905081810360008301526131978184613144565b905092915050565b6131a881612ed4565b81146131b357600080fd5b50565b6000813590506131c58161319f565b92915050565b6000602082840312156131e1576131e0612e45565b5b60006131ef848285016131b6565b91505092915050565b613201816130ec565b811461320c57600080fd5b50565b60008135905061321e816131f8565b92915050565b6000806040838503121561323b5761323a612e45565b5b60006132498582860161320f565b925050602061325a8582860161320f565b9150509250929050565b600061326f8261309e565b9050919050565b61327f81613264565b82525050565b600060208201905061329a6000830184613276565b92915050565b600080fd5b7f4e487b7100000000000000000000000000000000000000000000000000000000600052604160045260246000fd5b6132dd82612fe6565b810181811067ffffffffffffffff821117156132fc576132fb6132a5565b5b80604052505050565b600061330f612e3b565b905061331b82826132d4565b919050565b600067ffffffffffffffff82111561333b5761333a6132a5565b5b602082029050602081019050919050565b600080fd5b600061336461335f84613320565b613305565b905080838252602082019050602084028301858111156133875761338661334c565b5b835b818110156133b0578061339c8882612f55565b845260208401935050602081019050613389565b5050509392505050565b600082601f8301126133cf576133ce6132a0565b5b81356133df848260208601613351565b91505092915050565b600080fd5b600067ffffffffffffffff821115613408576134076132a5565b5b61341182612fe6565b9050602081019050919050565b82818337600083830152505050565b600061344061343b846133ed565b613305565b90508281526020810184848401111561345c5761345b6133e8565b5b61346784828561341e565b509392505050565b600082601f830112613484576134836132a0565b5b813561349484826020860161342d565b91505092915050565b600080600080600060a086880312156134b9576134b8612e45565b5b60006134c78882890161320f565b95505060206134d88882890161320f565b945050604086013567ffffffffffffffff8111156134f9576134f8612e4a565b5b613505888289016133ba565b935050606086013567ffffffffffffffff81111561352657613525612e4a565b5b613532888289016133ba565b925050608086013567ffffffffffffffff81111561355357613552612e4a565b5b61355f8882890161346f565b9150509295509295909350565b61357581612e4f565b82525050565b6000602082019050613590600083018461356c565b92915050565b600080604083850312156135ad576135ac612e45565b5b60006135bb858286016131b6565b92505060206135cc85828601612f55565b9150509250929050565b600080600080600060a086880312156135f2576135f1612e45565b5b60006136008882890161320f565b95505060206136118882890161320f565b945050604061362288828901612f55565b935050606061363388828901612f55565b925050608086013567ffffffffffffffff81111561365457613653612e4a565b5b6136608882890161346f565b9150509295509295909350565b6000819050919050565b600061369261368d6136888461366d565b613072565b612f0a565b9050919050565b6136a281613677565b82525050565b60006040820190506136bd60008301856130fe565b6136ca6020830184613699565b9392505050565b6000815190506136e081612f3e565b92915050565b6000602082840312156136fc576136fb612e45565b5b600061370a848285016136d1565b91505092915050565b7f5661726961626c6520737761707320617265206e6f7420656e61626c65642e00600082015250565b6000613749601f83612fa2565b915061375482613713565b602082019050919050565b600060208201905081810360008301526137788161373c565b9050919050565b7f596f7520646f6e2774206861766520656e6f7567682050617774680000000000600082015250565b60006137b5601b83612fa2565b91506137c08261377f565b602082019050919050565b600060208201905081810360008301526137e4816137a8565b9050919050565b600060408201905061380060008301856130fe565b61380d6020830184612f14565b9392505050565b7f546865207377617020636f6e747261637420646f6573206e6f7420686176652060008201527f656e6f75676820666f756e64657273204e465473000000000000000000000000602082015250565b6000613870603483612fa2565b915061387b82613814565b604082019050919050565b6000602082019050818103600083015261389f81613863565b9050919050565b7f596f752063616e20636c61696d206d6f7265207468616e203020616e64206c6560008201527f7373207468616e203420666f756e64657273206e667473000000000000000000602082015250565b6000613902603783612fa2565b915061390d826138a6565b604082019050919050565b60006020820190508181036000830152613931816138f5565b9050919050565b600060608201905061394d60008301866130fe565b61395a60208301856130fe565b6139676040830184612f14565b949350505050565b60008151905061397e8161319f565b92915050565b60006020828403121561399a57613999612e45565b5b60006139a88482850161396f565b91505092915050565b7f4e487b7100000000000000000000000000000000000000000000000000000000600052602260045260246000fd5b600060028204905060018216806139f857607f821691505b602082108103613a0b57613a0a6139b1565b5b50919050565b60008190508160005260206000209050919050565b60008154613a33816139e0565b613a3d8186613133565b94506001821660008114613a585760018114613a6a57613a9d565b60ff1983168652602086019350613a9d565b613a7385613a11565b60005b83811015613a9557815481890152600182019150602081019050613a76565b808801955050505b50505092915050565b600060a082019050613abb60008301886130fe565b613ac860208301876130fe565b613ad56040830186612f14565b613ae26060830185612f14565b8181036080830152613af48184613a26565b90509695505050505050565b7f4669786564207377617020726174657320617265206e6f7420656e61626c6564600082015250565b6000613b36602083612fa2565b9150613b4182613b00565b602082019050919050565b60006020820190508181036000830152613b6581613b29565b9050919050565b7f596f7520646f6e2774206861766520656e6f75676820666f756e64657273207460008201527f6f6b656e73000000000000000000000000000000000000000000000000000000602082015250565b6000613bc8602583612fa2565b9150613bd382613b6c565b604082019050919050565b60006020820190508181036000830152613bf781613bbb565b9050919050565b7f596f752063616e2073776170206d6f7265207468616e203020616e642075702060008201527f746f203320666f756e64657273206e6674730000000000000000000000000000602082015250565b6000613c5a603283612fa2565b9150613c6582613bfe565b604082019050919050565b60006020820190508181036000830152613c8981613c4d565b9050919050565b7f546865207377617020636f6e747261637420646f65736e27742068617665206560008201527f6e6f756768205061777468000000000000000000000000000000000000000000602082015250565b6000613cec602b83612fa2565b9150613cf782613c90565b604082019050919050565b60006020820190508181036000830152613d1b81613cdf565b9050919050565b7f596f7520617265206e6f74207065726d697474656420746f2063616c6c20746860008201527f69732066756e6374696f6e2e0000000000000000000000000000000000000000602082015250565b6000613d7e602c83612fa2565b9150613d8982613d22565b604082019050919050565b60006020820190508181036000830152613dad81613d71565b9050919050565b7f4f6e6c7920746865206d756c746953696757616c6c65742063616e206368616e60008201527f67652061646d696e206164647265737365730000000000000000000000000000602082015250565b6000613e10603283612fa2565b9150613e1b82613db4565b604082019050919050565b60006020820190508181036000830152613e3f81613e03565b9050919050565b7f596f752063616e2073776170206d6f7265207468616e203020616e64206c657360008201527f73207468616e203420666f756e64657273206e66747300000000000000000000602082015250565b6000613ea2603683612fa2565b9150613ead82613e46565b604082019050919050565b60006020820190508181036000830152613ed181613e95565b9050919050565b7f596f7520617265206e6f74207065726d697474656420746f206368616e67652060008201527f7468652074617800000000000000000000000000000000000000000000000000602082015250565b6000613f34602783612fa2565b9150613f3f82613ed8565b604082019050919050565b60006020820190508181036000830152613f6381613f27565b9050919050565b7f596f752063616e6e6f74207365742061207461782061626f7665203330250000600082015250565b6000613fa0601e83612fa2565b9150613fab82613f6a565b602082019050919050565b60006020820190508181036000830152613fcf81613f93565b9050919050565b7f596f752063616e6e6f74207365742061207461782062656c6f77203025000000600082015250565b600061400c601d83612fa2565b915061401782613fd6565b602082019050919050565b6000602082019050818103600083015261403b81613fff565b9050919050565b7f4f6e6c7920746865206d756c746953696757616c6c65742063616e2072656d6f60008201527f76652050617774682e0000000000000000000000000000000000000000000000602082015250565b600061409e602983612fa2565b91506140a982614042565b604082019050919050565b600060208201905081810360008301526140cd81614091565b9050919050565b7f4f6e6c7920746865206d756c746953696757616c6c65742063616e2072656d6f60008201527f7665204574682e00000000000000000000000000000000000000000000000000602082015250565b6000614130602783612fa2565b915061413b826140d4565b604082019050919050565b6000602082019050818103600083015261415f81614123565b9050919050565b600081905092915050565b50565b6000614181600083614166565b915061418c82614171565b600082019050919050565b60006141a282614174565b9150819050919050565b7f5472616e73616374696f6e206661696c65642e00000000000000000000000000600082015250565b60006141e2601383612fa2565b91506141ed826141ac565b602082019050919050565b60006020820190508181036000830152614211816141d5565b9050919050565b7f466978656420737761707320617265206e6f7420656e61626c65642e00000000600082015250565b600061424e601c83612fa2565b915061425982614218565b602082019050919050565b6000602082019050818103600083015261427d81614241565b9050919050565b7f4e6f74207065726d697474656420746f206368616e676520666978656420537760008201527f617020526174652e000000000000000000000000000000000000000000000000602082015250565b60006142e0602883612fa2565b91506142eb82614284565b604082019050919050565b6000602082019050818103600083015261430f816142d3565b9050919050565b7f4e487b7100000000000000000000000000000000000000000000000000000000600052601160045260246000fd5b600061435082612f0a565b915061435b83612f0a565b9250827fffffffffffffffffffffffffffffffffffffffffffffffffffffffffffffffff038211156143905761438f614316565b5b828201905092915050565b60006143a682612f0a565b91506143b183612f0a565b9250817fffffffffffffffffffffffffffffffffffffffffffffffffffffffffffffffff04831182151516156143ea576143e9614316565b5b828202905092915050565b7f4e487b7100000000000000000000000000000000000000000000000000000000600052601260045260246000fd5b600061442f82612f0a565b915061443a83612f0a565b92508261444a576144496143f5565b5b82820490509291505056fea26469706673582212201a69590b19d65ef7209f602f9a6aa8a236c0a10b9f5f16f45e3da5a5d6857eeb64736f6c634300080e0033697066733a2f2f516d66463159777753765635766544314d797347424161446473366e426754557173337236684355736234586d522f30",
  "immutableReferences": {},
  "source": "pragma solidity ^0.8.0;\r\n\r\nimport '@openzeppelin/contracts/utils/math/SafeMath.sol';\r\nimport '@openzeppelin/contracts/token/ERC1155/extensions/ERC1155Supply.sol';\r\nimport '@openzeppelin/contracts/token/ERC1155/utils/ERC1155Holder.sol';\r\nimport '@openzeppelin/contracts/token/ERC20/IERC20.sol';\r\n\r\ncontract Swap is ERC1155Holder {\r\n    using SafeMath for uint256;\r\n    ERC1155Supply public founders;\r\n    IERC20 public pawth;\r\n    uint256 public foundersId = 0;\r\n    string public tokenURI = \"ipfs://QmfF1YwwSvV5veD1MysGBAaDds6nBgTUqs3r6hCUsb4XmR/0\";\r\n    bytes public tokenURIBytes = bytes(\"ipfs://QmfF1YwwSvV5veD1MysGBAaDds6nBgTUqs3r6hCUsb4XmR/0\");\r\n    // set a 10% claim tax (100 = 0% tax, and 125 = 25% tax, you can't set a tax below 0% or above 25%)\r\n    uint256 public pawthClaimTax = 110;\r\n    address public ownerWallet = 0x8E6a9e6F141BF9bd5A9a4318aD5458D1ad312939;\r\n    address public multiSigWallet = 0xA1924006401CaBEcC4EF4AB7542EeaA357449ed6;\r\n\r\n    // the totalSupply() from the founder's nft contract cannot be accessed. Hence, it will need to be manually updated every so often\r\n    //uint256 public manualNFTSupply = 30;\r\n\r\n    // Create two types of swaps: Variable and Fixed\r\n    // If variable is set to \"true\", the contract is designed to accumulate pawth over time\r\n    // If variable is set to \"fixed\", the contract has a fixed swap rate\r\n    bool public variableSwapRateOn = true;\r\n\r\n    // if a fixed swap rate is being used, specify the fixed swap rate\r\n    uint256 public fixedPawthSwapRate = 300000000000000;\r\n\r\n    // Can add a fixed swap rate tax\r\n    bool public fixedClaimTax = true;\r\n\r\n    constructor(ERC1155Supply _founders, IERC20 _pawth) public {\r\n        founders = _founders;\r\n        pawth = _pawth;\r\n    }\r\n\r\n    // sets the founders claim tax for a variableSwap\r\n    function setVariableClaimTax(uint256 tax) public {\r\n        require(msg.sender == ownerWallet || msg.sender == multiSigWallet, \"You are not permitted to change the tax\");\r\n        require(tax < 130, \"You cannot set a tax above 30%\");\r\n        require(tax >=100, \"You cannot set a tax below 0%\");\r\n        pawthClaimTax = tax;\r\n    }\r\n\r\n    // if set to true, contract designed to favor Pawth accumulation. if false, fixed swap rate is used.\r\n    function toggleSwapType(bool variableSwapIsOn) public {\r\n        require(msg.sender == ownerWallet || msg.sender == multiSigWallet, \"You are not permitted to call this function.\");\r\n        variableSwapRateOn = variableSwapIsOn;\r\n    }\r\n\r\n\r\n    // Change wallet addresses that have admin rights (can only be called by multisig)\r\n    function changeWalletAddresses(address newOwnerWallet, address newMultiSigWallet) public {\r\n        require(msg.sender == multiSigWallet, \"Only the multiSigWallet can change admin addresses\");\r\n        ownerWallet = newOwnerWallet;\r\n        multiSigWallet = newMultiSigWallet;\r\n    }\r\n\r\n    // transfer pawth out of the contract to the multiSigWallet (can only be called by multisig)\r\n    function transferPawthOut(uint256 pawthAmount) public {\r\n        require(msg.sender == multiSigWallet, \"Only the multiSigWallet can remove Pawth.\");\r\n        pawth.transfer(multiSigWallet, pawthAmount);\r\n    }\r\n\r\n    // transfer eth out in the event that there is eth stuck in the contract (can only be called by multisig)\r\n    function transferEthOut(bool sent, uint256 ethAmount) public payable {\r\n        require(msg.sender == multiSigWallet, \"Only the multiSigWallet can remove Eth.\");\r\n        multiSigWallet.call{value:ethAmount}(\"\");\r\n        require(sent, \"Transaction failed.\");\r\n    }\r\n\r\n    // create a function to transfer out founders nfts\r\n\r\n    // change the fixedPawthSwapRate\r\n    function toggleFixedSwapTax( bool fixedSwapTaxOn) public {\r\n        require(msg.sender == ownerWallet || msg.sender == multiSigWallet, \"Not permitted to change fixed Swap Rate.\");\r\n        fixedClaimTax = fixedSwapTaxOn;\r\n    }\r\n\r\n    function getCurrentFoundersForPawthRate(uint256 numberOfFoundersToSwap) public view returns(uint256) {\r\n\r\n        if (variableSwapRateOn == true) {\r\n        uint256 swapDivider = founders.totalSupply(foundersId).add(founders.balanceOf(address(this),0));\r\n\r\n        // calculate the amount of Pawth that they will receive\r\n        uint256 pawthAmountToSwap = numberOfFoundersToSwap.mul(pawth.balanceOf(address(this))).div(swapDivider);\r\n\r\n        return pawthAmountToSwap;\r\n\r\n        }\r\n\r\n        else {\r\n            uint256 pawthAmountToSwap = numberOfFoundersToSwap.mul(pawth.balanceOf(address(this))).div(founders.totalSupply(foundersId));\r\n            return pawthAmountToSwap;\r\n        }\r\n    }\r\n\r\n    function getCurrentPawthForFoundersRate(uint256 numberOfFoundersToSwap) public view returns(uint256) {\r\n\r\n        if (variableSwapRateOn == true) {\r\n            // calculate the exchange rate of Pawth for a founders\r\n        uint256 amountOfPawthRequired = numberOfFoundersToSwap.mul(pawth.balanceOf(address(this))).mul(pawthClaimTax).div(100).div(founders.totalSupply(foundersId));\r\n        \r\n        return amountOfPawthRequired;\r\n        }\r\n        else {\r\n            \r\n            if(fixedClaimTax == true) {\r\n                uint256 amountOfPawthToSend = numberOfFoundersToSwap.mul(pawth.balanceOf(address(this))).div(founders.totalSupply(foundersId)).mul(pawthClaimTax).div(100);\r\n                return amountOfPawthToSend;\r\n            }\r\n            else {\r\n                uint256 amountOfPawthToSend = numberOfFoundersToSwap.mul(pawth.balanceOf(address(this))).div(founders.totalSupply(foundersId));\r\n                return amountOfPawthToSend;\r\n            }\r\n        }\r\n    }\r\n\r\n    function swapFoundersForPawthVariable(uint256 numberOfFoundersToSwap) public {\r\n        // make sure variable swaps are enabled\r\n        require(variableSwapRateOn == true, \"Variable swaps are not enabled.\");\r\n\r\n\r\n        // make sure that the msg.sender has enough founders to swap\r\n        uint256 numberOfFoundersHeldBySender = founders.balanceOf(msg.sender,foundersId);\r\n\r\n        // require that the sender has enough founders tokens to swap\r\n        require(numberOfFoundersHeldBySender >= numberOfFoundersToSwap, \"You don't have enough founders tokens\");\r\n\r\n        // require that the number of founders entered is greater than 0 and less than 4\r\n        require(numberOfFoundersToSwap >0 && numberOfFoundersToSwap <4, \"You can swap more than 0 and less than 4 founders nfts\");\r\n\r\n        // the amount of pawth that can be withdrawn goes down as the number of nfts in the swap contract increases\r\n        // To do this, the swapDivider variable adds the number of founders NFTs in the contract to the denominator\r\n\r\n        uint256 totalSupply = founders.totalSupply(foundersId);\r\n\r\n        uint256 swapDivider = totalSupply.add(founders.balanceOf(address(this),foundersId));\r\n\r\n        // calculate the amount of Pawth that they will receive\r\n        uint256 pawthAmountToSwap = numberOfFoundersToSwap.mul(pawth.balanceOf(address(this))).div(swapDivider);\r\n\r\n        // make sure the pawth contract has enough tokens\r\n        require(pawth.balanceOf(address(this)) >= pawthAmountToSwap,\"The swap contract doesn't have enough Pawth\");\r\n\r\n        // transfer the founders token to the swap contact\r\n        founders.safeTransferFrom(msg.sender,address(this),foundersId,numberOfFoundersToSwap, tokenURIBytes);\r\n\r\n        // send the Pawth tokens to the msg.sender\r\n        pawth.transfer(msg.sender,pawthAmountToSwap);\r\n\r\n    }\r\n\r\n    function swapPawthForFoundersVariable(uint256 numberOfFoundersToClaim) public {\r\n\r\n        require(variableSwapRateOn == true, \"Variable swaps are not enabled.\");\r\n        // get the amount of pawth held by the sender\r\n        uint256 amountOfPawthHeldBySender = pawth.balanceOf(msg.sender);\r\n\r\n        // calculate the exchange rate of Pawth for a founders\r\n        uint256 amountOfPawthRequired = numberOfFoundersToClaim.mul(pawth.balanceOf(address(this))).mul(pawthClaimTax).div(100).div(founders.totalSupply(foundersId));\r\n\r\n        // make sure the msg.sender has enough pawth\r\n        require(amountOfPawthHeldBySender >= amountOfPawthRequired, \"You don't have enough Pawth\");\r\n\r\n        // make sure the contract has enough founders nfts\r\n        require(founders.balanceOf(address(this),foundersId)>= numberOfFoundersToClaim, \"The swap contract does not have enough founders NFTs\");\r\n\r\n        // make sure the person is trying to claim at least 1 founders nft\r\n\r\n        require(numberOfFoundersToClaim >0 && numberOfFoundersToClaim <4, \"You can claim more than 0 and less than 4 founders nfts\");\r\n\r\n        // send the pawth tokens to the swap contract\r\n\r\n        pawth.transferFrom(msg.sender,address(this),amountOfPawthRequired);\r\n\r\n        // send the founder's nfts to the sender\r\n\r\n        founders.safeTransferFrom(address(this),msg.sender, foundersId, numberOfFoundersToClaim, tokenURIBytes);\r\n    }\r\n\r\n    function swapFoundersForPawthFixed(uint256 numberOfFoundersToSwap) public {\r\n        require(variableSwapRateOn == false, \"Fixed swap rates are not enabled\");\r\n\r\n        // make sure that the msg.sender has enough founders to swap\r\n        uint256 numberOfFoundersHeldBySender = founders.balanceOf(msg.sender,foundersId);\r\n\r\n        // require that the sender has enough founders tokens to swap\r\n        require(numberOfFoundersHeldBySender >= numberOfFoundersToSwap, \"You don't have enough founders tokens\");\r\n\r\n        // require that the number of founders entered is greater than 0\r\n        require(numberOfFoundersToSwap >0 && numberOfFoundersToSwap < 4, \"You can swap more than 0 and up to 3 founders nfts\");\r\n\r\n        // calculate the amount of Pawth to send\r\n        uint256 amountOfPawthToSend = numberOfFoundersToSwap.mul(pawth.balanceOf(address(this))).div(founders.totalSupply(foundersId));\r\n\r\n        // make sure the pawth contract has enough tokens\r\n        require(pawth.balanceOf(address(this)) >= amountOfPawthToSend,\"The swap contract doesn't have enough Pawth\");\r\n\r\n        // transfer the founders token to the swap contact\r\n        founders.safeTransferFrom(msg.sender,address(this),foundersId,numberOfFoundersToSwap, tokenURIBytes);\r\n\r\n        // send the Pawth tokens to the msg.sender\r\n        pawth.transfer(msg.sender,amountOfPawthToSend);\r\n    \r\n    }\r\n\r\n    function swapPawthForFoundersFixed(uint256 numberOfFoundersToClaim) public {\r\n\r\n        require(variableSwapRateOn == false, \"Fixed swaps are not enabled.\");\r\n        // get the amount of pawth held by the sender\r\n        uint256 amountOfPawthHeldBySender = pawth.balanceOf(msg.sender);\r\n\r\n        // calculate the amount of Pawth to send\r\n        uint256 amountOfPawthToSend = numberOfFoundersToClaim.mul(pawth.balanceOf(address(this))).div(founders.totalSupply(foundersId));\r\n\r\n        // of fixedClaimTax == true, add a tax such that the Pawth contract accumulates Pawth\r\n\r\n        if (fixedClaimTax == true) {\r\n            amountOfPawthToSend = amountOfPawthToSend.mul(pawthClaimTax).div(100);\r\n        }\r\n\r\n        // make sure the msg.sender has enough pawth\r\n        require(amountOfPawthHeldBySender >= amountOfPawthToSend, \"You don't have enough Pawth\");\r\n\r\n        // make sure the contract has enough founders nfts\r\n        require(founders.balanceOf(address(this),foundersId)>= numberOfFoundersToClaim, \"The swap contract does not have enough founders NFTs\");\r\n\r\n        // make sure the person is trying to claim at least 1 founders nft\r\n\r\n        require(numberOfFoundersToClaim > 0 && numberOfFoundersToClaim < 4, \"You can swap more than 0 and up to 3 founders nfts\");\r\n\r\n        // send the pawth tokens to the swap contract\r\n\r\n        pawth.transferFrom(msg.sender,address(this),amountOfPawthToSend);\r\n\r\n        // send the founder's nfts to the sender\r\n\r\n        founders.safeTransferFrom(address(this),msg.sender, foundersId, numberOfFoundersToClaim, tokenURIBytes);\r\n    }\r\n\r\n}",
  "sourcePath": "C:\\Users\\kdmcg\\Documents\\practice_solidity\\defi_tutorial\\src\\contracts\\Swap.sol",
  "compiler": {
    "name": "solc",
    "version": "0.8.14+commit.80d49f37.Emscripten.clang"
  },
  "schemaVersion": "3.4.7",
  "updatedAt": "2022-06-11T23:46:27.275Z",
  "networkType": "ethereum",
  "devdoc": {
    "kind": "dev",
    "methods": {
      "supportsInterface(bytes4)": {
        "details": "See {IERC165-supportsInterface}."
      }
    },
    "version": 1
  },
  "userdoc": {
    "kind": "user",
    "methods": {},
    "version": 1
  }
}