{
  "contractName": "Swap",
  "abi": [
    {
      "inputs": [
        {
          "internalType": "contract IERC1155",
          "name": "_founders",
          "type": "address"
        },
        {
          "internalType": "contract IERC20",
          "name": "_pawth",
          "type": "address"
        }
      ],
      "stateMutability": "nonpayable",
      "type": "constructor"
    },
    {
      "inputs": [],
      "name": "fixedClaimTax",
      "outputs": [
        {
          "internalType": "bool",
          "name": "",
          "type": "bool"
        }
      ],
      "stateMutability": "view",
      "type": "function",
      "constant": true
    },
    {
      "inputs": [],
      "name": "fixedPawthSwapRate",
      "outputs": [
        {
          "internalType": "uint256",
          "name": "",
          "type": "uint256"
        }
      ],
      "stateMutability": "view",
      "type": "function",
      "constant": true
    },
    {
      "inputs": [],
      "name": "founders",
      "outputs": [
        {
          "internalType": "contract IERC1155",
          "name": "",
          "type": "address"
        }
      ],
      "stateMutability": "view",
      "type": "function",
      "constant": true
    },
    {
      "inputs": [],
      "name": "foundersId",
      "outputs": [
        {
          "internalType": "uint256",
          "name": "",
          "type": "uint256"
        }
      ],
      "stateMutability": "view",
      "type": "function",
      "constant": true
    },
    {
      "inputs": [],
      "name": "manualNFTSupply",
      "outputs": [
        {
          "internalType": "uint256",
          "name": "",
          "type": "uint256"
        }
      ],
      "stateMutability": "view",
      "type": "function",
      "constant": true
    },
    {
      "inputs": [],
      "name": "multiSigWallet",
      "outputs": [
        {
          "internalType": "address",
          "name": "",
          "type": "address"
        }
      ],
      "stateMutability": "view",
      "type": "function",
      "constant": true
    },
    {
      "inputs": [
        {
          "internalType": "address",
          "name": "",
          "type": "address"
        },
        {
          "internalType": "address",
          "name": "",
          "type": "address"
        },
        {
          "internalType": "uint256[]",
          "name": "",
          "type": "uint256[]"
        },
        {
          "internalType": "uint256[]",
          "name": "",
          "type": "uint256[]"
        },
        {
          "internalType": "bytes",
          "name": "",
          "type": "bytes"
        }
      ],
      "name": "onERC1155BatchReceived",
      "outputs": [
        {
          "internalType": "bytes4",
          "name": "",
          "type": "bytes4"
        }
      ],
      "stateMutability": "nonpayable",
      "type": "function"
    },
    {
      "inputs": [
        {
          "internalType": "address",
          "name": "",
          "type": "address"
        },
        {
          "internalType": "address",
          "name": "",
          "type": "address"
        },
        {
          "internalType": "uint256",
          "name": "",
          "type": "uint256"
        },
        {
          "internalType": "uint256",
          "name": "",
          "type": "uint256"
        },
        {
          "internalType": "bytes",
          "name": "",
          "type": "bytes"
        }
      ],
      "name": "onERC1155Received",
      "outputs": [
        {
          "internalType": "bytes4",
          "name": "",
          "type": "bytes4"
        }
      ],
      "stateMutability": "nonpayable",
      "type": "function"
    },
    {
      "inputs": [],
      "name": "ownerWallet",
      "outputs": [
        {
          "internalType": "address",
          "name": "",
          "type": "address"
        }
      ],
      "stateMutability": "view",
      "type": "function",
      "constant": true
    },
    {
      "inputs": [],
      "name": "pawth",
      "outputs": [
        {
          "internalType": "contract IERC20",
          "name": "",
          "type": "address"
        }
      ],
      "stateMutability": "view",
      "type": "function",
      "constant": true
    },
    {
      "inputs": [],
      "name": "pawthClaimTax",
      "outputs": [
        {
          "internalType": "uint256",
          "name": "",
          "type": "uint256"
        }
      ],
      "stateMutability": "view",
      "type": "function",
      "constant": true
    },
    {
      "inputs": [
        {
          "internalType": "bytes4",
          "name": "interfaceId",
          "type": "bytes4"
        }
      ],
      "name": "supportsInterface",
      "outputs": [
        {
          "internalType": "bool",
          "name": "",
          "type": "bool"
        }
      ],
      "stateMutability": "view",
      "type": "function",
      "constant": true
    },
    {
      "inputs": [],
      "name": "tokenURI",
      "outputs": [
        {
          "internalType": "string",
          "name": "",
          "type": "string"
        }
      ],
      "stateMutability": "view",
      "type": "function",
      "constant": true
    },
    {
      "inputs": [],
      "name": "tokenURIBytes",
      "outputs": [
        {
          "internalType": "bytes",
          "name": "",
          "type": "bytes"
        }
      ],
      "stateMutability": "view",
      "type": "function",
      "constant": true
    },
    {
      "inputs": [],
      "name": "variableSwapRateOn",
      "outputs": [
        {
          "internalType": "bool",
          "name": "",
          "type": "bool"
        }
      ],
      "stateMutability": "view",
      "type": "function",
      "constant": true
    },
    {
      "inputs": [
        {
          "internalType": "uint256",
          "name": "amount",
          "type": "uint256"
        }
      ],
      "name": "adjustNFTTotalSupply",
      "outputs": [],
      "stateMutability": "nonpayable",
      "type": "function"
    },
    {
      "inputs": [
        {
          "internalType": "uint256",
          "name": "tax",
          "type": "uint256"
        }
      ],
      "name": "setVariableClaimTax",
      "outputs": [],
      "stateMutability": "nonpayable",
      "type": "function"
    },
    {
      "inputs": [
        {
          "internalType": "bool",
          "name": "variableSwapIsOn",
          "type": "bool"
        }
      ],
      "name": "toggleSwapType",
      "outputs": [],
      "stateMutability": "nonpayable",
      "type": "function"
    },
    {
      "inputs": [
        {
          "internalType": "address",
          "name": "newOwnerWallet",
          "type": "address"
        },
        {
          "internalType": "address",
          "name": "newMultiSigWallet",
          "type": "address"
        }
      ],
      "name": "changeWalletAddresses",
      "outputs": [],
      "stateMutability": "nonpayable",
      "type": "function"
    },
    {
      "inputs": [
        {
          "internalType": "uint256",
          "name": "pawthAmount",
          "type": "uint256"
        }
      ],
      "name": "transferPawthOut",
      "outputs": [],
      "stateMutability": "nonpayable",
      "type": "function"
    },
    {
      "inputs": [
        {
          "internalType": "bool",
          "name": "sent",
          "type": "bool"
        },
        {
          "internalType": "uint256",
          "name": "ethAmount",
          "type": "uint256"
        }
      ],
      "name": "transferEthOut",
      "outputs": [],
      "stateMutability": "payable",
      "type": "function",
      "payable": true
    },
    {
      "inputs": [
        {
          "internalType": "uint256",
          "name": "amount",
          "type": "uint256"
        },
        {
          "internalType": "bool",
          "name": "fixedSwapTaxOn",
          "type": "bool"
        }
      ],
      "name": "setFixedSwapRate",
      "outputs": [],
      "stateMutability": "nonpayable",
      "type": "function"
    },
    {
      "inputs": [
        {
          "internalType": "uint256",
          "name": "numberOfFoundersToSwap",
          "type": "uint256"
        }
      ],
      "name": "getCurrentFoundersForPawthRate",
      "outputs": [
        {
          "internalType": "uint256",
          "name": "",
          "type": "uint256"
        }
      ],
      "stateMutability": "view",
      "type": "function",
      "constant": true
    },
    {
      "inputs": [
        {
          "internalType": "uint256",
          "name": "numberOfFoundersToSwap",
          "type": "uint256"
        }
      ],
      "name": "getCurrentPawthForFoundersRate",
      "outputs": [
        {
          "internalType": "uint256",
          "name": "",
          "type": "uint256"
        }
      ],
      "stateMutability": "view",
      "type": "function",
      "constant": true
    },
    {
      "inputs": [
        {
          "internalType": "uint256",
          "name": "numberOfFoundersToSwap",
          "type": "uint256"
        }
      ],
      "name": "swapFoundersForPawthVariable",
      "outputs": [],
      "stateMutability": "nonpayable",
      "type": "function"
    },
    {
      "inputs": [
        {
          "internalType": "uint256",
          "name": "numberOfFoundersToClaim",
          "type": "uint256"
        }
      ],
      "name": "swapPawthForFoundersVariable",
      "outputs": [],
      "stateMutability": "nonpayable",
      "type": "function"
    },
    {
      "inputs": [
        {
          "internalType": "uint256",
          "name": "numberOfFoundersToSwap",
          "type": "uint256"
        }
      ],
      "name": "swapFoundersForPawthFixed",
      "outputs": [],
      "stateMutability": "nonpayable",
      "type": "function"
    },
    {
      "inputs": [
        {
          "internalType": "uint256",
          "name": "numberOfFoundersToClaim",
          "type": "uint256"
        }
      ],
      "name": "swapPawthForFoundersFixed",
      "outputs": [],
      "stateMutability": "nonpayable",
      "type": "function"
    }
  ],
  "bytecode": "0x608060405260006002556040518060600160405280603781526020016200435760379139600390805190602001906200003a9291906200021e565b506040518060600160405280603781526020016200435760379139600490805190602001906200006c929190620002af565b50606e600555738e6a9e6f141bf9bd5a9a4318ad5458d1ad312939600660006101000a81548173ffffffffffffffffffffffffffffffffffffffff021916908373ffffffffffffffffffffffffffffffffffffffff16021790555073a1924006401cabecc4ef4ab7542eeaa357449ed6600760006101000a81548173ffffffffffffffffffffffffffffffffffffffff021916908373ffffffffffffffffffffffffffffffffffffffff160217905550601e6008556001600960006101000a81548160ff021916908315150217905550660110d9316ec000600a556001600b60006101000a81548160ff0219169083151502179055503480156200016f57600080fd5b506040516200438e3803806200438e833981810160405281019062000195919062000422565b816000806101000a81548173ffffffffffffffffffffffffffffffffffffffff021916908373ffffffffffffffffffffffffffffffffffffffff16021790555080600160006101000a81548173ffffffffffffffffffffffffffffffffffffffff021916908373ffffffffffffffffffffffffffffffffffffffff1602179055505050620004cd565b8280546200022c9062000498565b90600052602060002090601f0160209004810192826200025057600085556200029c565b82601f106200026b57805160ff19168380011785556200029c565b828001600101855582156200029c579182015b828111156200029b5782518255916020019190600101906200027e565b5b509050620002ab919062000340565b5090565b828054620002bd9062000498565b90600052602060002090601f016020900481019282620002e157600085556200032d565b82601f10620002fc57805160ff19168380011785556200032d565b828001600101855582156200032d579182015b828111156200032c5782518255916020019190600101906200030f565b5b5090506200033c919062000340565b5090565b5b808211156200035b57600081600090555060010162000341565b5090565b600080fd5b600073ffffffffffffffffffffffffffffffffffffffff82169050919050565b6000620003918262000364565b9050919050565b6000620003a58262000384565b9050919050565b620003b78162000398565b8114620003c357600080fd5b50565b600081519050620003d781620003ac565b92915050565b6000620003ea8262000384565b9050919050565b620003fc81620003dd565b81146200040857600080fd5b50565b6000815190506200041c81620003f1565b92915050565b600080604083850312156200043c576200043b6200035f565b5b60006200044c85828601620003c6565b92505060206200045f858286016200040b565b9150509250929050565b7f4e487b7100000000000000000000000000000000000000000000000000000000600052602260045260246000fd5b60006002820490506001821680620004b157607f821691505b602082108103620004c757620004c662000469565b5b50919050565b613e7a80620004dd6000396000f3fe6080604052600436106101b75760003560e01c80636bff1c87116100ec578063acc864b01161008a578063c3d8e25711610064578063c3d8e257146105fa578063e3b905dc14610616578063eb660caa14610641578063f23a6e611461066a576101b7565b8063acc864b014610567578063ba13787f14610592578063bc197c81146105bd576101b7565b806397f3dc6e116100c657806397f3dc6e146104ab5780639e99f140146104d6578063a498d99b14610501578063aa6c26241461053e576101b7565b80636bff1c871461042c5780636fff10a6146104575780639335dcb714610480576101b7565b8063411b007e116101595780634e76b028116101335780634e76b0281461038657806353a8d627146103b15780635c93e920146103da5780635e9236e814610403576101b7565b8063411b007e146103075780634a9a0607146103325780634b8feb4f1461035b576101b7565b80632d363f38116101955780632d363f381461024d57806339888d641461028a5780633a48fd7c146102b35780633c130d90146102dc576101b7565b806301ffc9a7146101bc5780630c943101146101f95780631f1629d114610224575b600080fd5b3480156101c857600080fd5b506101e360048036038101906101de91906127c4565b6106a7565b6040516101f0919061280c565b60405180910390f35b34801561020557600080fd5b5061020e610721565b60405161021b9190612840565b60405180910390f35b34801561023057600080fd5b5061024b60048036038101906102469190612887565b610727565b005b34801561025957600080fd5b50610274600480360381019061026f9190612887565b610863565b6040516102819190612840565b60405180910390f35b34801561029657600080fd5b506102b160048036038101906102ac9190612887565b610a25565b005b3480156102bf57600080fd5b506102da60048036038101906102d59190612887565b610eab565b005b3480156102e857600080fd5b506102f161125c565b6040516102fe919061294d565b60405180910390f35b34801561031357600080fd5b5061031c6112ea565b60405161032991906129ee565b60405180910390f35b34801561033e57600080fd5b5061035960048036038101906103549190612a35565b61130e565b005b34801561036757600080fd5b50610370611465565b60405161037d9190612a96565b60405180910390f35b34801561039257600080fd5b5061039b61148b565b6040516103a89190612b06565b60405180910390f35b3480156103bd57600080fd5b506103d860048036038101906103d39190612b28565b611519565b005b3480156103e657600080fd5b5061040160048036038101906103fc9190612b81565b61161e565b005b34801561040f57600080fd5b5061042a60048036038101906104259190612887565b611734565b005b34801561043857600080fd5b50610441611c45565b60405161044e9190612840565b60405180910390f35b34801561046357600080fd5b5061047e60048036038101906104799190612887565b611c4b565b005b34801561048c57600080fd5b50610495611dbd565b6040516104a29190612a96565b60405180910390f35b3480156104b757600080fd5b506104c0611de3565b6040516104cd919061280c565b60405180910390f35b3480156104e257600080fd5b506104eb611df6565b6040516104f8919061280c565b60405180910390f35b34801561050d57600080fd5b5061052860048036038101906105239190612887565b611e09565b6040516105359190612840565b60405180910390f35b34801561054a57600080fd5b5061056560048036038101906105609190612887565b611fa3565b005b34801561057357600080fd5b5061057c6120f9565b6040516105899190612840565b60405180910390f35b34801561059e57600080fd5b506105a76120ff565b6040516105b49190612be2565b60405180910390f35b3480156105c957600080fd5b506105e460048036038101906105df9190612dfa565b612125565b6040516105f19190612ed8565b60405180910390f35b610614600480360381019061060f9190612ef3565b61213a565b005b34801561062257600080fd5b5061062b612299565b6040516106389190612840565b60405180910390f35b34801561064d57600080fd5b5061066860048036038101906106639190612887565b61229f565b005b34801561067657600080fd5b50610691600480360381019061068c9190612f33565b612697565b60405161069e9190612ed8565b60405180910390f35b60007f4e2312e0000000000000000000000000000000000000000000000000000000007bffffffffffffffffffffffffffffffffffffffffffffffffffffffff1916827bffffffffffffffffffffffffffffffffffffffffffffffffffffffff1916148061071a5750610719826126ac565b5b9050919050565b600a5481565b600660009054906101000a900473ffffffffffffffffffffffffffffffffffffffff1673ffffffffffffffffffffffffffffffffffffffff163373ffffffffffffffffffffffffffffffffffffffff1614806107d05750600760009054906101000a900473ffffffffffffffffffffffffffffffffffffffff1673ffffffffffffffffffffffffffffffffffffffff163373ffffffffffffffffffffffffffffffffffffffff16145b61080f576040517f08c379a00000000000000000000000000000000000000000000000000000000081526004016108069061303c565b60405180910390fd5b600e8110158015610821575060638111155b610860576040517f08c379a0000000000000000000000000000000000000000000000000000000008152600401610857906130ce565b60405180910390fd5b50565b600060011515600960009054906101000a900460ff16151503610a0257600061093260008054906101000a900473ffffffffffffffffffffffffffffffffffffffff1673ffffffffffffffffffffffffffffffffffffffff1662fdd58e3060006040518363ffffffff1660e01b81526004016108e0929190613129565b602060405180830381865afa1580156108fd573d6000803e3d6000fd5b505050506040513d601f19601f820116820180604052508101906109219190613167565b60085461271690919063ffffffff16565b905060006109f6826109e8600160009054906101000a900473ffffffffffffffffffffffffffffffffffffffff1673ffffffffffffffffffffffffffffffffffffffff166370a08231306040518263ffffffff1660e01b81526004016109989190612a96565b602060405180830381865afa1580156109b5573d6000803e3d6000fd5b505050506040513d601f19601f820116820180604052508101906109d99190613167565b8761272c90919063ffffffff16565b61274290919063ffffffff16565b90508092505050610a20565b6000610a19600a548461272c90919063ffffffff16565b9050809150505b919050565b60011515600960009054906101000a900460ff16151514610a7b576040517f08c379a0000000000000000000000000000000000000000000000000000000008152600401610a72906131e0565b60405180910390fd5b6000600160009054906101000a900473ffffffffffffffffffffffffffffffffffffffff1673ffffffffffffffffffffffffffffffffffffffff166370a08231336040518263ffffffff1660e01b8152600401610ad89190612a96565b602060405180830381865afa158015610af5573d6000803e3d6000fd5b505050506040513d601f19601f82011682018060405250810190610b199190613167565b90506000610c06600854610bf86064610bea600554610bdc600160009054906101000a900473ffffffffffffffffffffffffffffffffffffffff1673ffffffffffffffffffffffffffffffffffffffff166370a08231306040518263ffffffff1660e01b8152600401610b8c9190612a96565b602060405180830381865afa158015610ba9573d6000803e3d6000fd5b505050506040513d601f19601f82011682018060405250810190610bcd9190613167565b8a61272c90919063ffffffff16565b61272c90919063ffffffff16565b61274290919063ffffffff16565b61274290919063ffffffff16565b905080821015610c4b576040517f08c379a0000000000000000000000000000000000000000000000000000000008152600401610c429061324c565b60405180910390fd5b8260008054906101000a900473ffffffffffffffffffffffffffffffffffffffff1673ffffffffffffffffffffffffffffffffffffffff1662fdd58e306002546040518363ffffffff1660e01b8152600401610ca892919061326c565b602060405180830381865afa158015610cc5573d6000803e3d6000fd5b505050506040513d601f19601f82011682018060405250810190610ce99190613167565b1015610d2a576040517f08c379a0000000000000000000000000000000000000000000000000000000008152600401610d2190613307565b60405180910390fd5b60008311610d6d576040517f08c379a0000000000000000000000000000000000000000000000000000000008152600401610d6490613399565b60405180910390fd5b600160009054906101000a900473ffffffffffffffffffffffffffffffffffffffff1673ffffffffffffffffffffffffffffffffffffffff166323b872dd3330846040518463ffffffff1660e01b8152600401610dcc939291906133b9565b6020604051808303816000875af1158015610deb573d6000803e3d6000fd5b505050506040513d601f19601f82011682018060405250810190610e0f9190613405565b5060008054906101000a900473ffffffffffffffffffffffffffffffffffffffff1673ffffffffffffffffffffffffffffffffffffffff1663f242432a30336002548760046040518663ffffffff1660e01b8152600401610e74959493929190613527565b600060405180830381600087803b158015610e8e57600080fd5b505af1158015610ea2573d6000803e3d6000fd5b50505050505050565b60001515600960009054906101000a900460ff16151514610f01576040517f08c379a0000000000000000000000000000000000000000000000000000000008152600401610ef8906135cd565b60405180910390fd5b60008060009054906101000a900473ffffffffffffffffffffffffffffffffffffffff1673ffffffffffffffffffffffffffffffffffffffff1662fdd58e336002546040518363ffffffff1660e01b8152600401610f6092919061326c565b602060405180830381865afa158015610f7d573d6000803e3d6000fd5b505050506040513d601f19601f82011682018060405250810190610fa19190613167565b905081811015610fe6576040517f08c379a0000000000000000000000000000000000000000000000000000000008152600401610fdd9061365f565b60405180910390fd5b60008211611029576040517f08c379a0000000000000000000000000000000000000000000000000000000008152600401611020906136f1565b60405180910390fd5b6000611040600a548461272c90919063ffffffff16565b905080600160009054906101000a900473ffffffffffffffffffffffffffffffffffffffff1673ffffffffffffffffffffffffffffffffffffffff166370a08231306040518263ffffffff1660e01b815260040161109e9190612a96565b602060405180830381865afa1580156110bb573d6000803e3d6000fd5b505050506040513d601f19601f820116820180604052508101906110df9190613167565b1015611120576040517f08c379a000000000000000000000000000000000000000000000000000000000815260040161111790613783565b60405180910390fd5b60008054906101000a900473ffffffffffffffffffffffffffffffffffffffff1673ffffffffffffffffffffffffffffffffffffffff1663f242432a33306002548760046040518663ffffffff1660e01b8152600401611184959493929190613527565b600060405180830381600087803b15801561119e57600080fd5b505af11580156111b2573d6000803e3d6000fd5b50505050600160009054906101000a900473ffffffffffffffffffffffffffffffffffffffff1673ffffffffffffffffffffffffffffffffffffffff1663a9059cbb33836040518363ffffffff1660e01b815260040161121392919061326c565b6020604051808303816000875af1158015611232573d6000803e3d6000fd5b505050506040513d601f19601f820116820180604052508101906112569190613405565b50505050565b6003805461126990613461565b80601f016020809104026020016040519081016040528092919081815260200182805461129590613461565b80156112e25780601f106112b7576101008083540402835291602001916112e2565b820191906000526020600020905b8154815290600101906020018083116112c557829003601f168201915b505050505081565b60008054906101000a900473ffffffffffffffffffffffffffffffffffffffff1681565b600660009054906101000a900473ffffffffffffffffffffffffffffffffffffffff1673ffffffffffffffffffffffffffffffffffffffff163373ffffffffffffffffffffffffffffffffffffffff1614806113b75750600760009054906101000a900473ffffffffffffffffffffffffffffffffffffffff1673ffffffffffffffffffffffffffffffffffffffff163373ffffffffffffffffffffffffffffffffffffffff16145b6113f6576040517f08c379a00000000000000000000000000000000000000000000000000000000081526004016113ed90613815565b60405180910390fd5b66038d7ea4c68000821115611440576040517f08c379a0000000000000000000000000000000000000000000000000000000008152600401611437906138a7565b60405180910390fd5b81600a8190555080600b60006101000a81548160ff0219169083151502179055505050565b600760009054906101000a900473ffffffffffffffffffffffffffffffffffffffff1681565b6004805461149890613461565b80601f01602080910402602001604051908101604052809291908181526020018280546114c490613461565b80156115115780601f106114e657610100808354040283529160200191611511565b820191906000526020600020905b8154815290600101906020018083116114f457829003601f168201915b505050505081565b600660009054906101000a900473ffffffffffffffffffffffffffffffffffffffff1673ffffffffffffffffffffffffffffffffffffffff163373ffffffffffffffffffffffffffffffffffffffff1614806115c25750600760009054906101000a900473ffffffffffffffffffffffffffffffffffffffff1673ffffffffffffffffffffffffffffffffffffffff163373ffffffffffffffffffffffffffffffffffffffff16145b611601576040517f08c379a00000000000000000000000000000000000000000000000000000000081526004016115f89061303c565b60405180910390fd5b80600960006101000a81548160ff02191690831515021790555050565b600760009054906101000a900473ffffffffffffffffffffffffffffffffffffffff1673ffffffffffffffffffffffffffffffffffffffff163373ffffffffffffffffffffffffffffffffffffffff16146116ae576040517f08c379a00000000000000000000000000000000000000000000000000000000081526004016116a590613939565b60405180910390fd5b81600660006101000a81548173ffffffffffffffffffffffffffffffffffffffff021916908373ffffffffffffffffffffffffffffffffffffffff16021790555080600760006101000a81548173ffffffffffffffffffffffffffffffffffffffff021916908373ffffffffffffffffffffffffffffffffffffffff1602179055505050565b60011515600960009054906101000a900460ff1615151461178a576040517f08c379a0000000000000000000000000000000000000000000000000000000008152600401611781906131e0565b60405180910390fd5b60008060009054906101000a900473ffffffffffffffffffffffffffffffffffffffff1673ffffffffffffffffffffffffffffffffffffffff1662fdd58e336002546040518363ffffffff1660e01b81526004016117e992919061326c565b602060405180830381865afa158015611806573d6000803e3d6000fd5b505050506040513d601f19601f8201168201806040525081019061182a9190613167565b90508181101561186f576040517f08c379a00000000000000000000000000000000000000000000000000000000081526004016118669061365f565b60405180910390fd5b600082116118b2576040517f08c379a00000000000000000000000000000000000000000000000000000000081526004016118a9906136f1565b60405180910390fd5b600061196460008054906101000a900473ffffffffffffffffffffffffffffffffffffffff1673ffffffffffffffffffffffffffffffffffffffff1662fdd58e3060006040518363ffffffff1660e01b8152600401611912929190613129565b602060405180830381865afa15801561192f573d6000803e3d6000fd5b505050506040513d601f19601f820116820180604052508101906119539190613167565b60085461271690919063ffffffff16565b90506000611a2882611a1a600160009054906101000a900473ffffffffffffffffffffffffffffffffffffffff1673ffffffffffffffffffffffffffffffffffffffff166370a08231306040518263ffffffff1660e01b81526004016119ca9190612a96565b602060405180830381865afa1580156119e7573d6000803e3d6000fd5b505050506040513d601f19601f82011682018060405250810190611a0b9190613167565b8761272c90919063ffffffff16565b61274290919063ffffffff16565b905080600160009054906101000a900473ffffffffffffffffffffffffffffffffffffffff1673ffffffffffffffffffffffffffffffffffffffff166370a08231306040518263ffffffff1660e01b8152600401611a869190612a96565b602060405180830381865afa158015611aa3573d6000803e3d6000fd5b505050506040513d601f19601f82011682018060405250810190611ac79190613167565b1015611b08576040517f08c379a0000000000000000000000000000000000000000000000000000000008152600401611aff90613783565b60405180910390fd5b60008054906101000a900473ffffffffffffffffffffffffffffffffffffffff1673ffffffffffffffffffffffffffffffffffffffff1663f242432a33306002548860046040518663ffffffff1660e01b8152600401611b6c959493929190613527565b600060405180830381600087803b158015611b8657600080fd5b505af1158015611b9a573d6000803e3d6000fd5b50505050600160009054906101000a900473ffffffffffffffffffffffffffffffffffffffff1673ffffffffffffffffffffffffffffffffffffffff1663a9059cbb33836040518363ffffffff1660e01b8152600401611bfb92919061326c565b6020604051808303816000875af1158015611c1a573d6000803e3d6000fd5b505050506040513d601f19601f82011682018060405250810190611c3e9190613405565b5050505050565b60085481565b600660009054906101000a900473ffffffffffffffffffffffffffffffffffffffff1673ffffffffffffffffffffffffffffffffffffffff163373ffffffffffffffffffffffffffffffffffffffff161480611cf45750600760009054906101000a900473ffffffffffffffffffffffffffffffffffffffff1673ffffffffffffffffffffffffffffffffffffffff163373ffffffffffffffffffffffffffffffffffffffff16145b611d33576040517f08c379a0000000000000000000000000000000000000000000000000000000008152600401611d2a906139cb565b60405180910390fd5b60828110611d76576040517f08c379a0000000000000000000000000000000000000000000000000000000008152600401611d6d90613a37565b60405180910390fd5b6064811015611dba576040517f08c379a0000000000000000000000000000000000000000000000000000000008152600401611db190613aa3565b60405180910390fd5b50565b600660009054906101000a900473ffffffffffffffffffffffffffffffffffffffff1681565b600960009054906101000a900460ff1681565b600b60009054906101000a900460ff1681565b600060011515600960009054906101000a900460ff16151503611f1c576000611f11600854611f036064611ef5600554611ee7600160009054906101000a900473ffffffffffffffffffffffffffffffffffffffff1673ffffffffffffffffffffffffffffffffffffffff166370a08231306040518263ffffffff1660e01b8152600401611e979190612a96565b602060405180830381865afa158015611eb4573d6000803e3d6000fd5b505050506040513d601f19601f82011682018060405250810190611ed89190613167565b8a61272c90919063ffffffff16565b61272c90919063ffffffff16565b61274290919063ffffffff16565b61274290919063ffffffff16565b905080915050611f9e565b60011515600b60009054906101000a900460ff16151503611f80576000611f756064611f67600554611f59600a548861272c90919063ffffffff16565b61272c90919063ffffffff16565b61274290919063ffffffff16565b905080915050611f9e565b6000611f97600a548461272c90919063ffffffff16565b9050809150505b919050565b600760009054906101000a900473ffffffffffffffffffffffffffffffffffffffff1673ffffffffffffffffffffffffffffffffffffffff163373ffffffffffffffffffffffffffffffffffffffff1614612033576040517f08c379a000000000000000000000000000000000000000000000000000000000815260040161202a90613b35565b60405180910390fd5b600160009054906101000a900473ffffffffffffffffffffffffffffffffffffffff1673ffffffffffffffffffffffffffffffffffffffff1663a9059cbb600760009054906101000a900473ffffffffffffffffffffffffffffffffffffffff16836040518363ffffffff1660e01b81526004016120b292919061326c565b6020604051808303816000875af11580156120d1573d6000803e3d6000fd5b505050506040513d601f19601f820116820180604052508101906120f59190613405565b5050565b60025481565b600160009054906101000a900473ffffffffffffffffffffffffffffffffffffffff1681565b600063bc197c8160e01b905095945050505050565b600760009054906101000a900473ffffffffffffffffffffffffffffffffffffffff1673ffffffffffffffffffffffffffffffffffffffff163373ffffffffffffffffffffffffffffffffffffffff16146121ca576040517f08c379a00000000000000000000000000000000000000000000000000000000081526004016121c190613bc7565b60405180910390fd5b600760009054906101000a900473ffffffffffffffffffffffffffffffffffffffff1673ffffffffffffffffffffffffffffffffffffffff168160405161221090613c18565b60006040518083038185875af1925050503d806000811461224d576040519150601f19603f3d011682016040523d82523d6000602084013e612252565b606091505b50505081612295576040517f08c379a000000000000000000000000000000000000000000000000000000000815260040161228c90613c79565b60405180910390fd5b5050565b60055481565b60001515600960009054906101000a900460ff161515146122f5576040517f08c379a00000000000000000000000000000000000000000000000000000000081526004016122ec90613ce5565b60405180910390fd5b6000600160009054906101000a900473ffffffffffffffffffffffffffffffffffffffff1673ffffffffffffffffffffffffffffffffffffffff166370a08231336040518263ffffffff1660e01b81526004016123529190612a96565b602060405180830381865afa15801561236f573d6000803e3d6000fd5b505050506040513d601f19601f820116820180604052508101906123939190613167565b905060006123ac600a548461272c90919063ffffffff16565b905060011515600b60009054906101000a900460ff161515036123f4576123f160646123e36005548461272c90919063ffffffff16565b61274290919063ffffffff16565b90505b80821015612437576040517f08c379a000000000000000000000000000000000000000000000000000000000815260040161242e9061324c565b60405180910390fd5b8260008054906101000a900473ffffffffffffffffffffffffffffffffffffffff1673ffffffffffffffffffffffffffffffffffffffff1662fdd58e306002546040518363ffffffff1660e01b815260040161249492919061326c565b602060405180830381865afa1580156124b1573d6000803e3d6000fd5b505050506040513d601f19601f820116820180604052508101906124d59190613167565b1015612516576040517f08c379a000000000000000000000000000000000000000000000000000000000815260040161250d90613307565b60405180910390fd5b60008311612559576040517f08c379a000000000000000000000000000000000000000000000000000000000815260040161255090613399565b60405180910390fd5b600160009054906101000a900473ffffffffffffffffffffffffffffffffffffffff1673ffffffffffffffffffffffffffffffffffffffff166323b872dd3330846040518463ffffffff1660e01b81526004016125b8939291906133b9565b6020604051808303816000875af11580156125d7573d6000803e3d6000fd5b505050506040513d601f19601f820116820180604052508101906125fb9190613405565b5060008054906101000a900473ffffffffffffffffffffffffffffffffffffffff1673ffffffffffffffffffffffffffffffffffffffff1663f242432a30336002548760046040518663ffffffff1660e01b8152600401612660959493929190613527565b600060405180830381600087803b15801561267a57600080fd5b505af115801561268e573d6000803e3d6000fd5b50505050505050565b600063f23a6e6160e01b905095945050505050565b60007f01ffc9a7000000000000000000000000000000000000000000000000000000007bffffffffffffffffffffffffffffffffffffffffffffffffffffffff1916827bffffffffffffffffffffffffffffffffffffffffffffffffffffffff1916149050919050565b600081836127249190613d34565b905092915050565b6000818361273a9190613d8a565b905092915050565b600081836127509190613e13565b905092915050565b6000604051905090565b600080fd5b600080fd5b60007fffffffff0000000000000000000000000000000000000000000000000000000082169050919050565b6127a18161276c565b81146127ac57600080fd5b50565b6000813590506127be81612798565b92915050565b6000602082840312156127da576127d9612762565b5b60006127e8848285016127af565b91505092915050565b60008115159050919050565b612806816127f1565b82525050565b600060208201905061282160008301846127fd565b92915050565b6000819050919050565b61283a81612827565b82525050565b60006020820190506128556000830184612831565b92915050565b61286481612827565b811461286f57600080fd5b50565b6000813590506128818161285b565b92915050565b60006020828403121561289d5761289c612762565b5b60006128ab84828501612872565b91505092915050565b600081519050919050565b600082825260208201905092915050565b60005b838110156128ee5780820151818401526020810190506128d3565b838111156128fd576000848401525b50505050565b6000601f19601f8301169050919050565b600061291f826128b4565b61292981856128bf565b93506129398185602086016128d0565b61294281612903565b840191505092915050565b600060208201905081810360008301526129678184612914565b905092915050565b600073ffffffffffffffffffffffffffffffffffffffff82169050919050565b6000819050919050565b60006129b46129af6129aa8461296f565b61298f565b61296f565b9050919050565b60006129c682612999565b9050919050565b60006129d8826129bb565b9050919050565b6129e8816129cd565b82525050565b6000602082019050612a0360008301846129df565b92915050565b612a12816127f1565b8114612a1d57600080fd5b50565b600081359050612a2f81612a09565b92915050565b60008060408385031215612a4c57612a4b612762565b5b6000612a5a85828601612872565b9250506020612a6b85828601612a20565b9150509250929050565b6000612a808261296f565b9050919050565b612a9081612a75565b82525050565b6000602082019050612aab6000830184612a87565b92915050565b600081519050919050565b600082825260208201905092915050565b6000612ad882612ab1565b612ae28185612abc565b9350612af28185602086016128d0565b612afb81612903565b840191505092915050565b60006020820190508181036000830152612b208184612acd565b905092915050565b600060208284031215612b3e57612b3d612762565b5b6000612b4c84828501612a20565b91505092915050565b612b5e81612a75565b8114612b6957600080fd5b50565b600081359050612b7b81612b55565b92915050565b60008060408385031215612b9857612b97612762565b5b6000612ba685828601612b6c565b9250506020612bb785828601612b6c565b9150509250929050565b6000612bcc826129bb565b9050919050565b612bdc81612bc1565b82525050565b6000602082019050612bf76000830184612bd3565b92915050565b600080fd5b7f4e487b7100000000000000000000000000000000000000000000000000000000600052604160045260246000fd5b612c3a82612903565b810181811067ffffffffffffffff82111715612c5957612c58612c02565b5b80604052505050565b6000612c6c612758565b9050612c788282612c31565b919050565b600067ffffffffffffffff821115612c9857612c97612c02565b5b602082029050602081019050919050565b600080fd5b6000612cc1612cbc84612c7d565b612c62565b90508083825260208201905060208402830185811115612ce457612ce3612ca9565b5b835b81811015612d0d5780612cf98882612872565b845260208401935050602081019050612ce6565b5050509392505050565b600082601f830112612d2c57612d2b612bfd565b5b8135612d3c848260208601612cae565b91505092915050565b600080fd5b600067ffffffffffffffff821115612d6557612d64612c02565b5b612d6e82612903565b9050602081019050919050565b82818337600083830152505050565b6000612d9d612d9884612d4a565b612c62565b905082815260208101848484011115612db957612db8612d45565b5b612dc4848285612d7b565b509392505050565b600082601f830112612de157612de0612bfd565b5b8135612df1848260208601612d8a565b91505092915050565b600080600080600060a08688031215612e1657612e15612762565b5b6000612e2488828901612b6c565b9550506020612e3588828901612b6c565b945050604086013567ffffffffffffffff811115612e5657612e55612767565b5b612e6288828901612d17565b935050606086013567ffffffffffffffff811115612e8357612e82612767565b5b612e8f88828901612d17565b925050608086013567ffffffffffffffff811115612eb057612eaf612767565b5b612ebc88828901612dcc565b9150509295509295909350565b612ed28161276c565b82525050565b6000602082019050612eed6000830184612ec9565b92915050565b60008060408385031215612f0a57612f09612762565b5b6000612f1885828601612a20565b9250506020612f2985828601612872565b9150509250929050565b600080600080600060a08688031215612f4f57612f4e612762565b5b6000612f5d88828901612b6c565b9550506020612f6e88828901612b6c565b9450506040612f7f88828901612872565b9350506060612f9088828901612872565b925050608086013567ffffffffffffffff811115612fb157612fb0612767565b5b612fbd88828901612dcc565b9150509295509295909350565b7f596f7520617265206e6f74207065726d697474656420746f2063616c6c20746860008201527f69732066756e6374696f6e2e0000000000000000000000000000000000000000602082015250565b6000613026602c836128bf565b915061303182612fca565b604082019050919050565b6000602082019050818103600083015261305581613019565b9050919050565b7f596f752063616e6e6f74207365742074686520746f74616c537570706c79206260008201527f65796f6e6420746869732072616e676500000000000000000000000000000000602082015250565b60006130b86030836128bf565b91506130c38261305c565b604082019050919050565b600060208201905081810360008301526130e7816130ab565b9050919050565b6000819050919050565b600061311361310e613109846130ee565b61298f565b612827565b9050919050565b613123816130f8565b82525050565b600060408201905061313e6000830185612a87565b61314b602083018461311a565b9392505050565b6000815190506131618161285b565b92915050565b60006020828403121561317d5761317c612762565b5b600061318b84828501613152565b91505092915050565b7f5661726961626c6520737761707320617265206e6f7420656e61626c65642e00600082015250565b60006131ca601f836128bf565b91506131d582613194565b602082019050919050565b600060208201905081810360008301526131f9816131bd565b9050919050565b7f596f7520646f6e2774206861766520656e6f7567682050617774680000000000600082015250565b6000613236601b836128bf565b915061324182613200565b602082019050919050565b6000602082019050818103600083015261326581613229565b9050919050565b60006040820190506132816000830185612a87565b61328e6020830184612831565b9392505050565b7f546865207377617020636f6e747261637420646f6573206e6f7420686176652060008201527f656e6f75676820666f756e64657273204e465473000000000000000000000000602082015250565b60006132f16034836128bf565b91506132fc82613295565b604082019050919050565b60006020820190508181036000830152613320816132e4565b9050919050565b7f596f75206e65656420746f20636c61696d206174206c65617374203120666f7560008201527f6e64657273000000000000000000000000000000000000000000000000000000602082015250565b60006133836025836128bf565b915061338e82613327565b604082019050919050565b600060208201905081810360008301526133b281613376565b9050919050565b60006060820190506133ce6000830186612a87565b6133db6020830185612a87565b6133e86040830184612831565b949350505050565b6000815190506133ff81612a09565b92915050565b60006020828403121561341b5761341a612762565b5b6000613429848285016133f0565b91505092915050565b7f4e487b7100000000000000000000000000000000000000000000000000000000600052602260045260246000fd5b6000600282049050600182168061347957607f821691505b60208210810361348c5761348b613432565b5b50919050565b60008190508160005260206000209050919050565b600081546134b481613461565b6134be8186612abc565b945060018216600081146134d957600181146134eb5761351e565b60ff198316865260208601935061351e565b6134f485613492565b60005b83811015613516578154818901526001820191506020810190506134f7565b808801955050505b50505092915050565b600060a08201905061353c6000830188612a87565b6135496020830187612a87565b6135566040830186612831565b6135636060830185612831565b818103608083015261357581846134a7565b90509695505050505050565b7f4669786564207377617020726174657320617265206e6f7420656e61626c6564600082015250565b60006135b76020836128bf565b91506135c282613581565b602082019050919050565b600060208201905081810360008301526135e6816135aa565b9050919050565b7f596f7520646f6e2774206861766520656e6f75676820666f756e64657273207460008201527f6f6b656e73000000000000000000000000000000000000000000000000000000602082015250565b60006136496025836128bf565b9150613654826135ed565b604082019050919050565b600060208201905081810360008301526136788161363c565b9050919050565b7f596f75206e65656420746f2073776170206d6f7265207468616e203020666f7560008201527f6e64657273206e66747300000000000000000000000000000000000000000000602082015250565b60006136db602a836128bf565b91506136e68261367f565b604082019050919050565b6000602082019050818103600083015261370a816136ce565b9050919050565b7f546865207377617020636f6e747261637420646f65736e27742068617665206560008201527f6e6f756768205061777468000000000000000000000000000000000000000000602082015250565b600061376d602b836128bf565b915061377882613711565b604082019050919050565b6000602082019050818103600083015261379c81613760565b9050919050565b7f4e6f74207065726d697474656420746f206368616e676520666978656420537760008201527f617020526174652e000000000000000000000000000000000000000000000000602082015250565b60006137ff6028836128bf565b915061380a826137a3565b604082019050919050565b6000602082019050818103600083015261382e816137f2565b9050919050565b7f5377617020726174652063616e2774206265207365742074686174206869676860008201527f2e00000000000000000000000000000000000000000000000000000000000000602082015250565b60006138916021836128bf565b915061389c82613835565b604082019050919050565b600060208201905081810360008301526138c081613884565b9050919050565b7f4f6e6c7920746865206d756c746953696757616c6c65742063616e206368616e60008201527f67652061646d696e206164647265737365730000000000000000000000000000602082015250565b60006139236032836128bf565b915061392e826138c7565b604082019050919050565b6000602082019050818103600083015261395281613916565b9050919050565b7f596f7520617265206e6f74207065726d697474656420746f206368616e67652060008201527f7468652074617800000000000000000000000000000000000000000000000000602082015250565b60006139b56027836128bf565b91506139c082613959565b604082019050919050565b600060208201905081810360008301526139e4816139a8565b9050919050565b7f596f752063616e6e6f74207365742061207461782061626f7665203330250000600082015250565b6000613a21601e836128bf565b9150613a2c826139eb565b602082019050919050565b60006020820190508181036000830152613a5081613a14565b9050919050565b7f596f752063616e6e6f74207365742061207461782062656c6f77203025000000600082015250565b6000613a8d601d836128bf565b9150613a9882613a57565b602082019050919050565b60006020820190508181036000830152613abc81613a80565b9050919050565b7f4f6e6c7920746865206d756c746953696757616c6c65742063616e2072656d6f60008201527f76652050617774682e0000000000000000000000000000000000000000000000602082015250565b6000613b1f6029836128bf565b9150613b2a82613ac3565b604082019050919050565b60006020820190508181036000830152613b4e81613b12565b9050919050565b7f4f6e6c7920746865206d756c746953696757616c6c65742063616e2072656d6f60008201527f7665204574682e00000000000000000000000000000000000000000000000000602082015250565b6000613bb16027836128bf565b9150613bbc82613b55565b604082019050919050565b60006020820190508181036000830152613be081613ba4565b9050919050565b600081905092915050565b50565b6000613c02600083613be7565b9150613c0d82613bf2565b600082019050919050565b6000613c2382613bf5565b9150819050919050565b7f5472616e73616374696f6e206661696c65642e00000000000000000000000000600082015250565b6000613c636013836128bf565b9150613c6e82613c2d565b602082019050919050565b60006020820190508181036000830152613c9281613c56565b9050919050565b7f466978656420737761707320617265206e6f7420656e61626c65642e00000000600082015250565b6000613ccf601c836128bf565b9150613cda82613c99565b602082019050919050565b60006020820190508181036000830152613cfe81613cc2565b9050919050565b7f4e487b7100000000000000000000000000000000000000000000000000000000600052601160045260246000fd5b6000613d3f82612827565b9150613d4a83612827565b9250827fffffffffffffffffffffffffffffffffffffffffffffffffffffffffffffffff03821115613d7f57613d7e613d05565b5b828201905092915050565b6000613d9582612827565b9150613da083612827565b9250817fffffffffffffffffffffffffffffffffffffffffffffffffffffffffffffffff0483118215151615613dd957613dd8613d05565b5b828202905092915050565b7f4e487b7100000000000000000000000000000000000000000000000000000000600052601260045260246000fd5b6000613e1e82612827565b9150613e2983612827565b925082613e3957613e38613de4565b5b82820490509291505056fea26469706673582212202cb53f2876e1f702d1c9f2d8832ce279b2beddc74adc5a776f0d747d531dfd3364736f6c634300080e0033697066733a2f2f516d66463159777753765635766544314d797347424161446473366e426754557173337236684355736234586d522f30",
  "immutableReferences": {},
  "source": "pragma solidity ^0.8.0;\r\n\r\nimport '@openzeppelin/contracts/utils/math/SafeMath.sol';\r\nimport '@openzeppelin/contracts/token/ERC1155/IERC1155.sol';\r\nimport '@openzeppelin/contracts/token/ERC1155/utils/ERC1155Holder.sol';\r\nimport '@openzeppelin/contracts/token/ERC20/IERC20.sol';\r\n\r\ncontract Swap is ERC1155Holder {\r\n    using SafeMath for uint256;\r\n    IERC1155 public founders;\r\n    IERC20 public pawth;\r\n    uint256 public foundersId = 0;\r\n    string public tokenURI = \"ipfs://QmfF1YwwSvV5veD1MysGBAaDds6nBgTUqs3r6hCUsb4XmR/0\";\r\n    bytes public tokenURIBytes = bytes(\"ipfs://QmfF1YwwSvV5veD1MysGBAaDds6nBgTUqs3r6hCUsb4XmR/0\");\r\n    // set a 10% claim tax (100 = 0% tax, and 125 = 25% tax, you can't set a tax below 0% or above 25%)\r\n    uint256 public pawthClaimTax = 110;\r\n    address public ownerWallet = 0x8E6a9e6F141BF9bd5A9a4318aD5458D1ad312939;\r\n    address public multiSigWallet = 0xA1924006401CaBEcC4EF4AB7542EeaA357449ed6;\r\n\r\n    // the totalSupply() from the founder's nft contract cannot be accessed. Hence, it will need to be manually updated every so often\r\n    uint256 public manualNFTSupply = 30;\r\n\r\n    // Create two types of swaps: Variable and Fixed\r\n    // If variable is set to \"true\", the contract is designed to accumulate pawth over time\r\n    // If variable is set to \"fixed\", the contract has a fixed swap rate, and might accumulate pawth with reflections and dev wallet additions\r\n    bool public variableSwapRateOn = true;\r\n\r\n    // if a fixed swap rate is being used, specify the fixed swap rate\r\n    uint256 public fixedPawthSwapRate = 300000000000000;\r\n\r\n    // Can add a fixed swap rate tax\r\n    bool public fixedClaimTax = true;\r\n\r\n    constructor(IERC1155 _founders, IERC20 _pawth) public {\r\n        founders = _founders;\r\n        pawth = _pawth;\r\n    }\r\n\r\n    // manually adjust the total supply as more tokens are minted (cannot exceed 99 in total)\r\n    function adjustNFTTotalSupply(uint256 amount) public {\r\n        require(msg.sender == ownerWallet || msg.sender == multiSigWallet, \"You are not permitted to call this function.\");\r\n        require(amount >=14 && amount <=99, \"You cannot set the totalSupply beyond this range\");\r\n    } \r\n\r\n    // sets the founders claim tax for a variableSwap\r\n    function setVariableClaimTax(uint256 tax) public {\r\n        require(msg.sender == ownerWallet || msg.sender == multiSigWallet, \"You are not permitted to change the tax\");\r\n        require(tax < 130, \"You cannot set a tax above 30%\");\r\n        require(tax >=100, \"You cannot set a tax below 0%\");\r\n    }\r\n\r\n    // if set to true, contract designed to favor Pawth accumulation. if false, fixed swap rate is used.\r\n    function toggleSwapType(bool variableSwapIsOn) public {\r\n        require(msg.sender == ownerWallet || msg.sender == multiSigWallet, \"You are not permitted to call this function.\");\r\n        variableSwapRateOn = variableSwapIsOn;\r\n    }\r\n\r\n\r\n    // Change wallet addresses that have admin rights (can only be called by multisig)\r\n    function changeWalletAddresses(address newOwnerWallet, address newMultiSigWallet) public {\r\n        require(msg.sender == multiSigWallet, \"Only the multiSigWallet can change admin addresses\");\r\n        ownerWallet = newOwnerWallet;\r\n        multiSigWallet = newMultiSigWallet;\r\n    }\r\n\r\n    // transfer pawth out of the contract to the multiSigWallet (can only be called by multisig)\r\n    function transferPawthOut(uint256 pawthAmount) public {\r\n        require(msg.sender == multiSigWallet, \"Only the multiSigWallet can remove Pawth.\");\r\n        pawth.transfer(multiSigWallet, pawthAmount);\r\n    }\r\n\r\n    // transfer eth out in the event that there is eth stuck in the contract (can only be called by multisig)\r\n    function transferEthOut(bool sent, uint256 ethAmount) public payable {\r\n        require(msg.sender == multiSigWallet, \"Only the multiSigWallet can remove Eth.\");\r\n        multiSigWallet.call{value:ethAmount}(\"\");\r\n        require(sent, \"Transaction failed.\");\r\n    }\r\n\r\n    // change the fixedPawthSwapRate\r\n    function setFixedSwapRate(uint256 amount, bool fixedSwapTaxOn) public {\r\n        require(msg.sender == ownerWallet || msg.sender == multiSigWallet, \"Not permitted to change fixed Swap Rate.\");\r\n        // fixedPawthSwapRate cannot exceed 1 million Pawth\r\n        require(amount <= 1000000000000000, \"Swap rate can't be set that high.\");\r\n        fixedPawthSwapRate = amount;\r\n        // set whether the fixed claim tax is on\r\n        fixedClaimTax = fixedSwapTaxOn;\r\n    }\r\n\r\n    function getCurrentFoundersForPawthRate(uint256 numberOfFoundersToSwap) public view returns(uint256) {\r\n\r\n        if (variableSwapRateOn == true) {\r\n        uint256 swapDivider = manualNFTSupply.add(founders.balanceOf(address(this),0));\r\n\r\n        // calculate the amount of Pawth that they will receive\r\n        uint256 pawthAmountToSwap = numberOfFoundersToSwap.mul(pawth.balanceOf(address(this))).div(swapDivider);\r\n\r\n        return pawthAmountToSwap;\r\n\r\n        }\r\n\r\n        else {\r\n            uint256 pawthAmountToSwap = numberOfFoundersToSwap.mul(fixedPawthSwapRate);\r\n            return pawthAmountToSwap;\r\n        }\r\n    }\r\n\r\n    function getCurrentPawthForFoundersRate(uint256 numberOfFoundersToSwap) public view returns(uint256) {\r\n\r\n        if (variableSwapRateOn == true) {\r\n            // calculate the exchange rate of Pawth for a founders\r\n        uint256 amountOfPawthRequired = numberOfFoundersToSwap.mul(pawth.balanceOf(address(this))).mul(pawthClaimTax).div(100).div(manualNFTSupply);\r\n        \r\n        return amountOfPawthRequired;\r\n        }\r\n\r\n        else {\r\n            \r\n            if(fixedClaimTax == true) {\r\n                uint256 amountOfPawthToSend = numberOfFoundersToSwap.mul(fixedPawthSwapRate).mul(pawthClaimTax).div(100);\r\n                return amountOfPawthToSend;\r\n            }\r\n            else {\r\n                uint256 amountOfPawthToSend = numberOfFoundersToSwap.mul(fixedPawthSwapRate);\r\n                return amountOfPawthToSend;\r\n            }\r\n\r\n\r\n        }\r\n        \r\n\r\n    \r\n    }\r\n\r\n    function swapFoundersForPawthVariable(uint256 numberOfFoundersToSwap) public {\r\n\r\n        require(variableSwapRateOn == true, \"Variable swaps are not enabled.\");\r\n        // make sure that the msg.sender has enough founders to swap\r\n        uint256 numberOfFoundersHeldBySender = founders.balanceOf(msg.sender,foundersId);\r\n\r\n        // require that the sender has enough founders tokens to swap\r\n        require(numberOfFoundersHeldBySender >= numberOfFoundersToSwap, \"You don't have enough founders tokens\");\r\n\r\n        // require that the number of founders entered is greater than 0\r\n        require(numberOfFoundersToSwap >0, \"You need to swap more than 0 founders nfts\");\r\n\r\n        // the amount of pawth that can be withdrawn goes down as the number of nfts in the swap contract increases\r\n        // To do this, the swapDivider variable adds the number of founders NFTs in the contract to the denominator\r\n\r\n        uint256 swapDivider = manualNFTSupply.add(founders.balanceOf(address(this),0));\r\n\r\n        // calculate the amount of Pawth that they will receive\r\n        uint256 pawthAmountToSwap = numberOfFoundersToSwap.mul(pawth.balanceOf(address(this))).div(swapDivider);\r\n\r\n        // make sure the pawth contract has enough tokens\r\n        require(pawth.balanceOf(address(this)) >= pawthAmountToSwap,\"The swap contract doesn't have enough Pawth\");\r\n\r\n        // transfer the founders token to the swap contact\r\n        founders.safeTransferFrom(msg.sender,address(this),foundersId,numberOfFoundersToSwap, tokenURIBytes);\r\n\r\n        // send the Pawth tokens to the msg.sender\r\n        pawth.transfer(msg.sender,pawthAmountToSwap);\r\n\r\n    }\r\n\r\n    function swapPawthForFoundersVariable(uint256 numberOfFoundersToClaim) public {\r\n\r\n        require(variableSwapRateOn == true, \"Variable swaps are not enabled.\");\r\n        // get the amount of pawth held by the sender\r\n        uint256 amountOfPawthHeldBySender = pawth.balanceOf(msg.sender);\r\n\r\n        // calculate the exchange rate of Pawth for a founders\r\n        uint256 amountOfPawthRequired = numberOfFoundersToClaim.mul(pawth.balanceOf(address(this))).mul(pawthClaimTax).div(100).div(manualNFTSupply);\r\n\r\n        // make sure the msg.sender has enough pawth\r\n        require(amountOfPawthHeldBySender >= amountOfPawthRequired, \"You don't have enough Pawth\");\r\n\r\n        // make sure the contract has enough founders nfts\r\n        require(founders.balanceOf(address(this),foundersId)>= numberOfFoundersToClaim, \"The swap contract does not have enough founders NFTs\");\r\n\r\n        // make sure the person is trying to claim at least 1 founders nft\r\n\r\n        require(numberOfFoundersToClaim > 0, \"You need to claim at least 1 founders\");\r\n\r\n        // send the pawth tokens to the swap contract\r\n\r\n        pawth.transferFrom(msg.sender,address(this),amountOfPawthRequired);\r\n\r\n        // send the founder's nfts to the sender\r\n\r\n        founders.safeTransferFrom(address(this),msg.sender, foundersId, numberOfFoundersToClaim, tokenURIBytes);\r\n    }\r\n\r\n    function swapFoundersForPawthFixed(uint256 numberOfFoundersToSwap) public {\r\n        require(variableSwapRateOn == false, \"Fixed swap rates are not enabled\");\r\n\r\n        // make sure that the msg.sender has enough founders to swap\r\n        uint256 numberOfFoundersHeldBySender = founders.balanceOf(msg.sender,foundersId);\r\n\r\n        // require that the sender has enough founders tokens to swap\r\n        require(numberOfFoundersHeldBySender >= numberOfFoundersToSwap, \"You don't have enough founders tokens\");\r\n\r\n        // require that the number of founders entered is greater than 0\r\n        require(numberOfFoundersToSwap >0, \"You need to swap more than 0 founders nfts\");\r\n\r\n        // calculate the amount of Pawth to send\r\n        uint256 amountOfPawthToSend = numberOfFoundersToSwap.mul(fixedPawthSwapRate);\r\n\r\n        // make sure the pawth contract has enough tokens\r\n        require(pawth.balanceOf(address(this)) >= amountOfPawthToSend,\"The swap contract doesn't have enough Pawth\");\r\n\r\n        // transfer the founders token to the swap contact\r\n        founders.safeTransferFrom(msg.sender,address(this),foundersId,numberOfFoundersToSwap, tokenURIBytes);\r\n\r\n        // send the Pawth tokens to the msg.sender\r\n        pawth.transfer(msg.sender,amountOfPawthToSend);\r\n    \r\n    }\r\n\r\n    function swapPawthForFoundersFixed(uint256 numberOfFoundersToClaim) public {\r\n\r\n        require(variableSwapRateOn == false, \"Fixed swaps are not enabled.\");\r\n        // get the amount of pawth held by the sender\r\n        uint256 amountOfPawthHeldBySender = pawth.balanceOf(msg.sender);\r\n\r\n        // calculate the amount of Pawth to send\r\n        uint256 amountOfPawthToSend = numberOfFoundersToClaim.mul(fixedPawthSwapRate);\r\n\r\n        // of fixedClaimTax == true, add a tax such that the Pawth contract accumulates Pawth\r\n\r\n        if (fixedClaimTax == true) {\r\n            amountOfPawthToSend = amountOfPawthToSend.mul(pawthClaimTax).div(100);\r\n        }\r\n\r\n        // make sure the msg.sender has enough pawth\r\n        require(amountOfPawthHeldBySender >= amountOfPawthToSend, \"You don't have enough Pawth\");\r\n\r\n        // make sure the contract has enough founders nfts\r\n        require(founders.balanceOf(address(this),foundersId)>= numberOfFoundersToClaim, \"The swap contract does not have enough founders NFTs\");\r\n\r\n        // make sure the person is trying to claim at least 1 founders nft\r\n\r\n        require(numberOfFoundersToClaim > 0, \"You need to claim at least 1 founders\");\r\n\r\n        // send the pawth tokens to the swap contract\r\n\r\n        pawth.transferFrom(msg.sender,address(this),amountOfPawthToSend);\r\n\r\n        // send the founder's nfts to the sender\r\n\r\n        founders.safeTransferFrom(address(this),msg.sender, foundersId, numberOfFoundersToClaim, tokenURIBytes);\r\n    }\r\n\r\n}",
  "sourcePath": "C:\\Users\\kdmcg\\Documents\\practice_solidity\\defi_tutorial\\src\\contracts\\Swap.sol",
  "compiler": {
    "name": "solc",
    "version": "0.8.14+commit.80d49f37.Emscripten.clang"
  },
  "schemaVersion": "3.4.7",
  "updatedAt": "2022-06-11T19:55:53.980Z",
  "networkType": "ethereum",
  "devdoc": {
    "kind": "dev",
    "methods": {
      "supportsInterface(bytes4)": {
        "details": "See {IERC165-supportsInterface}."
      }
    },
    "version": 1
  },
  "userdoc": {
    "kind": "user",
    "methods": {},
    "version": 1
  }
}